:020000040800F2
:10000000F80700204D020008791600087B1600084A
:100010007F160008831600088716000800000000FD
:100020000000000000000000000000008B16000827
:100030008D160008000000008F16000891160008B9
:1000400067020008670200086702000867020008EC
:1000500067020008670200086702000867020008DC
:1000600067020008670200086702000867020008CC
:1000700067020008670200086702000867020008BC
:1000800067020008670200086702000867020008AC
:10009000670200086702000867020008670200089C
:1000A000670200086702000867020008670200088C
:1000B000670200086702000867020008670200087C
:1000C000670200086702000867020008670200086C
:1000D00067020008711A000867020008670200083A
:1000E000670200086702000867020008670200084C
:1000F000670200086702000867020008670200083C
:10010000670200086702000867020008670200082B
:10011000670200086702000867020008670200081B
:10012000670200086702000867020008670200080B
:1001300067020008670200086702000867020008FB
:1001400067020008670200086702000867020008EB
:1001500067020008670200086702000867020008DB
:1001600067020008670200086702000867020008CB
:1001700067020008670200086702000867020008BB
:10018000670200086702000800F002F800F04FF86C
:100190000AA090E8000C82448344AAF10107DA45E2
:1001A00001D100F044F8AFF2090EBAE80F0013F0E5
:1001B000010F18BFFB1A43F001031847E8100300B2
:1001C00008110300103A24BF78C878C1FAD8520742
:1001D00024BF30C830C144BF04680C6070470000C1
:1001E0000023002400250026103A28BF78C1FBD840
:1001F000520728BF30C148BF0B607047662908F01E
:100200004987642907F03486782907F06B86002037
:1002100070471FB508F039FF08F054F904000020BA
:10022000002108F0A5FEE0601FBD10B510BD08F06C
:100230005FFA1146FFF7EDFF06F036FB08F07DFA96
:1002400003B4FFF7F2FF03BC01F0AEFB094880479F
:1002500009480047FEE7FEE7FEE7FEE7FEE7FEE7A8
:10026000FEE7FEE7FEE7FEE704480549054A064BC0
:10027000704700007117000889010008F80100208C
:10028000F8070020F8030020F8030020324901435A
:10029000324A1160704770B5002100230F22C478E4
:1002A0001CB32E4C246804F4E064C4F5E064C4F389
:1002B0000721C1F10404E3B20A4144789C40E1B251
:1002C0008478144021430C07210E254C0578615594
:1002D000047804F01F050124AC4005786D11AD00D1
:1002E00005F1E025C5F8004109E0047804F01F0598
:1002F0000124AC401B4D0678761145F8264070BDB0
:10030000194A0A400243154B1B1F1A60704739B146
:10031000124A121D12680243104B1B1D1A6006E0A0
:100320000E4A121D126882430C4B1B1D1A60704747
:10033000042808D14FF0E021096941F004014FF091
:10034000E022116107E04FF0E021096921F004018A
:100350004FF0E022116170470000FA050CED00E05B
:1003600000E400E080E100E080FFFF1F30B943F2CD
:10037000DB028100A1F1C0410A6005E043F2D20234
:100380008100A1F1C0410A606FF07042411C8900F8
:10039000A1F1C0410A608100A1F1C041C1F804216E
:1003A0007047D0E901121143C26811430269114339
:1003B0004269114382691143C2691143026A1143C0
:1003C000426A1143826A1143C26A1143026B1143AC
:1003D00002689200A2F1C0421160816808290BD125
:1003E00001688900A1F1C041096841F0400201683B
:1003F0008900A1F1C0410A60416B0968426B5268F3
:1004000041EA0211426B926841EA0221426B9289F1
:1004100041EA0241426B128A41EA0251426B127D6B
:1004200041EA0261426B926911430268521C9200D8
:10043000A2F1C0421160C16AB1F5804F1BD1816B3E
:100440000968826B526841EA0211826B926841EA44
:100450000221826B128A41EA0251826B127D41EACB
:100460000261826B9269114302689200A2F1C0425C
:10047000C2F8041107E06FF0704201688900A1F131
:10048000C041C1F804217047002101600221416090
:1004900000218160C160016141618161C1610162CE
:1004A0004FF480514162490081620021C1620163C1
:1004B000F84941638163704751B18200A2F1C042A3
:1004C000126842F001038200A2F1C042136009E009
:1004D0008200A2F1C0421268EF4B1A408300A3F1E0
:1004E000C0431A60704710280AD118214FF02042EB
:1004F0001166402151664FF0FC319166D16610E0E3
:100500001821E64A116040214FF02042C2F88410C1
:100510004FF0FC31E14A083211604FF02042C2F83E
:100520008C10704730B5002100220023446844F04D
:10053000080485682C43C5682C4305692C4345692C
:1005400044EA4524856944EA4531C4692468C5699B
:100550006D6844EA0524C5692D8944EA0544C569E6
:100560002D7B44EA0562046A2468056A6D6844EAE2
:100570000524056A2D8944EA0544056A2D7B44EA71
:1005800005630468102C05D14FF020442166A26653
:10059000E36608E0C14C21604FF02044C4F8882095
:1005A000BE4C0C34236030BD10210160002141603D
:1005B0008160C160016141618161FC21C26911609A
:1005C000C2695160C2699160C269D160026A1160FA
:1005D000026A5160026A9160026AD160704799B103
:1005E000102808D14FF02042126E42F004024FF062
:1005F00020431A661DE0A94A126842F004024FF037
:100600002043C3F8802014E0102809D14FF0204285
:10061000126EA14BDB1E1A404FF020431A6608E011
:100620009E4A12689C4BDB1E1A404FF02043C3F8D1
:100630008020704799B1102808D14FF02042126EE7
:1006400042F040024FF020431A661DE0934A1268C0
:1006500042F040024FF02043C3F8802014E01028FD
:1006600009D14FF02042126E8B4B3F3B1A404FF0A6
:1006700020431A6608E0894A1268874B3F3B1A40BC
:100680004FF02043C3F88020704701460020102916
:1006900003D14FF02042506F02E0804A14321068BC
:1006A000704718207D492031086000200906C1F8F4
:1006B000A4004FF0FC30794928310860091D08601A
:1006C000091D08607047016841F01001426841EA65
:1006D0004221826841EA4231704A20321160C16889
:1006E0000968C268526841EA0221C268128941EA77
:1006F0000241C268127B41EA0261684A28321160F5
:10070000016909680269526841EA02210269128995
:1007100041EA02410269127B41EA02615F4A2C32DE
:100720001160416909684269526841EA02214269DF
:10073000128941EA02414269127B41EA02614FF0AB
:100740002042C2F8B0107047002101604160816012
:10075000FC21C2681160C2685160C2689160C268C1
:10076000D160026911600269516002699160026999
:10077000D160426911604269516042699160426989
:10078000D160704748B145492031096841F0040102
:100790004FF02042C2F8A01009E04049203109681A
:1007A0003D4AD21E11404FF02042C2F8A0107047BF
:1007B00010B5F2B1102807D14FF020435B6E0B4308
:1007C0004FF02044636632E0B0F5807F08D1334BB0
:1007D0001B1D1B680B434FF02044C4F8843026E0F7
:1007E0002E4B24331B680B434FF02044C4F8A43035
:1007F0001DE0102807D14FF020435B6E8B434FF074
:100800002044636613E0B0F5807F08D1234B1B1DA5
:100810001B688B434FF02044C4F8843007E01F4B23
:1008200024331B688B434FF02044C4F8A43010BD20
:1008300010B5024600200023102A03D14FF02044B7
:10084000636E09E0B2F5807F03D1144C241D236848
:1008500002E0124C2434236803EA01040CB10120A5
:1008600000E0002010BD102807D14FF02042526E4A
:100870008A434FF020435A6619E0B0F5807F0FD1CC
:10088000064A121D12688A434FF02043C3F88420A1
:100890000DE0000098900008FEFF0F00800000A00F
:1008A000234A12688A434FF02043C3F8A4207047BC
:1008B00070B502460020002300240025102A03D131
:1008C0004FF02046736E08E0B2F5807F03D1184EDA
:1008D000203E336801E0164E336803EA010403EA60
:1008E000D10514B10DB1012000E0002070BD102829
:1008F00008D14FF02042526E22EAD1024FF020433D
:100900005A6614E0B0F5807F09D1094A203A12688E
:1009100022EAD1024FF02043C3F8842007E0044AC2
:10092000126822EAD1024FF02043C3F8A420704796
:10093000A40000A010B504469848844208D10121C3
:10094000084600F086FB0021012000F082FB76E0E3
:100950009348844208D10121022000F07AFB002153
:10096000022000F076FB6AE08E48844208D1012123
:10097000042000F06EFB0021042000F06AFB5EE022
:100980008948844208D10121082000F062FB00213F
:10099000082000F05EFB52E08448844208D1012127
:1009A000102000F056FB0021102000F052FB46E022
:1009B0007F48844208D10121202000F04AFB002119
:1009C000202000F046FB3AE07A48844208D1012119
:1009D000402000F03EFB0021402000F03AFB2EE0DA
:1009E0007548844208D10121802000F032FB0021AB
:1009F000802000F02EFB22E07048844208D10121C3
:100A0000801500F026FB0021A01500F022FB16E067
:100A10006B48844208D10121401500F01AFB0021E7
:100A2000601500F016FB0AE06648844207D10121F8
:100A3000001500F00EFB0021201500F00AFB10BD90
:100A4000F0B50A4600210023002400BF3DE0012547
:100A500005FA01F3156805EA03049C4234D10568E0
:100A60004F000326BE40B543056015794E00B540E2
:100A70000668354305601579012D02D01579022DE0
:100A800016D185684F000326BE40B5438560557971
:100A90004E00B540866835438560456801268E4026
:100AA000B5434560456896798E40B6B2354345609A
:100AB000C5684F000326BE40B543C560D5794E00DA
:100AC000B540C6683543C560491C1029BFD3F0BD89
:100AD0004FF6FF7101600021017141718171C17197
:100AE000704708B54FF480320092009A0A43009292
:100AF000009AC261C161009AC261C2690092C26972
:100B0000009208BD0246002013690B400BB1012082
:100B100000E0002070470146086980B27047024635
:100B2000002053690B400BB1012000E0002070470A
:100B30000146486980B2704701837047418370471E
:100B40000AB1018300E04183704741617047426907
:100B50004A4042617047F0B5002300244D07ED0E76
:100B600002FA05F3CE1000F1200555F826504E0785
:100B7000F70E0F26BE40B543CF1000F1200646F811
:100B80002750CE1000F1200555F8265045EA030401
:100B9000CE1000F1200545F82640F0BD00000240CF
:100BA0000004024000080240000C02400010024015
:100BB0000014024000180240001C024000200240C5
:100BC0000024024000280240F948006840F001007B
:100BD000F74908600020F64908310860F4480068C9
:100BE000F4490840F2490860F348091D0860F348D9
:100BF000EF4984310860F0481038091D0860EC485E
:100C0000006820F48020EA4908600020E8490C319F
:100C10000860E7498C31086070470021E44A921C63
:100C2000117011460870704710B50146002200236C
:100C300000204A11012A02D1DD4C236808E0022A73
:100C400003D1DB4C7034236802E0D94C7434236840
:100C500001F01F02012494401C400CB1012000E06F
:100C6000002010BD38B5002000900024002500BFF2
:100C70003120FFF7D9FF05460098401C00900098EE
:100C8000B0F5A04F01D0002DF2D03120FFF7CCFFFE
:100C900008B1012400E00024204638BD01460020B0
:100CA000C34A106820F0F80040EAC10010607047A5
:100CB000C349086070470021BD4A7032117011703D
:100CC000012802D004280AD104E00121B84A703278
:100CD000117005E00521B64A7032117000E000BFC6
:100CE00000BF7047B7490860704770B5049C41EA7F
:100CF00082150126C6EB530645EA0645054345EA3B
:100D00000465AB4E361D356070BDAD490866704751
:100D1000820142EA0172A64B84331A607047A849E7
:100D20008866704710B5830143EA016343EA0273A2
:100D30009F4C8834236010BDA14908677047A049C3
:100D4000C864704702460020994B0833186820F0A9
:100D5000EC6042EA01031843954B08331860704772
:100D600002460020924B0833186820F0784042EA8F
:100D7000010318438E4B083318607047014600206A
:100D80008B4A0832106820F0030008431060704757
:100D900087480830006800F00C00704701460020CA
:100DA000834A0832106820F0F00008431060704752
:100DB000014600207E4A0832106820F4E0500843C3
:100DC0001060704701460020794A0832106820F40C
:100DD000604040EAC10010607047F0B50021002279
:100DE0000024022500260223714F08373F6807F0D0
:100DF0000C0121B1042905D0082937D105E0724F33
:100E0000076036E0714F076033E0694F3F1D3F6870
:100E1000C7F38056664F3F1D3F6807F03F036EB132
:100E20006A4FB7FBF3F7DFF888C10CF1040CDCF86C
:100E300000C0CCF3881C07FB0CF40CE0624FB7FB3E
:100E4000F3F7DFF86CC10CF1040CDCF800C0CCF354
:100E5000881C07FB0CF4564F3F1D3F68C7F3014742
:100E60007F1C7D00B4FBF5F7076002E0564F07607A
:100E700000BF00BF4E4F08373F6807F0F001090977
:100E8000534F7A5C0768D7404760494F08373F683F
:100E900007F4E051890A4E4F7A5C4768D740876073
:100EA000434F08373F6807F46041490B484F7A5C6D
:100EB0004768D740C760F0BD002100F44072B2F52A
:100EC000407F0AD13A4A0832116821F4F811414AA8
:100ED00002401143364A08321160354A70321268B6
:100EE000C0F30B031A43324B70331A607047354915
:100EF00044390860704733494039086070473649C3
:100F00000860704701460020294A8C32106820F0A2
:100F10001F004A1E1043264A8C321060704701465B
:100F20000020234A8C32106820F4F8504A1E40EA10
:100F300002201F4A8C3210607047014600201C4A74
:100F40008C32106820F4401008431060704701464E
:100F50000020174A8C32106820F4400008431060CB
:100F6000704701460020124A8C32106820F440304D
:100F700008431060704719490860704739B10C4A3E
:100F80003032126802430A4B30331A6006E0084AD6
:100F9000303212688243064B30331A607047F9B121
:100FA000034A343212680243014B34331A601CE0A6
:100FB00000380240FFFFF6EA103000240030002025
:100FC00000004742800E47420024F40000127A00DD
:100FD00000000020FFFCFF0F5C014742E011474288
:100FE0008F4A126882438E4B1A60704739B18C4A1F
:100FF000121D126802438A4B1B1D1A6006E0884AC4
:10100000121D12688243864B1B1D1A60704739B14E
:10101000834A0C3212680243814B0C331A6006E09B
:101020007F4A0C32126882437D4B0C331A60704742
:1010300039B17B4A103212680243794B10331A607F
:1010400006E0774A103212688243754B10331A60FB
:10105000704739B1724A243A12680243704B243BFC
:101060001A6006E06E4A243A126882436C4B243BB5
:101070001A60704739B16A4A203A12680243684BD5
:10108000203B1A6006E0664A203A12688243644BAD
:10109000203B1A60704739B1614A1C3A126802431A
:1010A0005F4B1C3B1A6006E05D4A1C3A12688243A3
:1010B0005B4B1C3B1A60704739B1594A143A1268AD
:1010C0000243574B143B1A6006E0554A143A126823
:1010D0008243534B143B1A60704739B1504A103A5F
:1010E000126802434E4B103B1A6006E04C4A103A1D
:1010F000126882434A4B103B1A60704739B1484A24
:101100001C3212680243464B1C331A6006E0444A04
:101110001C3212688243424B1C331A60704739B14B
:101120003F4A2032126802433D4B20331A6006E0EA
:101130003B4A203212688243394B20331A60704791
:1011400039B1374A243212680243354B24331A60CE
:1011500006E0334A243212688243314B24331A604A
:10116000704739B12E4A2C32126802432C4B2C3373
:101170001A6006E02A4A2C3212688243284B2C332C
:101180001A60704739B1264A303212680243244B44
:1011900030331A6006E0224A303212688243204B14
:1011A00030331A607047012808D11D493C31096865
:1011B00041F008011A4A3C32116007E018493C31FD
:1011C000096821F00801164A3C321160704739B1B4
:1011D000134A273A12780243114B273B1A7006E054
:1011E0000F4A273A127882430D4B273B1A707047FB
:1011F0000B484030006840F0807009494031086079
:10120000704701460020064A283A12680A400AB18F
:10121000012000E00020704701492639087070471E
:101220003438024010B50446FA48844208D10121FE
:101230001020FFF752FF00211020FFF74EFF57E06C
:10124000F548844209D101214804FFF735FF002108
:101250004FF40030FFF730FF4AE0F048844209D1F4
:1012600001218804FFF728FF00214FF48020FFF7B9
:1012700023FF3DE0EA48844209D10121C804FFF779
:101280001BFF00214FF40020FFF716FF30E0E54878
:10129000844209D101210805FFF70EFF00214FF418
:1012A0008010FFF709FF23E0DF48844208D10121C5
:1012B0002020FFF712FF00212020FFF70EFF17E08C
:1012C000DA48844209D101218807FFF7F5FE0021A1
:1012D0004FF08040FFF7F0FE0AE0D548844207D186
:1012E00001214005FFF7E8FE00216005FFF7E4FE5D
:1012F00010BD2DE9FF4705460E460024A14600BF5C
:10130000A046B08900B100BF2C8A24F44054F08874
:1013100004432C82AC8941F20C608443B08831894B
:101320000843718908430443AC81AC8A24F44074B7
:10133000B0890443AC826846FFF74FFDB54885424B
:1013400002D0B948854202D1DDF80C9001E0DDF809
:101350000890A88900F4004040B109EBC90000EBF7
:10136000091031684900B0FBF1F707E009EBC9004B
:1013700000EB091031688900B0FBF1F76420B7FB7E
:10138000F0F004012009642101FB1078A88900F421
:10139000004040B1322000EBC800B0FBF1F000F09B
:1013A0000700044308E0322000EB08106421B0FB82
:1013B000F1F000F00F0004432C81BDE8FF874FF4EB
:1013C0001651016000218180C18001810C21418181
:1013D00000218181704710B502460020108A20F458
:1013E00070600B884C8823438C882343CC8823432C
:1013F0001843108210BD0021018041808180C1808E
:10140000704721B1828942F40052828104E08289CE
:101410004DF6FF731A4082817047028B02F47F42BF
:101420000283028B0A430283704721B1828942F40E
:101430000042828103E08289C2F30E0282817047FA
:1014400021B1828A42F40062828204E0828A4FF2F1
:10145000FF731A4082827047C1F30802828070478E
:1014600001468888C0F308007047028A4FF6F0737F
:101470001A400282028A0A430282704721B182899D
:1014800042F00202828104E082894FF6FD731A4025
:101490008281704782894FF2FF731A40828182896C
:1014A0000A4382817047028A4FF6DF731A40028234
:1014B000028A0A430282704721B1028A42F48042C2
:1014C000028204E0028A4BF6FF731A4002827047E0
:1014D000818941F001018181704721B1828A42F006
:1014E0000802828204E0828A4FF6F7731A408282F1
:1014F0007047028BD2B20283028B42EA012202833E
:10150000704721B1828A42F02002828204E0828AFE
:101510004FF6DF731A408282704721B1828A42F00F
:101520001002828204E0828A4FF6EF731A408282B0
:101530007047828A4FF6FB731A408282828A0A437E
:101540008282704721B1828A42F00202828204E0E4
:10155000828A4FF6FD731A40828270471AB1838ADD
:101560000B43838202E0838A8B4383827047F0B50A
:101570000346002400260025002040F66A17B942E1
:1015800000D100BF1846C1F3421401F01F06012725
:1015900007FA06F5012C01D10C3004E0022C01D130
:1015A000103000E014301AB107682F43076002E0E2
:1015B0000768AF430760F0BD02460020B1F5007F29
:1015C00000D100BF13880B400BB1012000E00020C8
:1015D000704701F40072B2F5007F00D100BFCA432A
:1015E0000280704770B502460024002300250020C9
:1015F00040F66A16B14200D100BFC1F3421501F0B6
:101600001F03012606FA03F3012D13D196893340F7
:1016100017E0000000100140004400400048004076
:10162000004C004000500040001401400078004091
:10163000007C0040022D02D1168A334001E0968AD8
:1016400033400C12012606FA04F41688344013B114
:101650000CB1012000E0002070BD10B50022002375
:1016600040F66A14A14200D100BF0A12012494403E
:10167000A3B2DC43048010BD704700BFFEE700BF8B
:10168000FEE700BFFEE700BFFEE770477047704708
:10169000704700000CB5002001900090764800686B
:1016A00040F480307449086000BF7348006800F45B
:1016B000003000900198401C0190009818B90198E2
:1016C000B0F5A04FF1D16C48006800F4003010B1C3
:1016D0000120009001E0002000900098012846D1F0
:1016E00065484030006840F08050634940310860F0
:1016F0006248006840F44040604908605E48083035
:1017000000685D49083108600846006840F4004000
:1017100008600846006840F4A05008605848091F57
:101720000860081F006840F08070091F086000BF53
:101730005148006800F000700028F9D040F20570B0
:10174000504908604C480830006820F003004A49BE
:10175000083108600846006840F00200086000BFD9
:1017600045480830006800F00C000828F8D10CBD8E
:1017700010B54548006840F47000434908603E4891
:10178000006840F001003C49086000203A490831F7
:101790000860394800683D490840374908603C48BE
:1017A000091D0860081F006820F48020091F0860D8
:1017B000002031490C310860FFF76CFF4FF00060EA
:1017C00031498039086010BD70B500200022022325
:1017D00000240221284D08352D6805F00C0020B1A9
:1017E000042806D0082834D107E02A4D2A4E356057
:1017F00033E02A4D284E35602FE01F4D2D1D2D68FA
:10180000C5F380541C4D2D1D2D6805F03F0154B1CA
:10181000224DB5FBF1F5184E361D3668C6F3881615
:1018200005FB06F209E01B4DB5FBF1F5124E361D26
:101830003668C6F3881605FB06F20F4D2D1D2D6880
:10184000C5F301456D1C6B00B2FBF3F5124E35601C
:1018500003E0104D104E356000BF00BF064D083547
:101860002D68C5F303150E4E705D0B4D2D68C540F8
:10187000094E356070BD0000003802400070004025
:1018800008544007003C024088ED00E0FFFFF6FEF0
:10189000103000240024F4001000002000127A0010
:1018A0001400002010B504466FF00400FEF740FD60
:1018B000E11704EB5171C1F3C701394A11701046A9
:1018C000007800EB4001C1EBC0104FF6FF7101EA58
:1018D000C0003449088010BD0146314A12784A439D
:1018E0004FF0E0235A6100229A611A46126942F0D1
:1018F00001021A6100BF4FF0E022106900F00102FE
:101900001AB100F48032002AF5D04FF0E0221269BB
:1019100022F001024FF0E0231A6100229A61704721
:101920000146204A12884A434FF0E0235A610022C0
:101930009A611A46126942F001021A6100BF4FF023
:10194000E022106900F001021AB100F48032002A8E
:10195000F5D04FF0E022126922F001024FF0E023AF
:101960001A6100229A61704770B504464FF40770FF
:1019700094FBF0F0C6B24FF4077094FBF0F100FB5B
:10198000114085B205E04FF40770FFF7C9FF701EE4
:10199000C6B2002EF7D115B12846FFF7C1FF70BDC2
:1019A0002400002026000020014600BF704700BF31
:1019B0004E4A128802F04002002AF9D0C2B24B4BC4
:1019C0009A80704710B588B0044601210846FFF799
:1019D000D5FA01211020FFF72BFB072209214448EB
:1019E000FFF7B9F807220A214148FFF7B4F84FF48E
:1019F000C060069002208DF81C008DF81D000020AC
:101A00008DF81E0001208DF81F0006A93848FFF749
:101A100017F802940020ADF80C00ADF80E00ADF8F8
:101A20001000ADF814000C20ADF8120002A92F48E8
:101A3000FFF75FFC01212D48FFF7E3FC40212B4815
:101A4000FFF7C7FD012240F225512848FFF78FFD1F
:101A500025208DF8040003208DF805008DF8060080
:101A600001208DF8070001A8FEF715FC08B010BD95
:101A700010B540F225511D48FFF7B4FD10B31B48C7
:101A8000FFF7EEFCC4B21B48008800F40040C8B960
:101A90001848008800F4804060B10A2C03D0002070
:101AA0001449088020E01348008840F400401149A0
:101AB000088019E00D2C06D10E48008840F48040C3
:101AC0000C49088010E00B480088C0F30D000A495B
:101AD0000C5408480088401C0649088008460088C5
:101AE000C72801DD0020088010BD00000010014063
:101AF000000002402C000020BC0000201CB5012189
:101B00002020FFF73BFA4FF4C060009001208DF8D1
:101B1000040000208DF8060003208DF80500012048
:101B20008DF8070069460448FEF78AFF4FF4C0614C
:101B30000148FFF701F81CBD001402401CB501214B
:101B40001020FFF71BFA1820009000208DF80400E9
:101B50008DF8060003208DF8050001208DF80700A0
:101B600069460248FEF76CFF1CBD000000100240F1
:101B7000F7480089F7490880704703B5BDF80000B1
:101B8000F4490880BDF804004FF0D841A1F8800066
:101B90000CBD01B5BDF800000090BDF80000ED4996
:101BA000891C088008BD01B5BDF800000090BDF893
:101BB0000000E849088008BD30B504460D46E448F9
:101BC000808849F24131884205D0E148808845F259
:101BD0001031884214D1DE494889FFF7E4FF201212
:101BE000FFF7D7FFE0B2FFF7D4FFD9498889FFF7A5
:101BF000DAFF2812FFF7CDFFE8B2FFF7CAFF5DE07A
:101C0000D348808846F6040188421DD1D0488079A7
:101C1000012804D1CE480088401E001B84B2CC4964
:101C20004889FFF7C0FF2012FFF7B3FFE0B2FFF7CC
:101C3000B0FFC7498889FFF7B6FF2812FFF7A9FF51
:101C4000E8B2FFF7A6FF39E0C148808845F210519D
:101C5000884220D1BE494889FFF7A5FF2012FFF72F
:101C600098FFBB494989491C88B2FFF79CFFE0B245
:101C7000FFF78FFFB6498889FFF795FF2812FFF716
:101C800088FFB3498989491C88B2FFF78CFFE8B205
:101C9000FFF77FFF12E0AE488079012804D1AC48FD
:101CA0000088401E001B84B2A94948892146FFF7DD
:101CB00064FFA74988892946FFF75FFF30BD2DE9FA
:101CC000F04305460024A146A148807901281ED191
:101CD0009F48808846F60401884218D0082D15D206
:101CE000DFE805F00406080A0C0E101206250DE0C8
:101CF00007250BE0042509E0052507E0012505E09F
:101D0000002503E0032501E0022500BF00BF904845
:101D1000808849F24131884211D08D48808846F64A
:101D2000040188420BD08A48808845F210318842ED
:101D300005D08748808845F21051884278D1082D17
:101D40001CD2DFE805F00406090C0F12151800BFBD
:101D500014E044F0800411E044F040040EE044F04C
:101D6000C0040BE044F0200408E044F0600405E007
:101D700044F0A00402E044F0E00400BF00BF744857
:101D8000808845F21051884202D14FF4585901E041
:101D90004FF036096E48808845F21031884207D0EE
:101DA0006B48808845F21051884201D044F0080405
:101DB0006748808846F60401884201D144F0020455
:101DC00021464846FFF7D9FE04F0200018B96048C4
:101DD000807901280FD15E4800885D494988884292
:101DE00018DA5B48B0F800804088594908800846F6
:101DF000A0F802800EE0564800885549498888427C
:101E000008DD5348B0F800804088514908800846F2
:101E1000A0F802804E48807901280AD14C48808879
:101E200046F60401884204D049484688078803E002
:101E30007AE04748068847884548808845F210512F
:101E400088424AD142494889FFF7ADFE0020FFF79A
:101E5000A0FE3F494989491C88B2FFF7A4FE002033
:101E6000FFF797FE3A494989891C88B2FFF79BFE24
:101E7000711EC1F30F20FFF78CFE35494989C91C3B
:101E800088B2FFF790FE711EC8B2FFF782FE30499C
:101E90008889FFF788FE0020FFF77BFE2C4989899F
:101EA000491C88B2FFF77FFE0020FFF772FE284929
:101EB0008989891C88B2FFF776FE791EC1F30F204D
:101EC000FFF767FE22498989C91C88B2FFF76BFEBC
:101ED000791EC8B2FFF75DFE5FE01D494889FFF734
:101EE00062FE0020FFF755FE0020FFF752FE711E34
:101EF000C1F30F20FFF74DFE711EC8B2FFF749FE78
:101F000013498889FFF74FFE0020FFF742FE0020AB
:101F1000FFF73FFE791EC1F30F20FFF73AFE791E4F
:101F2000C8B2FFF736FE38E0082D21D2DFE805F011
:101F300004070A0D14171A1D44F0300418E044F089
:101F4000100415E044F0200412E000BF10E000008F
:101F5000840100207E00006C44F0380408E044F066
:101F6000280405E044F0180402E044F0080400BF2F
:101F700000BFFE48808848F68911884205D14FF09D
:101F8000110946F24000044303E04FF0030944F412
:101F9000805421464846FFF7F0FDBDE8F083F0B5D8
:101FA00007460320FFF78BFE002430E000262AE0DE
:101FB00004EB4400304481B20020FFF7FDFDFFF741
:101FC000D7FD00251BE004EB840007EB0010405D0B
:101FD00050B94FF6FF70E64908804FF0D841A1F89C
:101FE0008000E349088008E00020E14908804FF0C4
:101FF000D841A1F88000DE490880681C85B2502DC8
:10200000E1DB701C86B2032ED2DB601C84B2502C44
:10201000CCDBF0BD70B504460D461646D34880882B
:1020200049F24131884205D0D048808845F21031CC
:10203000884214D1CD494889FFF7B5FD2012FFF73A
:10204000A8FDE0B2FFF7A5FDC8498889FFF7ABFD01
:102050002812FFF79EFDE8B2FFF79BFD5DE0C34845
:10206000808845F21051884220D1C0494889FFF745
:102070009AFD2012FFF78DFDBC494989491C88B2A1
:10208000FFF791FDE0B2FFF784FDB8498889FFF7BB
:102090008AFD2812FFF77DFDB4498989491C88B261
:1020A000FFF781FDE8B2FFF774FD36E0AF488088A6
:1020B00046F6040188421DD1AC488079012804D13C
:1020C000AA480088401E001B84B2A8494889FFF72F
:1020D0006AFD2012FFF75DFDE0B2FFF75AFDA3494C
:1020E0008889FFF760FD2812FFF753FDE8B2FFF77C
:1020F00050FD12E09D488079012804D19B4800885A
:10210000401E001B84B2994948892146FFF735FDDE
:10211000964988892946FFF730FD944800899449FB
:10212000891E08804FF0D840A0F8806070BD2DE96E
:10213000F84F80460E4617461C46B3462046E31726
:1021400004EB5373DB1021464FEAE47C04EB5C7C28
:102150004FEAEC0CA4EBCC0CBCF1000F02D04FF01A
:10216000010C01E04FF0000C6344224604EBD27CEA
:102170004FEA6C0C03FB0CF3DBB20093A7F12000D9
:10218000C7B2002556E00C2C07D107EB4700794970
:1021900001EB800010F8059013E0102C05D1764873
:1021A00000EB071010F805900BE0182C07D107EB97
:1021B000C700724901EB800010F8059001E0BDE80E
:1021C000F88F4FF0000A2FE009F0800030B16C4822
:1021D000028831464046FFF71DFF07E00A9828B9FC
:1021E0006848028831464046FFF714FF4FEA4960CD
:1021F0004FEA1069701C86B25C484088B04200DC2F
:10220000DDE7A6EB0B00A0420AD15E4608F1010013
:102210001FFA80F855480088404500DCCFE706E00B
:102220000AF1010000F0FF0ABAF1080FCCDB00BF91
:10223000681CC5B200988542A5DB00BFBFE710B59A
:102240000246012000E050430B00A1F10104E1B27D
:10225000F9D110BD2DE9F74F83B00F469046002508
:102260001026002002900320FFF729FDB8F1000F8F
:102270000DDAC8F10009681CC5B2012400203346FC
:102280002D22009038460399FFF751FF01E000240A
:10229000C146CB4604E00A20BBFBF0FB681CC5B27C
:1022A000BBF1000FF7D13DB900203346302200903A
:1022B00038460399FFF73BFF38E0281B401EC1B2A8
:1022C0000A20FFF7BCFFB9FBF0F00A21B0FBF1F2E6
:1022D00001FB120A0298B0B9681EA04213DDBAF1E0
:1022E000000F0ED1002006EBD671491001FB0471DE
:1022F000CDE9000688B2334620220399FFF717FF85
:1023000012E001200290002006EBD671491001FB7B
:102310000471CDE9000688B20AF13001CAB2334631
:102320000399FFF704FF00BF601CC4B2AC42C4DBDA
:1023300006B0BDE8F08FF0B504460D4616461048CD
:1023400007884F2C54DA4F2D52DA0320FFF7B7FCE1
:102350000B48068004EB440291B205EB450290B2B3
:10236000FFF72AFCFFF704FC0EE0000084010020C8
:102370008000006CB490000828950008189B0008A5
:102380002E000020300000204FF47840FE490880E5
:102390004FF0D841A1F88000FB49088004EB4402CB
:1023A000521C91B205EB450290B2FFF705FCFFF716
:1023B000DFFB4FF47840F449088008804FF0D841A3
:1023C000A1F8800004EB4402921C91B205EB450297
:1023D00090B2FFF7F1FBFFF7CBFB4FF47840EA49EF
:1023E000088008804FF0D841A1F88000E7480780B6
:1023F000F0BD08B5E44800880090BDF8000008BDB5
:1024000001B5BDF80000FFF7CEFB0520FFF764FA29
:10241000FFF7EFFF08BDDC490880704730B5014683
:1024200001F01F04C1F34513CA0AE50205EB431589
:102430001544A8B230BD00BF0100A0F10102D0B226
:10244000FAD170473EB504460D4600200290019037
:102450000090CF480088A04203DDCD484088A842C4
:1024600001DC00203EBD29462046FFF7A5FBC848F9
:10247000808849F2413188420BD0C548808846F6B1
:102480000401884205D0C248808845F21031884254
:1024900003D12E20FFF787FB0DE0BD48808845F271
:1024A0001051884204D14FF43850FFF77CFB02E012
:1024B0002220FFF778FBB648808849F22031884215
:1024C00002D10220FFF7B7FFFFF793FF0220FFF7CB
:1024D000B2FFFFF78EFF0290AD48808849F241318C
:1024E00088420BD0AA48808845F21031884205D036
:1024F000A748808845F21051884210D10220FFF78A
:102500009AFFFFF776FF0090BDF80800C0B2019077
:10251000BDF804004FF6FF7101EA002001909C48CD
:10252000808849F22531884216D09948808844F243
:102530003551884210D096488088091F88420BD0B8
:10254000934880884BF20551884205D09048808896
:102550004CF20551884202D1BDF8080082E78C4850
:10256000808849F2413188420BD08948808845F201
:102570001031884205D08648808845F21051884243
:102580000DD1BDF80800C012C002BDF804108912B8
:1025900040EA4110BDF8001040EAE12062E7BDF8D2
:1025A0000800FFF73BFF5DE700B57948808849F2F6
:1025B000413188420BD07648808846F60401884233
:1025C00005D07348808845F21031884203D1292014
:1025D000FFF7E9FA0FE06E48808845F21051884213
:1025E00004D14FF42450FFF7DEFA04E040F27311F7
:1025F0000720FFF7C2FA00BD00B56548808849F2A0
:10260000413188420BD06248808846F604018842F6
:1026100005D05F48808845F21031884203D12820D8
:10262000FFF7C1FA0EE05A48808845F210518842FF
:1026300004D14FF42050FFF7B6FA03E00021072041
:10264000FFF79BFA00BD30B504460D4629462046EB
:10265000FFF7B2FAFFF78CFA4C4800884A49088025
:1026600030BD10B50446002C52D149498871F02084
:1026700008804FF4A07048800846808849F24131B4
:1026800088420BD04248808846F60401884205D033
:102690003F48808845F2103188421AD12C203C49AD
:1026A00008812A2048812B2088810846808846F6A8
:1026B0000401884205D03648808845F210318842AE
:1026C00006D14FF4A070324908804FF4F070488072
:1026D00081E02F48808845F21051884210D14FF494
:1026E00030502B4908814FF4285048814FF42C502A
:1026F00088814FF4F07008804FF4487048806AE099
:10270000222023490881202048812120888162E0FD
:1027100001201F4988714FF4A0700880F020488084
:102720000846808849F24131884205D0184880889F
:1027300045F21031884207D12C20154908812A2002
:1027400048812B20888133E01148808846F60401B7
:10275000884207D12C200E4908812B2048812A204D
:10276000888125E00A48808845F21051884218D1B6
:102770004FF43050064908814FF4285048814FF4F7
:102780002C50888106E000008000006C2E000020A4
:10279000840100204FF4487008804FF4F0704880A6
:1027A00006E02220FE4908812120488120208881DE
:1027B000FB48808846F60401884205D0F8488088A6
:1027C00045F21031884206D14FF4F070F449088088
:1027D0004FF4A07048800020FFF771FA10BD2DE97A
:1027E000FF4F04460D4616461F46A019401E86B2EE
:1027F000E819401E87B2EA48808849F24131884290
:102800000BD0E748808845F21031884205D0E44873
:10281000808846F60401884220D1E1494889FFF7C3
:10282000C2F92012FFF7B5F9E0B2FFF7B2F93012A2
:10283000FFF7AFF9F0B2FFF7ACF9D9498889FFF794
:10284000B2F92812FFF7A5F9E8B2FFF7A2F938129A
:10285000FFF79FF9F8B2FFF79CF97DE0D048808838
:1028600045F21051884244D1CD494889FFF79BF980
:102870002012FFF78EF9CA494989491C88B2FFF72F
:1028800092F9E0B2FFF785F9C5494989891C88B2F8
:10289000FFF789F93012FFF77CF9C1494989C91C52
:1028A00088B2FFF780F9F0B2FFF773F9BC49888965
:1028B000FFF779F92812FFF76CF9B9498989491CA2
:1028C00088B2FFF770F9E8B2FFF763F9B449898974
:1028D000891C88B2FFF767F93812FFF75AF9B04937
:1028E0008989C91C88B2FFF75EF9F8B2FFF751F980
:1028F00032E0AB48807901280ED1A846B946A848F5
:102900000088801B401E1FFA80FAA5480088001B23
:10291000401E1FFA80FB03E0A046B146AA46BB4614
:10292000502003905120029052200190532000909B
:1029300041460398FFF721F949460298FFF71DF930
:1029400051460198FFF719F959460098FFF715F914
:1029500029462046FFF730F9BDE8FF8F70B50446E1
:1029600000268F480588408845438D48808846F674
:102970000401884216D18A488079012812D10020AA
:10298000874988712A2048812B20888100210846A8
:10299000FFF712F90120824988712B2048812A20F3
:1029A000888103E000210846FFF706F9FFF7E0F809
:1029B000002602E07B480480761CAE42FAD370BD4C
:1029C00000B5A1B00020209001217A20FEF7D6FAB0
:1029D00001210846FEF70AFB4FF400401E9001203B
:1029E0008DF87C0000208DF87E0002208DF87D009F
:1029F00001208DF87F001EA96B48FEF721F84CF2EC
:102A000033701E9002208DF87C0000208DF87E002F
:102A100003208DF87D0001208DF87F001EA96348FA
:102A2000FEF70EF84FF680701E9002208DF87C00A5
:102A300000208DF87E0003208DF87D0001208DF8A8
:102A40007F001EA95A48FDF7FBFF4FF480501E90EF
:102A500002208DF87C0000208DF87E0003208DF888
:102A60007D0001208DF87F001EA95248FDF7E8FF88
:102A70004FF480501E9002208DF87C0000208DF8CD
:102A80007E0003208DF87D0001208DF87F001EA9B7
:102A90004948FDF7D5FF0C2200214448FEF75BF8BA
:102AA0000C2201214148FEF756F80C2204213F4830
:102AB000FEF751F80C2205213C48FEF74CF80C2299
:102AC00008213A48FEF747F80C2209213748FEF75B
:102AD00042F80C220A213548FEF73DF80C220E215F
:102AE0003248FEF738F80C220F213048FEF733F851
:102AF0000C2207212E48FEF72EF80C2208212C4824
:102B0000FEF729F80C2209212948FEF724F80C22A7
:102B10000A212748FEF71FF80C220B212448FEF754
:102B20001AF80C2211462248FEF715F80C220D2146
:102B30001F48FEF710F80C220E211D48FEF70BF877
:102B40000C220F211A48FEF706F80C2211461948EC
:102B5000FEF701F80C2211461748FDF7FCFF0F2085
:102B600008900020099018200A9000200B900C90EB
:102B70000D900E90082001900020029008200390F4
:102B80000020049005900690079006200F900020EA
:102B900010901190102012900020139015900DE0CD
:102BA000840100208000006C00040240000C024000
:102BB00000100240001402400018024014901690C9
:102BC00017904FF480501890002019904FF48040D7
:102BD0001A9000201B9008A81C9001A81D900FA817
:102BE000FDF7DFFB01210620FDF766FC3220FEF732
:102BF000BBFE01210020FEF7C0FF3220FEF7B4FE2D
:102C00000020FFF7FDFBFE49888008468088FF28EA
:102C10000ADB084680884FF6FF71884204D0F848E6
:102C20008088B0F5134F7CD1D320FEF7BCFFFFF7AF
:102C3000E0FBF3498880FFF7DCFBF1498880FFF770
:102C4000D8FBEF498880084680884FF6FF7101EA7B
:102C50000020EB498880FFF7CCFBE94989880843CD
:102C6000E74988800846808849F24131884278D017
:102C7000BF20FEF798FFFFF7BCFBE1498880FFF714
:102C8000B8FBDF498880FFF7B4FBDD498880FFF798
:102C9000B0FBDB498880084680884FF6FF7101EA67
:102CA0000020D7498880FFF7A4FBD54989880843CD
:102CB000D34988800846808846F60401884250D06F
:102CC000D420FEF770FFFFF794FBCD498880FFF713
:102CD00090FBCB498880FFF78CFBC9498880084668
:102CE00080884FF6FF7101EA0020C5498880FFF710
:102CF00080FBC34989880843C14988800846808889
:102D000045F2103188422CD04FF45A40FEF74BFF69
:102D1000FFF76FFBBA4988804FF45B40FEF743FF33
:102D200000E01EE0FFF765FBB54988800846808813
:102D30004FF6FF7101EA0020B14988804FF45C40F2
:102D4000FEF731FFFFF755FBAD4989880843AC49D1
:102D5000888008468088B0F5004F02D145F21050B7
:102D60008880A748808849F2413188420BD0A44826
:102D7000808845F21031884205D0A148808845F20C
:102D8000105188421DD19F48006820F00F004FF07D
:102D90002041C1F81C010846D0F81C0120F47060E5
:102DA000C1F81C010846D0F81C0140F00300C1F82E
:102DB0001C010846D0F81C0140F40070C1F81C0149
:102DC00028E08F48808846F60401884205D08C4868
:102DD00080884CF2055188421CD18A48006820F056
:102DE0000F004FF02041C1F81C010846D0F81C012B
:102DF00020F47060C1F81C010846D0F81C0140F0B6
:102E00000A00C1F81C010846D0F81C0140F44060DB
:102E1000C1F81C017A4881887BA004F0E9FF78485A
:102E2000808849F2413188427ED1CF20FEF7BBFE37
:102E30000020FEF7AEFE2098401C2090C120FEF737
:102E4000A8FE3020FEF7A5FEED20FEF7ACFE6420C4
:102E5000FEF79FFE0320FEF79CFE1220FEF799FE70
:102E60008120FEF796FEE820FEF79DFE8520FEF706
:102E700090FE1020FEF78DFE7A20FEF78AFECB2012
:102E8000FEF791FE3920FEF784FE2C20FEF781FE2E
:102E90000020FEF77EFE3420FEF77BFE0220FEF7C8
:102EA00078FEF720FEF77FFE2020FEF772FEEA2074
:102EB000FEF779FE0020FEF76CFE0020FEF769FEAB
:102EC000C020FEF770FE1B20FEF763FEC120FEF758
:102ED0006AFE0120FEF75DFEC520FEF764FE30208D
:102EE000FEF757FE3020FEF754FEC720FEF75BFECC
:102EF000B720FEF74EFE3620FEF755FE4820FEF7BF
:102F000048FE3A20FEF74FFE5520FEF742FEB12064
:102F1000FEF749FE0020FEF73CFE1A20FEF739FEC0
:102F2000B620FEF740FE00E0A7E00A20FEF731FEE3
:102F3000A220FEF72EFEF220FEF735FE0020FEF75F
:102F400028FE2620FEF72FFE0120FEF722FEE020BD
:102F5000FEF729FE0F20FEF71CFE2A20FEF719FEC1
:102F60002820FEF716FE0820FEF713FE0E20FEF7BF
:102F700010FE0820FEF70DFE5420FEF70AFEA920E1
:102F8000FEF707FE4320FEF704FE0A20FEF701FECF
:102F90000F20FEF7FEFD0020FEF7FBFD0020FEF7F0
:102FA000F8FD0020FEF7F5FD0020FEF7F2FDE12020
:102FB000FEF7F9FD0020FEF7ECFD1520FEF7E9FD18
:102FC0001720FEF7E6FD0720FEF7E3FD1120FEF7D0
:102FD000E0FD0620FEF7DDFD2B20FEF7DAFD562092
:102FE000FEF7D7FD3C20FEF7D4FD0520FEF7D1FD0E
:102FF0001020FEF7CEFD0F20FEF7CBFD3F200BE0AB
:10300000840100201C0100A0204C43442049443A84
:1030100025780D0A00000000FEF7BBFD3F20FEF7FB
:10302000B8FD0F20FEF7B5FD2B20FEF7BCFD0020FC
:10303000FEF7AFFD0020FEF7ACFD0120FEF7A9FD75
:103040003F20FEF7A6FD2A20FEF7ADFD0020FEF78B
:10305000A0FD0020FEF79DFD0020FEF79AFDEF2069
:10306000FEF797FD1120FEF79EFD7820FEF77CFC11
:103070002920FEF798FD03F05CB8FE48808846F6EC
:10308000040188427ED11120FEF78DFD1420FEF749
:103090006BFCD020FEF787FD0720FEF77AFD42206B
:1030A000FEF777FD1D20FEF774FDD120FEF77BFDB6
:1030B0000020FEF76EFD1A20FEF76BFD0920FEF7DB
:1030C00068FDD220FEF76FFD0120FEF762FD222091
:1030D000FEF75FFDC020FEF766FD1020FEF759FDEC
:1030E0003B20FEF756FD0020FEF753FD0220FEF7C1
:1030F00050FD1120FEF74DFDC520FEF754FD0320C5
:10310000FEF747FDC820FEF74EFD0020FEF741FD0B
:103110002520FEF73EFD2120FEF73BFD0520FEF7B2
:1031200038FD0020FEF735FD0A20FEF732FD652050
:10313000FEF72FFD2520FEF72CFD7720FEF729FD59
:103140005020FEF726FD0F20FEF723FD0020FEF79E
:1031500020FDF820FEF727FD0120FEF71AFDFE20D6
:10316000FEF721FD0020FEF714FD0220FEF711FD01
:103170002020FEF718FD3620FEF715FD0820FEF78B
:1031800008FD00E02AE03A20FEF70DFD5520FEF78D
:1031900000FD2B20FEF707FD0020FEF7FAFC0020C3
:1031A000FEF7F7FC0120FEF7F4FC3F20FEF7F1FCF0
:1031B0002A20FEF7F8FC0020FEF7EBFC0020FEF7CB
:1031C000E8FC0120FEF7E5FCDF20FEF7E2FC7820BA
:1031D000FEF7CAFB2920FEF7E6FC4CE7A5488088ED
:1031E00045F21031884240F07C87ED20FEF7DBFC91
:1031F0000120FEF7CEFCFE20FEF7CBFCEE20FEF712
:10320000D2FCDE20FEF7C5FC2120FEF7C2FCF12037
:10321000FEF7C9FC0120FEF7BCFCDF20FEF7C3FC73
:103220001020FEF7B6FCC420FEF7BDFC8F20FEF791
:10323000B0FCC620FEF7B7FC0020FEF7AAFCE22097
:10324000FEF7A7FCE220FEF7A4FCE220FEF7A1FCBB
:10325000BF20FEF7A8FCAA20FEF79BFCB020FEF7DB
:10326000A2FC0D20FEF795FC0020FEF792FC0D203D
:10327000FEF78FFC0020FEF78CFC1120FEF789FC86
:103280000020FEF786FC1920FEF783FC0020FEF7E5
:1032900080FC2120FEF77DFC0020FEF77AFC2D202B
:1032A000FEF777FC0020FEF774FC3D20FEF771FC72
:1032B0000020FEF76EFC5D20FEF76BFC0020FEF7A1
:1032C00068FC5D20FEF765FC0020FEF762FCB12083
:1032D000FEF769FC8020FEF75CFC0020FEF759FC3D
:1032E0008B20FEF756FC0020FEF753FC9620FEF7DD
:1032F00050FC0020FEF74DFCB220FEF754FC0020ED
:10330000FEF747FC0020FEF744FC0220FEF741FCDC
:103310000020FEF73EFC0320FEF73BFC0020FEF7FA
:1033200038FCB320FEF73FFC0020FEF732FC002003
:10333000FEF72FFC0020FEF72CFC0020FEF729FCF6
:103340000020FEF726FC0020FEF723FC0020FEF7FD
:1033500020FC0020FEF71DFC0020FEF71AFC0020D8
:10336000FEF717FC0020FEF714FC0020FEF711FC0E
:103370000020FEF70EFC0020FEF70BFC0020FEF7FD
:1033800008FC0020FEF705FC0020FEF702FC0020F0
:10339000FEF7FFFB0020FEF7FCFB0020FEF7F9FB29
:1033A0000020FEF7F6FB0020FEF7F3FB0020FEF7FF
:1033B000F0FB0020FEF7EDFBB420FEF7F4FB8B20C2
:1033C000FEF7E7FB0020FEF7E4FB9620FEF7E1FBAB
:1033D0000020FEF7DEFBA120FEF7DBFB0020FEF75E
:1033E000D8FBB520FEF7DFFB0220FEF7D2FB002062
:1033F000FEF7CFFB0320FEF7CCFB0020FEF7C9FB56
:103400000420FEF7C6FB0020FEF7C3FBB620FEF744
:10341000CAFB0020FEF7BDFB0020FEF7BAFBB72079
:10342000FEF7C1FB0020FEF7B4FB0020FEF7B1FB66
:103430003F20FEF7AEFB0020FEF7ABFB5E20FEF761
:10344000A8FB0020FEF7A5FB6420FEF7A2FB0020EE
:10345000FEF79FFB8C20FEF79CFB0020FEF799FBFC
:10346000AC20FEF796FB0020FEF793FBDC20FEF776
:1034700090FB01E0840100200020FEF78AFB702011
:10348000FEF787FB0020FEF784FB9020FEF781FB10
:103490000020FEF77EFBEB20FEF77BFB0020FEF713
:1034A00078FBDC20FEF775FB0020FEF772FBB820EE
:1034B000FEF779FB0020FEF76CFB0020FEF769FBAE
:1034C0000020FEF766FB0020FEF763FB0020FEF7FE
:1034D00060FB0020FEF75DFB0020FEF75AFB00209A
:1034E000FEF757FBBA20FEF75EFB2420FEF751FBE8
:1034F0000020FEF74EFB0020FEF74BFB0020FEF7FE
:1035000048FBC120FEF74FFB2020FEF742FB0020C6
:10351000FEF73FFB5420FEF73CFB0020FEF739FB93
:10352000FF20FEF736FB0020FEF733FBC220FEF73C
:103530003AFB0A20FEF72DFB0020FEF72AFB0420B1
:10354000FEF727FB0020FEF724FBC320FEF72BFB32
:103550003C20FEF71EFB0020FEF71BFB3A20FEF787
:1035600018FB0020FEF715FB3920FEF712FB0020A8
:10357000FEF70FFB3720FEF70CFB0020FEF709FBE0
:103580003C20FEF706FB0020FEF703FB3620FEF78B
:1035900000FB0020FEF7FDFA3220FEF7FAFA0020C9
:1035A000FEF7F7FA2F20FEF7F4FA0020FEF7F1FA03
:1035B0002C20FEF7EEFA0020FEF7EBFA2920FEF7AA
:1035C000E8FA0020FEF7E5FA2620FEF7E2FA0020EE
:1035D000FEF7DFFA2420FEF7DCFA0020FEF7D9FA26
:1035E0002420FEF7D6FA0020FEF7D3FA2320FEF7B8
:1035F000D0FA0020FEF7CDFA3C20FEF7CAFA0020F0
:10360000FEF7C7FA3620FEF7C4FA0020FEF7C1FA2B
:103610003220FEF7BEFA0020FEF7BBFA2F20FEF79D
:10362000B8FA0020FEF7B5FA2C20FEF7B2FA002017
:10363000FEF7AFFA2920FEF7ACFA0020FEF7A9FA50
:103640002620FEF7A6FA0020FEF7A3FA2420FEF7B4
:10365000A0FA0020FEF79DFA2420FEF79AFA002037
:10366000FEF797FA2320FEF794FA0020FEF791FA6E
:10367000C420FEF798FA6220FEF78BFA0020FEF7CE
:1036800088FA0520FEF785FA0020FEF782FA8420EA
:10369000FEF77FFA0020FEF77CFAF020FEF779FAB9
:1036A0000020FEF776FA1820FEF773FA0020FEF7E6
:1036B00070FAA420FEF76DFA0020FEF76AFA1820CF
:1036C000FEF767FA0020FEF764FA5020FEF761FA71
:1036D0000020FEF75EFA0C20FEF75BFA0020FEF7F2
:1036E00058FA1720FEF755FA0020FEF752FA9520F7
:1036F000FEF74FFA0020FEF74CFAF320FEF749FAE6
:103700000020FEF746FAE620FEF743FA0020FEF717
:1037100040FAC520FEF747FA3220FEF73AFA0020B9
:10372000FEF737FA4420FEF734FA0020FEF731FAAC
:103730006520FEF72EFA0020FEF72BFA7620FEF722
:1037400028FA0020FEF725FA8820FEF722FA00204A
:10375000FEF71FFAC620FEF726FA2020FEF719FA18
:103760000020FEF716FA1720FEF713FA0020FEF7E6
:1037700010FA0120FEF70DFA0020FEF70AFAC72022
:10378000FEF711FA0020FEF704FA0020FEF701FA16
:103790000020FEF7FEF90020FEF7FBF9C820FEF737
:1037A00002FA0020FEF7F5F90020FEF7F2F90020FA
:1037B000FEF7EFF90020FEF7ECF9C920FEF7F3F968
:1037C0000020FEF7E6F90020FEF7E3F90020FEF7FF
:1037D000E0F90020FEF7DDF90020FEF7DAF900201D
:1037E000FEF7D7F90020FEF7D4F90020FEF7D1F953
:1037F0000020FEF7CEF90020FEF7CBF90020FEF7FF
:10380000C8F90020FEF7C5F90020FEF7C2F9002034
:10381000FEF7BFF90020FEF7BCF90020FEF7B9F96A
:10382000E020FEF7C0F91620FEF7B3F90020FEF7FE
:10383000B0F91C20FEF7ADF90020FEF7AAF921200F
:10384000FEF7A7F90020FEF7A4F93620FEF7A1F94C
:103850000020FEF79EF94620FEF79BF90020FEF7B8
:1038600098F95220FEF795F90020FEF792F96420AE
:10387000FEF78FF90020FEF78CF97A20FEF789F920
:103880000020FEF786F98B20FEF783F90020FEF773
:1038900080F99920FEF77DF90020FEF77AF9A8203B
:1038A000FEF777F90020FEF774F9B920FEF771F9F9
:1038B0000020FEF76EF9C420FEF76BF90020FEF73A
:1038C00068F9CA20FEF765F90020FEF762F9D220F8
:1038D000FEF75FF90020FEF75CF9D920FEF759F9F1
:1038E0000020FEF756F9E020FEF753F90020FEF71E
:1038F00050F9F320FEF74DF90020FEF74AF9E120D8
:10390000FEF751F91620FEF744F90020FEF741F9C1
:103910001C20FEF73EF90020FEF73BF92220FEF7BF
:1039200038F90020FEF735F93620FEF732F900208D
:10393000FEF72FF94520FEF72CF90020FEF729F9B4
:103940005220FEF726F90020FEF723F96420FEF747
:1039500020F90020FEF71DF97A20FEF71AF9002061
:10396000FEF717F98B20FEF714F90020FEF711F986
:103970009920FEF70EF90020FEF70BF9A820FEF7BC
:1039800008F90020FEF705F9B920FEF702F900203A
:10399000FEF7FFF8C420FEF7FCF80020FEF7F9F868
:1039A000CA20FEF7F6F80020FEF7F3F8D220FEF763
:1039B000F0F80020FEF7EDF8D820FEF7EAF8002036
:1039C000FEF7E7F8E020FEF7E4F80020FEF7E1F864
:1039D000F320FEF7DEF80020FEF7DBF8E220FEF72A
:1039E000E2F80520FEF7D5F80020FEF7D2F80B200C
:1039F000FEF7CFF80020FEF7CCF81B20FEF7C9F841
:103A00000020FEF7C6F83420FEF7C3F80020FEF7CA
:103A1000C0F84420FEF7BDF80020FEF7BAF84F20AA
:103A2000FEF7B7F80020FEF7B4F86120FEF7B1F812
:103A30000020FEF7AEF87920FEF7ABF80020FEF785
:103A4000A8F88820FEF7A5F80020FEF7A2F8972036
:103A5000FEF79FF80020FEF79CF8A620FEF799F8E5
:103A60000020FEF796F8B720FEF793F80020FEF747
:103A700090F8C220FEF78DF80020FEF78AF8C720E4
:103A8000FEF787F80020FEF784F8D120FEF781F8D2
:103A90000020FEF77EF8D620FEF77BF80020FEF728
:103AA00078F8DD20FEF775F80020FEF772F8F320B5
:103AB000FEF76FF80020FEF76CF8E320FEF773F8CE
:103AC0000520FEF766F80020FEF763F80A20FEF7EF
:103AD00060F80020FEF75DF81C20FEF75AF8002081
:103AE000FEF757F83320FEF754F80020FEF751F8A0
:103AF0004420FEF74EF80020FEF74BF85020FEF76A
:103B000048F80020FEF745F86220FEF742F8002052
:103B1000FEF73FF87820FEF73CF80020FEF739F872
:103B20008820FEF736F80020FEF733F89720FEF7DE
:103B300030F80020FEF72DF8A620FEF72AF8002026
:103B4000FEF727F8B720FEF724F80020FEF721F84B
:103B5000C220FEF71EF80020FEF71BF8C720FEF774
:103B600018F80020FEF715F8D120FEF712F8002013
:103B7000FEF70FF8D520FEF70CF80020FEF709F845
:103B8000DD20FEF706F80020FEF703F8F320FEF72D
:103B900000F80020FDF7FDFFE420FEF704F8012007
:103BA000FDF7F7FF0020FDF7F4FF0120FDF7F1FF1F
:103BB0000020FDF7EEFF0220FDF7EBFF0020FDF7F0
:103BC000E8FF2A20FDF7E5FF0020FDF7E2FF3C209B
:103BD000FDF7DFFF0020FDF7DCFF4B20FDF7D9FFED
:103BE0000020FDF7D6FF5D20FDF7D3FF0020FDF795
:103BF000D0FF7420FDF7CDFF0020FDF7CAFF842021
:103C0000FDF7C7FF0020FDF7C4FF9320FDF7C1FFBC
:103C10000020FDF7BEFFA220FDF7BBFF0020FDF74F
:103C2000B8FFB320FDF7B5FF0020FDF7B2FFBE20BF
:103C3000FDF7AFFF0020FDF7ACFFC420FDF7A9FFA3
:103C40000020FDF7A6FFCD20FDF7A3FF0020FDF724
:103C5000A0FFD320FDF79DFF0020FDF79AFFDD2098
:103C6000FDF797FF0020FDF794FFF320FDF791FF8C
:103C70000020FDF78EFFE520FDF795FF0020FDF702
:103C800088FF0020FDF785FF0020FDF782FF002060
:103C9000FDF77FFF0220FDF77CFF0020FDF779FF95
:103CA0002920FDF776FF0020FDF773FF3C20FDF78C
:103CB00070FF0020FDF76DFF4B20FDF76AFF00202D
:103CC000FDF767FF5D20FDF764FF0020FDF761FF52
:103CD0007420FDF75EFF0020FDF75BFF8420FDF7F9
:103CE00058FF0020FDF755FF9320FDF752FF0020FD
:103CF000FDF74FFFA220FDF74CFF0020FDF749FF25
:103D0000B320FDF746FF0020FDF743FFBE20FDF77F
:103D100040FF0020FDF73DFFC420FDF73AFF0020E3
:103D2000FDF737FFCD20FDF734FF0020FDF731FF11
:103D3000D320FDF72EFF0020FDF72BFFDC20FDF741
:103D400028FF0020FDF725FFF320FDF722FF0020CC
:103D5000FDF71FFFE620FDF726FF1120FDF719FFF5
:103D60000020FDF716FF3420FDF713FF0020FDF7BC
:103D700010FF5620FDF70DFF0020FDF70AFF76200B
:103D8000FDF707FF0020FDF704FF7720FDF701FF97
:103D90000020FDF7FEFE6620FDF7FBFE0020FDF78C
:103DA000F8FE8820FDF7F5FE0020FDF7F2FE9920D1
:103DB000FDF7EFFE0020FDF7ECFEBB20FDF7E9FE6E
:103DC0000020FDF7E6FE9920FDF7E3FE0020FDF759
:103DD000E0FE6620FDF7DDFE0020FDF7DAFE55204F
:103DE000FDF7D7FE0020FDF7D4FE5520FDF7D1FEEC
:103DF0000020FDF7CEFE4520FDF7CBFE0020FDF7AD
:103E0000C8FE4320FDF7C5FE0020FDF7C2FE44209A
:103E1000FDF7BFFE0020FDF7BCFEE720FDF7C3FE67
:103E20003220FDF7B6FE0020FDF7B3FE5520FDF76A
:103E3000B0FE0020FDF7ADFE7620FDF7AAFE0020C3
:103E4000FDF7A7FE6620FDF7A4FE0020FDF7A1FE0A
:103E50006720FDF79EFE0020FDF79BFE6720FDF723
:103E600098FE0020FDF795FE8720FDF792FE0020CA
:103E7000FDF78FFE9920FDF78CFE0020FDF789FEEF
:103E8000BB20FDF786FE0020FDF783FE9920FDF79D
:103E900080FE0020FDF77DFE7720FDF77AFE0020F2
:103EA000FDF777FE4420FDF774FE0020FDF771FE5C
:103EB0005620FDF76EFE0020FDF76BFE2320FDF778
:103EC00068FE0020FDF765FE3320FDF762FE00204E
:103ED000FDF75FFE4520FDF75CFE0020FDF759FE73
:103EE000E820FDF760FE0020FDF753FE0020FDF7FF
:103EF00050FE9920FDF74DFE0020FDF74AFE872079
:103F0000FDF747FE0020FDF744FE8820FDF741FE47
:103F10000020FDF73EFE7720FDF73BFE0020FDF779
:103F200038FE6620FDF735FE0020FDF732FE8820C2
:103F3000FDF72FFE0020FDF72CFEAA20FDF729FE3D
:103F40000020FDF726FEBB20FDF723FE0020FDF735
:103F500020FE9920FDF71DFE0020FDF71AFE6620C9
:103F6000FDF717FE0020FDF714FE5520FDF711FEAA
:103F70000020FDF70EFE5520FDF70BFE0020FDF79B
:103F800008FE4420FDF705FE0020FDF702FE442058
:103F9000FDF7FFFD0020FDF7FCFD5520FDF7F9FDC5
:103FA0000020FDF7F6FDE920FDF7FDFDAA20FDF755
:103FB000F0FD0020FDF7EDFD0020FDF7EAFD0020FB
:103FC000FDF7E7FD0020FDF7EEFDAA20FDF7E1FD7E
:103FD000CF20FDF7E8FD0020FDF7DBFD0020FDF719
:103FE000D8FD0020FDF7D5FD0020FDF7D2FD002013
:103FF000FDF7CFFD0020FDF7CCFD0020FDF7C9FD4A
:104000000020FDF7C6FD0020FDF7C3FD0020FDF7F1
:10401000C0FD0020FDF7BDFD0020FDF7BAFD00202A
:10402000FDF7B7FD0020FDF7B4FD0020FDF7B1FD61
:104030000020FDF7AEFD0020FDF7ABFDF020FDF701
:10404000B2FD0020FDF7A5FD5020FDF7A2FD0020E8
:10405000FDF79FFD0020FDF79CFD0020FDF799FD79
:10406000F320FDF7A0FD0020FDF793FDF920FDF7FB
:104070009AFD0620FDF78DFD1020FDF78AFD292011
:10408000FDF787FD0020FDF784FD3A20FDF78BFD4D
:104090005520FDF77EFD1120FDF785FD6420FDF71D
:1040A00063FC2920FDF77FFD3520FDF77CFD002016
:1040B000FDF76FFD5120FDF776FDFF20FDF769FD4F
:1040C0005320FDF770FD2C20FDF763FD5520FDF713
:1040D0006AFD8220FDF75DFD2C20FDF764FD02F0F6
:1040E00028B8FE48808845F2105188427ED155217B
:1040F0004FF47040FDF741FDAA214FF20100FDF79A
:104100003CFD52214FF20200FDF737FD08214FF22E
:104110000300FDF732FD01214FF20400FDF72DFDF4
:104120000D214FF43040FDF728FD0D214BF2010029
:10413000FDF723FD0D214BF20200FDF71EFD34219A
:104140004FF43640FDF719FD34214BF20160FDF7C5
:1041500014FD34214BF20260FDF70FFD0D214FF4E9
:104160003140FDF70AFD0D214BF20110FDF705FD71
:104170000D214BF20210FDF700FD34214FF43740C2
:10418000FDF7FBFC34214BF20170FDF7F6FC342106
:104190004BF20270FDF7F1FC00214FF43240FDF7C5
:1041A000ECFC00214BF20120FDF7E7FC00214BF273
:1041B0000220FDF7E2FC24214FF43840FDF7DDFC3E
:1041C00024214BF60100FDF7D8FC24214BF6020018
:1041D000FDF7D3FC01214FF43F40FDF7CEFC0F214A
:1041E0004FF43340FDF7C9FC0F2100E0FEE34BF232
:1041F0000130FDF7C2FC0F214BF20230FDF7BDFC90
:1042000034214FF43940FDF7B8FC34214BF601104E
:10421000FDF7B3FC34214BF60210FDF7AEFC08218C
:104220004FF43540FDF7A9FC08214BF20150FDF792
:10423000A4FC08214BF20250FDF79FFC03214FF430
:104240004240FDF79AFC24214FF43A40FDF795FCDB
:1042500024214BF60120FDF790FC24214BF602208F
:10426000FDF78BFC00214FF43C40FDF786FC7821E4
:104270004BF60140FDF781FC00214BF60240FDF7B3
:104280007CFC00214FF43D40FDF777FC78214BF694
:104290000150FDF772FC00214BF60250FDF76DFC5A
:1042A00000214FF43E40FDF768FC64214BF60160AD
:1042B000FDF763FC00214FF45140FDF75EFC332114
:1042C0004DF20110FDF759FC00214DF20210FDF7EF
:1042D00054FC34214DF20310FDF74FFC00214DF248
:1042E0000410FDF74AFC3A214DF20510FDF745FC9C
:1042F00000214DF20610FDF740FC4A214DF2071057
:10430000FDF73BFC00214DF20810FDF736FC5C2167
:104310004DF20910FDF731FC00214DF20A10FDF7B6
:104320002CFC81214DF20B10FDF727FC00214DF2F2
:104330000C10FDF722FCA6214DF20D10FDF71DFC1F
:1043400000214DF20E10FDF718FCE5214DF20F1083
:10435000FDF713FC01214DF21010FDF70EFC1321A7
:104360004DF21110FDF709FC01214DF21210FDF77D
:1043700004FC54214DF21310FDF7FFFB01214DF217
:104380001410FDF7FAFB82214DF21510FDF7F5FB35
:1043900001214DF21610FDF7F0FBCA214DF2171066
:1043A000FDF7EBFB02214DF21810FDF7E6FB0021B3
:1043B0004DF21910FDF7E1FB02214DF21A10FDF745
:1043C000DCFB01214DF21B10FDF7D7FB02214DF262
:1043D0001C10FDF7D2FB34214DF21D10FDF7CDFB73
:1043E00002214DF21E10FDF7C8FB67214DF21F1090
:1043F000FDF7C3FB02214DF22010FDF7BEFB842127
:104400004DF22110FDF7B9FB02214DF22210FDF70C
:10441000B4FBA4214DF22310FDF7AFFB02214DF2B6
:104420002410FDF7AAFBB7214DF22510FDF7A5FBDF
:1044300002214DF22610FDF7A0FBCF214DF22710EF
:10444000FDF79BFB02214DF22810FDF796FBDE21C4
:104450004DF22910FDF791FB02214DF22A10FDF7D4
:104460008CFBF2214DF22B10FDF787FB02214DF260
:104470002C10FDF782FBFE214DF22D10FDF77DFB88
:1044800003214DF22E10FDF778FB10214DF22F1075
:10449000FDF773FB03214DF23010FDF76EFB332166
:1044A0004DF23110FDF769FB03214DF23210FDF79B
:1044B00064FB6D214DF23310FDF75FFB00214FF4DB
:1044C0005240FDF75AFB33214DF20120FDF755FB19
:1044D00000214DF20220FDF750FB01E08401002095
:1044E00034214DF20320FDF748FB00214DF204205A
:1044F000FDF743FB3A214DF20520FDF73EFB00217D
:104500004DF20620FDF739FB4A214DF20720FDF759
:1045100034FB00214DF20820FDF72FFB5C214DF20A
:104520000920FDF72AFB00214DF20A20FDF725FBAB
:1045300081214DF20B20FDF720FB00214DF20C20D4
:10454000FDF71BFBA6214DF20D20FDF716FB002108
:104550004DF20E20FDF711FBE5214DF20F20FDF786
:104560000CFB01214DF21020FDF707FB13214DF24A
:104570001120FDF702FB01214DF21220FDF7FDFA9B
:1045800054214DF21320FDF7F8FA01214DF21420C9
:10459000FDF7F3FA82214DF21520FDF7EEFA012125
:1045A0004DF21620FDF7E9FACA214DF21720FDF76A
:1045B000E4FA02214DF21820FDF7DFFA00214DF256
:1045C0001920FDF7DAFA02214DF21A20FDF7D5FA8B
:1045D00001214DF21B20FDF7D0FA02214DF21C20E3
:1045E000FDF7CBFA34214DF21D20FDF7C6FA02216A
:1045F0004DF21E20FDF7C1FA67214DF21F20FDF795
:10460000BCFA02214DF22020FDF7B7FA84214DF2C9
:104610002120FDF7B2FA02214DF22220FDF7ADFA7A
:10462000A4214DF22320FDF7A8FA02214DF2242007
:10463000FDF7A3FAB7214DF22520FDF79EFA0221DE
:104640004DF22620FDF799FACF214DF22720FDF7F4
:1046500094FA02214DF22820FDF78FFADE214DF267
:104660002920FDF78AFA02214DF22A20FDF785FA6A
:10467000F2214DF22B20FDF780FA02214DF22C2081
:10468000FDF77BFAFE214DF22D20FDF776FA03218E
:104690004DF22E20FDF771FA10214DF22F20FDF77B
:1046A0006CFA03214DF23020FDF767FA33214DF209
:1046B0003120FDF762FA03214DF23220FDF75DFA59
:1046C0006D214DF23320FDF758FA00214FF453408D
:1046D000FDF753FA33214DF20130FDF74EFA002178
:1046E0004DF20230FDF749FA34214DF20330FDF767
:1046F00044FA00214DF20430FDF73FFA3A214DF221
:104700000530FDF73AFA00214DF20630FDF735FA93
:104710004A214DF20730FDF730FA00214DF2083002
:10472000FDF72BFA5C214DF20930FDF726FA002146
:104730004DF20A30FDF721FA81214DF20B30FDF7E1
:104740001CFA00214DF20C30FDF717FAA6214DF2AC
:104750000D30FDF712FA00214DF20E30FDF70DFA83
:10476000E5214DF20F30FDF708FA01214DF210302E
:10477000FDF703FA13214DF21130FDF7FEF9012187
:104780004DF21230FDF7F9F954214DF21330FDF7D7
:10479000F4F901214DF21430FDF7EFF982214DF2C9
:1047A0001530FDF7EAF901214DF21630FDF7E5F974
:1047B000CA214DF21730FDF7E0F902214DF2183011
:1047C000FDF7DBF900214DF21930FDF7D6F9022192
:1047D0004DF21A30FDF7D1F901214DF21B30FDF7F2
:1047E000CCF902214DF21C30FDF7C7F934214DF20E
:1047F0001D30FDF7C2F902214DF21E30FDF7BDF963
:1048000067214DF21F30FDF7B8F902214DF220303B
:10481000FDF7B3F984214DF22130FDF7AEF9022105
:104820004DF22230FDF7A9F9A4214DF22330FDF716
:10483000A4F902214DF22430FDF79FF9B7214DF282
:104840002530FDF79AF902214DF22630FDF795F952
:10485000CF214DF22730FDF790F902214DF228309B
:10486000FDF78BF9DE214DF22930FDF786F90221A3
:104870004DF22A30FDF781F9F2214DF22B30FDF790
:104880007CF902214DF22C30FDF777F9FE214DF233
:104890002D30FDF772F903214DF22E30FDF76DF941
:1048A00010214DF22F30FDF768F903214DF2303021
:1048B000FDF763F933214DF23130FDF75EF9032145
:1048C0004DF23230FDF759F96D214DF23330FDF7DD
:1048D00054F900214FF45440FDF74FF933214DF2C4
:1048E0000140FDF74AF900214DF20240FDF745F97C
:1048F00034214DF20340FDF740F900214DF2044010
:10490000FDF73BF93A214DF20540FDF736F900215C
:104910004DF20640FDF731F94A214DF20740FDF70F
:104920002CF900214DF20840FDF727F95C214DF2EA
:104930000940FDF722F900214DF20A40FDF71DF96B
:1049400081214DF20B40FDF718F900214DF20C408A
:10495000FDF713F9A6214DF20D40FDF70EF90021E8
:104960004DF20E40FDF709F9E5214DF20F40FDF73C
:1049700004F901214DF21040FDF7FFF813214DF22B
:104980001140FDF7FAF801214DF21240FDF7F5F85C
:1049900054214DF21340FDF7F0F801214DF214407F
:1049A000FDF7EBF882214DF21540FDF7E6F8012105
:1049B0004DF21640FDF7E1F8CA214DF21740FDF720
:1049C000DCF802214DF21840FDF7D7F800214DF236
:1049D0001940FDF7D2F802214DF21A40FDF7CDF84B
:1049E00001214DF21B40FDF7C8F800E004E302216D
:1049F0004DF21C40FDF7C1F834214DF21D40FDF78A
:104A0000BCF802214DF21E40FDF7B7F867214DF2C8
:104A10001F40FDF7B2F802214DF22040FDF7ADF83E
:104A200084214DF22140FDF7A8F802214DF22240E9
:104A3000FDF7A3F8A4214DF22340FDF79EF80221D3
:104A40004DF22440FDF799F8B7214DF22540FDF7CE
:104A500094F802214DF22640FDF78FF8CF214DF258
:104A60002740FDF78AF802214DF22840FDF785F82E
:104A7000DE214DF22940FDF780F802214DF22A4057
:104A8000FDF77BF8F2214DF22B40FDF776F802217D
:104A90004DF22C40FDF771F8FE214DF22D40FDF74F
:104AA0006CF803214DF22E40FDF767F810214DF20E
:104AB0002F40FDF762F803214DF23040FDF75DF81D
:104AC00033214DF23140FDF758F803214DF23240C9
:104AD000FDF753F86D214DF23340FDF74EF80021FC
:104AE0004FF45540FDF749F833214DF20150FDF7E1
:104AF00044F800214DF20250FDF73FF834214DF209
:104B00000350FDF73AF800214DF20450FDF735F857
:104B10003A214DF20550FDF730F800214DF20650D4
:104B2000FDF72BF84A214DF20750FDF726F800213A
:104B30004DF20850FDF721F85C214DF20950FDF7C8
:104B40001CF800214DF20A50FDF717F881214DF2B3
:104B50000B50FDF712F800214DF20C50FDF70DF847
:104B6000A6214DF20D50FDF708F800214DF20E5030
:104B7000FDF703F8E5214DF20F50FCF7FEFF012190
:104B80004DF21050FCF7F9FF13214DF21150FCF7D4
:104B9000F4FF01214DF21250FCF7EFFF54214DF2CA
:104BA0001350FCF7EAFF01214DF21450FCF7E5FF2A
:104BB00082214DF21550FCF7E0FF01214DF2165015
:104BC000FCF7DBFFCA214DF21750FCF7D6FF02219C
:104BD0004DF21850FCF7D1FF00214DF21950FCF7AF
:104BE000CCFF02214DF21A50FCF7C7FF01214DF214
:104BF0001B50FCF7C2FF02214DF21C50FCF7BDFF19
:104C000034214DF21D50FCF7B8FF02214DF21E5029
:104C1000FCF7B3FF67214DF21F50FCF7AEFF0221F6
:104C20004DF22050FCF7A9FF84214DF22150FCF7F2
:104C3000A4FF02214DF22250FCF79FFFA4214DF268
:104C40002350FCF79AFF02214DF22450FCF795FF08
:104C5000B7214DF22550FCF790FF02214DF226506E
:104C6000FCF78BFFCF214DF22750FCF786FF022186
:104C70004DF22850FCF781FFDE214DF22950FCF760
:104C80007CFF02214DF22A50FCF777FFF2214DF212
:104C90002B50FCF772FF02214DF22C50FCF76DFFF8
:104CA000FE214DF22D50FCF768FF03214DF22E50EE
:104CB000FCF763FF10214DF22F50FCF75EFF03213C
:104CC0004DF23050FCF759FF33214DF23150FCF7D3
:104CD00054FF03214DF23250FCF74FFF6D214DF28E
:104CE0003350FCF74AFF00214FF45640FCF745FFD4
:104CF00033214DF20160FCF740FF00214DF20260CC
:104D0000FCF73BFF34214DF20360FCF736FF002136
:104D10004DF20460FCF731FF3A214DF20560FCF7DB
:104D20002CFF00214DF20660FCF727FF4A214DF2CF
:104D30000760FCF722FF00214DF20860FCF71DFF21
:104D40005C214DF20960FCF718FF00214DF20A606A
:104D5000FCF713FF81214DF20B60FCF70EFF0021E1
:104D60004DF20C60FCF709FFA6214DF20D60FCF737
:104D700004FF00214DF20E60FCF7FFFEE5214DF22D
:104D80000F60FCF7FAFE01214DF21060FCF7F5FE12
:104D900013214DF21160FCF7F0FE01214DF212607B
:104DA000FCF7EBFE54214DF21360FCF7E6FE012107
:104DB0004DF21460FCF7E1FE82214DF21560FCF724
:104DC000DCFE01214DF21660FCF7D7FECA214DF240
:104DD0001760FCF7D2FE02214DF21860FCF7CDFE01
:104DE00000214DF21960FCF7C8FE02214DF21A6055
:104DF000FCF7C3FE01214DF21B60FCF7BEFE022151
:104E00004DF21C60FCF7B9FE34214DF21D60FCF739
:104E1000B4FE02214DF21E60FCF7AFFE67214DF299
:104E20001F60FCF7AAFE02214DF22060FCF7A5FEF0
:104E300084214DF22160FCF7A0FE02214DF2226098
:104E4000FCF79BFEA4214DF22360FCF796FE0221A5
:104E50004DF22460FCF791FEB7214DF22560FCF77E
:104E60008CFE02214DF22660FCF787FECF214DF229
:104E70002760FCF782FE02214DF22860FCF77DFEE0
:104E8000DE214DF22960FCF778FE02214DF22A6006
:104E9000FCF773FEF2214DF22B60FCF76EFE02214F
:104EA0004DF22C60FCF769FEFE214DF22D60FCF7FF
:104EB00064FE03214DF22E60FCF75FFE10214DF2DF
:104EC0002F60FCF75AFE03214DF23060FCF755FECF
:104ED00033214DF23160FCF750FE03214DF2326078
:104EE000FCF74BFE6D214DF23360FCF746FE552179
:104EF0004FF47040FCF741FEAA214FF20100FCF78D
:104F00003CFE52214FF20200FCF737FE08214FF21F
:104F10000300FCF732FE00214FF20400FCF72DFEE7
:104F2000CC214FF43140FCF728FE00214BF2011058
:104F3000FCF723FE05214FF43640FCF71EFE7021DE
:104F40004FF43740FCF719FE70214BF20170FCF76B
:104F500014FE01214FF43840FCF70FFE03214BF6FD
:104F60000100FCF70AFE03214BF60200FCF705FEE8
:104F700003214BF60300FCF700FE02214FF43C40F6
:104F8000FCF7FBFD00214BF60140FCF7F6FD00218C
:104F90004BF60240FCF7F1FDD0214FF44940FCF7FD
:104FA000ECFD02214CF60110FCF7E7FD50214CF618
:104FB0000210FCF7E2FD50214CF60310FCF7DDFD7A
:104FC00050214CF60410FCF7D8FD00214FF454504A
:104FD000FCF7D3FD55214FF46850FCF7CEFD4FF49C
:104FE0008850FCF7E0FD7820FCF776FC4FF4245065
:104FF000FCF7D9FD01F09DB8FE48808849F22531C3
:1050000088427DD147F6F001E520FCF7B6FD4FF46C
:1050100080710120FCF7B1FD4FF4E0610220FCF744
:10502000ACFD41F230010320FCF7A7FD0021042074
:10503000FCF7A3FD40F202210820FCF79EFD0021B1
:105040000920FCF79AFD00210A20FCF796FD0021BB
:105050000C20FCF792FD00210D20FCF78EFD0021B5
:105060000F20FCF78AFD00211020FCF786FD0721A8
:105070001120FCF782FD00211220FCF77EFD0021AB
:105080001320FCF77AFD00210720FCF776FD41F2A2
:1050900090611020FCF771FD40F227211120FCF7F0
:1050A0006CFD9D211220FCF768FD4FF4C8511320C0
:1050B000FCF763FD25212920FCF75FFD0D212B2046
:1050C000FCF75BFD07213020FCF757FD40F2033170
:1050D0003120FCF752FD03213220FCF74EFD40F257
:1050E00006213520FCF749FD08213620FCF745FD57
:1050F00040F206413720FCF740FD4FF4417100E0DB
:1051000058E03820FCF739FD07213920FCF735FD40
:1051100040F202613C20FCF730FD08213D20FCF705
:105120002CFD00215020FCF728FDEF215120FCF739
:1051300024FD00215220FCF720FD40F23F115320B6
:10514000FCF71BFD4FF427416020FCF716FD012101
:105150006120FCF712FD00216A20FCF70EFD002102
:105160008020FCF70AFD00218120FCF706FD0021CC
:105170008220FCF702FD00218320FCF7FEFC0021C9
:105180008420FCF7FAFC00218520FCF7F6FC1021B6
:105190009020FCF7F2FC4FF4C0619220FCF7EDFC8C
:1051A00040F233110720FCF7E8FC22210020FCF735
:1051B000E4FC1FE78F48808849F2283188427DD17E
:1051C00041F28F01EC20FCF7D8FC41F23421EF20B2
:1051D000FCF7D3FC4FF480710120FCF7CEFC4FF4B8
:1051E000E0610220FCF7C9FC41F230010320FCF72A
:1051F000C4FC00210420FCF7C0FC40F2022108207E
:10520000FCF7BBFC00210920FCF7B7FC00210A20B9
:10521000FCF7B3FC01210C20FCF7AFFC00210D20B2
:10522000FCF7ABFC00210F20FCF7A7FC00211020AD
:10523000FCF7A3FC07211120FCF79FFC00211220A2
:10524000FCF79BFC00211320FCF797FC01210720B1
:10525000FCF793FC3220FCF787FB41F290411020D1
:10526000FCF78BFC40F227211120FCF786FC322052
:10527000FCF77AFB8A211220FCF77FFC3220FCF736
:1052800073FB4FF4D0511320FCF777FC0621292043
:10529000FCF773FC0D212B20FCF76FFC3220FCF790
:1052A00063FB00212020FCF768FC00212120FCF793
:1052B00064FC3220FCF758FB002100E075E0302050
:1052C000FCF75BFC40F204613120FCF756FC40F235
:1052D00005313220FCF751FC00213520FCF74DFC54
:1052E00040F609413620FCF748FC4FF401713720A5
:1052F000FCF743FC40F201313820FCF73EFC40F261
:1053000007713920FCF739FC00213C20FCF735FC03
:1053100040F60A213D20FCF730FC3220FCF724FB4C
:1053200000215020FCF729FCEF215120FCF725FC3F
:1053300000215220FCF721FC40F23F115320FCF7E2
:105340001CFC4FF427416020FCF717FC0121612071
:10535000FCF713FC00216A20FCF70FFC00218020E1
:10536000FCF70BFC00218120FCF707FC00218220C8
:10537000FCF703FC00218320FCF7FFFB00218420C5
:10538000FCF7FBFB00218520FCF7F7FB10219020A8
:10539000FCF7F3FB4FF4C0619220FCF7EEFB40F208
:1053A00033110720FCF7E9FB24E61248808849F214
:1053B000203188427ED100210846FCF7DEFB4FF405
:1053C00080710120FCF7D9FB4FF4E0610220FCF76B
:1053D000D4FB41F230010320FCF7CFFB0021042075
:1053E000FCF7CBFB40F202210820FCF7C6FB0021B2
:1053F000092001E084010020FCF7BFFB00210A2006
:10540000FCF7BBFB01210C20FCF7B7FB00210D20B2
:10541000FCF7B3FB00210F20FCF7AFFB3220FCF7B9
:10542000A3FA40F201110720FCF7A7FB3220FCF79A
:105430009BFA4FF486511020FCF79FFB07211120A7
:10544000FCF79BFB4FF488711220FCF796FB4FF49E
:1054500030611320FCF791FB00212920FCF78DFB24
:1054600044F210012B20FCF788FB00215020FCF7B0
:1054700084FBEF215120FCF780FB00215220FCF738
:105480007CFB40F23F115320FCF777FB4FF41C519B
:105490006020FCF772FB01216120FCF76EFB00210C
:1054A0006A20FCF76AFB00218020FCF766FB0021E4
:1054B000812000E030E0FCF760FB00218220FCF757
:1054C0005CFB00218320FCF758FB00218420FCF7C3
:1054D00054FB00218520FCF750FB10219020FCF7A5
:1054E0004CFB00219220FCF748FB01219320FCF7A4
:1054F00044FB4FF488719520FCF73FFB0021972077
:10550000FCF73BFB00219820FCF737FB40F27311BE
:105510000720FCF732FB6DE5FE48808849F2313107
:1055200088427DD141F21401E720FCF726FB4FF4BD
:1055300080710120FCF721FB4FF400710220FCF781
:105540001CFB41F238010320FCF717FB40F202215B
:105550000820FCF712FB00210920FCF70EFB0021BC
:105560000A20FCF70AFB00210C20FCF706FB0021B7
:105570000D20FCF702FB00210F20FCF7FEFA0021B2
:105580001020FCF7FAFA07211120FCF7F6FA0021A7
:105590001220FCF7F2FA00211320FCF7EEFAC820E3
:1055A000FCF7E2F941F290611020FCF7E6FA40F2D4
:1055B00027211120FCF7E1FA3220FCF7D5F90C2164
:1055C0001220FCF7DAFA3220FCF7CEF94FF4006132
:1055D0001320FCF7D2FA11212920FCF7CEFA0B2177
:1055E0002B20FCF7CAFA3220FCF7BEF9002120205C
:1055F000FCF7C3FA40F23F112120FCF7BEFA00216C
:105600003020FCF7BAFA4FF483713120FCF7B5FA79
:1056100000213220FCF7B1FA4FF40171352000E08F
:1056200064E0FCF7AAFA41F20A613620FCF7A5FA19
:1056300040F207713720FCF7A0FA4FF4837138204D
:10564000FCF79BFA40F207713920FCF796FA40F21A
:1056500002413C20FCF791FA40F60F413D20FCF757
:105660008CFA00215020FCF788FAEF215120FCF73A
:1056700084FA00215220FCF780FA40F23F115320B7
:10568000FCF77BFA4FF41C516020FCF776FA0121FD
:105690006120FCF772FA00216A20FCF76EFA002103
:1056A0008020FCF76AFA00218120FCF766FA0021CD
:1056B0008220FCF762FA00218320FCF75EFA0021C9
:1056C0008420FCF75AFA00218520FCF756FA1021B5
:1056D0009020FCF752FA4FF4C0619220FCF74DFA8B
:1056E00040F233110720FCF748FA83E489488088A8
:1056F00045F2084188427DD14FF480710120FCF7CA
:105700003CFA4FF4E0610220FCF737FA41F2300135
:105710000320FCF732FA00210420FCF72EFA40F2B5
:1057200007210820FCF729FA00210920FCF725FAB7
:1057300000210A20FCF721FA00210C20FCF71DFAB9
:1057400000210D20FCF719FA00210F20FCF715FAB3
:105750001420FCF709F941F2B0611020FCF70DFAB2
:1057600001211120FCF709FA01211720FCF705FAA5
:105770004FF49C711220FCF700FA4FF400611320E3
:10578000FCF7FBF909212920FCF7F7F909212A2068
:10579000FCF7F3F90021A420FCF7EFF900215020D9
:1057A000FCF7EBF9EF215120FCF7E7F9002152203B
:1057B000FCF7E3F940F23F115320FCF7DEF94FF418
:1057C0001C516020FCF7D9F901216120FCF7D5F9C3
:1057D00000216A20FCF7D1F900218020FCF7CDF9E7
:1057E00000218120FCF7C9F900218220FCF7C5F9CE
:1057F000002100E024E08320FCF7BFF90021842091
:10580000FCF7BBF900218520FCF7B7F913219020A4
:10581000FCF7B3F900219220FCF7AFF903219320A4
:10582000FCF7ABF94FF488719520FCF7A6F940F22C
:1058300073110720FCF7A1F93220FCF795F8B8E4C2
:105840003448808841F2055188427DD100210720EB
:10585000FCF793F93220FCF787F84FF48E71122091
:10586000FCF78BF90121A420FCF787F90F21082010
:10587000FCF783F908210A20FCF77FF908210D20A5
:10588000FCF77BF940F207713020FCF776F907212D
:105890003120FCF772F940F203613220FCF76DF918
:1058A0004FF4E0613320FCF768F940F20221342024
:1058B000FCF763F902213520FCF75FF941F60F711F
:1058C0003620FCF75AF940F207713720FCF755F9FA
:1058D00000213820FCF751F900213920FCF74DF95F
:1058E00040F207713A20FCF748F900213B20FCF711
:1058F00044F907213C20FCF740F900213D20FCF74A
:105900003CF93220FCF730F801210720FCF735F98B
:10591000012101E0840100201720FCF72EF932203C
:10592000FCF722F84FF4BD511020FCF726F940F2A5
:1059300017211120FCF721F94FF48F711220FCF789
:105940001CF94FF4706100E098E01320FCF715F9A2
:1059500000212A20FCF711F90A212920FCF70DF972
:105960004FF49F711220FCF708F900215020FCF73A
:1059700004F9EF215120FCF700F900215220FCF737
:10598000FCF840F23F115320FCF7F7F84FF41C519C
:105990006020FCF7F2F801216120FCF7EEF800210D
:1059A0006A20FCF7EAF800218020FCF7E6F80021E5
:1059B0008120FCF7E2F800218220FCF7DEF80021CC
:1059C0008320FCF7DAF800218420FCF7D6F80021C8
:1059D0008520FCF7D2F813219020FCF7CEF84FF485
:1059E00040719220FCF7C9F805219320FCF7C5F817
:1059F00000219520FCF7C1F800219720FCF7BDF8A5
:105A000000219820FCF7B9F84FF480710120FCF7D1
:105A1000B4F84FF4E0610220FCF7AFF841F238012E
:105A20000320FCF7AAF800210420FCF7A6F80021C7
:105A30000C20FCF7A2F800210F20FCF79EF80021B3
:105A40002020FCF79AF800212120FCF796F821216C
:105A50000720FCF792F81420FBF786FF612107204E
:105A6000FCF78BF81420FBF77FFF40F2731107203F
:105A7000FCF783F81420FBF777FF5AE3FE48808891
:105A80004BF2055188427CD100210846FCF775F89D
:105A900000210846FCF771F800210846FCF76DF874
:105AA00000210846FCF769F80121A420FCF765F8FD
:105AB0001420FBF759FF4FF41C516020FCF75DF8F0
:105AC00040F202210820FCF758F84FF4057130200D
:105AD000FCF753F843F215713120FCF74EF840F211
