:020000040800F2
:1000000070070020310200085D1600085F16000826
:1000100063160008671600086B1600080000000051
:100020000000000000000000000000006F16000843
:10003000711600080000000073160008751600080D
:100040004B0200084B0200084B0200084B0200085C
:100050004B0200084B0200084B0200084B0200084C
:100060004B0200084B0200084B0200084B0200083C
:100070004B0200084B0200084B0200084B0200082C
:100080004B0200084B0200084B0200084B0200081C
:100090004B0200084B0200084B0200084B0200080C
:1000A0004B0200084B0200084B0200084B020008FC
:1000B0004B0200084B0200084B0200084B020008EC
:1000C0004B0200084B0200084B0200084B020008DC
:1000D0004B020008551A00084B0200084B020008AA
:1000E0004B0200084B0200084B0200084B020008BC
:1000F0004B0200084B0200084B0200084B020008AC
:100100004B0200084B0200084B0200084B0200089B
:100110004B0200084B0200084B0200084B0200088B
:100120004B0200084B0200084B0200084B0200087B
:100130004B0200084B0200084B0200084B0200086B
:100140004B0200084B0200084B0200084B0200085B
:100150004B0200084B0200084B0200084B0200084B
:100160004B0200084B0200084B0200084B0200083B
:100170004B0200084B0200084B0200084B0200082B
:100180004B0200084B02000800F002F800F041F8B2
:100190000AA090E8000C82448344AAF10107DA45E2
:1001A00001D100F036F8AFF2090EBAE80F0013F0F3
:1001B000010F18BFFB1A43F0010318477CFF020030
:1001C0009CFF0200103A24BF78C878C1FAD85207C1
:1001D00024BF30C830C144BF04680C6070470000C1
:1001E0000023002400250026103A28BF78C1FBD840
:1001F000520728BF30C148BF0B607047642907F021
:100200002B86002070471FB507F068FF1FBD10B593
:1002100010BD07F031FF1146FFF7F5FF06F02AFB8E
:1002200007F04FFF03B4FFF7F2FF03BC01F0AEFB92
:100230000948804709480047FEE7FEE7FEE7FEE77A
:10024000FEE7FEE7FEE7FEE7FEE7FEE704480549B6
:10025000054A064B70470000551700088901000841
:100260007001002070070020700300207003002040
:1002700032490143324A1160704770B500210023B2
:100280000F22C4781CB32E4C246804F4E064C4F537
:10029000E064C4F30721C1F10404E3B20A414478E5
:1002A0009C40E1B28478144021430C07210E254C78
:1002B00005786155047804F01F050124AC400578E9
:1002C0006D11AD0005F1E025C5F8004109E00478A5
:1002D00004F01F050124AC401B4D0678761145F84B
:1002E000264070BD194A0A400243154B1B1F1A6075
:1002F000704739B1124A121D12680243104B1B1D80
:100300001A6006E00E4A121D126882430C4B1B1D38
:100310001A607047042808D14FF0E021096941F0C4
:1003200004014FF0E022116107E04FF0E02109697C
:1003300021F004014FF0E022116170470000FA053E
:100340000CED00E000E400E080E100E080FFFF1F32
:1003500030B943F2DB028100A1F1C0410A6005E03F
:1003600043F2D2028100A1F1C0410A606FF07042F5
:10037000411C8900A1F1C0410A608100A1F1C04186
:10038000C1F804217047D0E901121143C26811433A
:10039000026911434269114382691143C2691143E1
:1003A000026A1143426A1143826A1143C26A1143CD
:1003B000026B114302689200A2F1C0421160816891
:1003C00008290BD101688900A1F1C041096841F0F9
:1003D000400201688900A1F1C0410A60416B0968CF
:1003E000426B526841EA0211426B926841EA022173
:1003F000426B928941EA0241426B128A41EA025100
:10040000426B127D41EA0261426B926911430268BC
:10041000521C9200A2F1C0421160C16AB1F5804F36
:100420001BD1816B0968826B526841EA0211826BB1
:10043000926841EA0221826B128A41EA0251826B80
:10044000127D41EA0261826B926911430268920057
:10045000A2F1C042C2F8041107E06FF070420168D7
:100460008900A1F1C041C1F8042170470021016059
:100470000221416000218160C160016141618161AF
:10048000C16101624FF480514162490081620021E3
:10049000C1620163F84941638163704751B18200D1
:1004A000A2F1C042126842F001038200A2F1C042F0
:1004B000136009E08200A2F1C0421268EF4B1A40BB
:1004C0008300A3F1C0431A60704710280AD1182195
:1004D0004FF020421166402151664FF0FC31916689
:1004E000D16610E01821E64A116040214FF0204209
:1004F000C2F884104FF0FC31E14A083211604FF02D
:100500002042C2F88C10704730B500210022002331
:10051000446844F0080485682C43C5682C43056989
:100520002C43456944EA4524856944EA4531C46958
:100530002468C5696D6844EA0524C5692D8944EAC3
:100540000544C5692D7B44EA0562046A2468056A8E
:100550006D6844EA0524056A2D8944EA0544056A64
:100560002D7B44EA05630468102C05D14FF020442C
:100570002166A266E36608E0C14C21604FF020448A
:10058000C4F88820BE4C0C34236030BD10210160BB
:10059000002141608160C160016141618161FC2194
:1005A000C2691160C2695160C2699160C269D1605B
:1005B000026A1160026A5160026A9160026AD16047
:1005C000704799B1102808D14FF02042126E42F0C6
:1005D00004024FF020431A661DE0A94A126842F057
:1005E00004024FF02043C3F8802014E0102809D102
:1005F0004FF02042126EA14BDB1E1A404FF02043F9
:100600001A6608E09E4A12689C4BDB1E1A404FF0A7
:100610002043C3F88020704799B1102808D14FF0CB
:100620002042126E42F040024FF020431A661DE055
:10063000934A126842F040024FF02043C3F88020F2
:1006400014E0102809D14FF02042126E8B4B3F3B33
:100650001A404FF020431A6608E0894A1268874B17
:100660003F3B1A404FF02043C3F8802070470146BB
:100670000020102903D14FF02042506F02E0804A41
:1006800014321068704718207D492031086000201E
:100690000906C1F8A4004FF0FC3079492831086000
:1006A000091D0860091D08607047016841F01001CC
:1006B000426841EA4221826841EA4231704A20326E
:1006C0001160C1680968C268526841EA0221C268C3
:1006D000128941EA0241C268127B41EA0261684A1A
:1006E00028321160016909680269526841EA0221F1
:1006F0000269128941EA02410269127B41EA026100
:100700005F4A2C321160416909684269526841EAC6
:1007100002214269128941EA02414269127B41EA9F
:1007200002614FF02042C2F8B01070470021016012
:1007300041608160FC21C2681160C2685160C2687A
:100740009160C268D16002691160026951600269FA
:1007500091600269D16042691160426951604269E9
:1007600091604269D160704748B1454920310968BC
:1007700041F004014FF02042C2F8A01009E04049C6
:10078000203109683D4AD21E11404FF02042C2F884
:10079000A010704710B5F2B1102807D14FF02043D8
:1007A0005B6E0B434FF02044636632E0B0F5807F10
:1007B00008D1334B1B1D1B680B434FF02044C4F87A
:1007C000843026E02E4B24331B680B434FF020442B
:1007D000C4F8A4301DE0102807D14FF020435B6E11
:1007E0008B434FF02044636613E0B0F5807F08D15F
:1007F000234B1B1D1B688B434FF02044C4F88430EF
:1008000007E01F4B24331B688B434FF02044C4F890
:10081000A43010BD10B5024600200023102A03D1D9
:100820004FF02044636E09E0B2F5807F03D1144C91
:10083000241D236802E0124C2434236803EA0104D7
:100840000CB1012000E0002010BD102807D14FF0AE
:100850002042526E8A434FF020435A6619E0B0F5A9
:10086000807F0FD1064A121D12688A434FF0204341
:10087000C3F884200DE00000E8800008FEFF0F00B0
:10088000800000A0234A12688A434FF02043C3F837
:10089000A420704770B502460020002300240025E4
:1008A000102A03D14FF02046736E08E0B2F5807F26
:1008B00003D1184E203E336801E0164E336803EA38
:1008C000010403EAD10514B10DB1012000E00020BC
:1008D00070BD102808D14FF02042526E22EAD1029A
:1008E0004FF020435A6614E0B0F5807F09D1094AE1
:1008F000203A126822EAD1024FF02043C3F8842044
:1009000007E0044A126822EAD1024FF02043C3F8FC
:10091000A4207047A40000A010B504469848844263
:1009200008D10121084600F086FB0021012000F0DB
:1009300082FB76E09348844208D10121022000F036
:100940007AFB0021022000F076FB6AE08E488442A8
:1009500008D10121042000F06EFB0021042000F0EA
:100960006AFB5EE08948844208D10121082000F03A
:1009700062FB0021082000F05EFB52E084488442C4
:1009800008D10121102000F056FB0021102000F0BA
:1009900052FB46E07F48844208D10121202000F02C
:1009A0004AFB0021202000F046FB3AE07A488442CE
:1009B00008D10121402000F03EFB0021402000F042
:1009C0003AFB2EE07548844208D10121802000F0D6
:1009D00032FB0021802000F02EFB22E07048844290
:1009E00008D10121801500F026FB0021A01500F0A0
:1009F00022FB16E06B48844208D10121401500F02B
:100A00001AFB0021601500F016FB0AE066488442DC
:100A100007D10121001500F00EFB0021201500F088
:100A20000AFB10BDF0B50A4600210023002400BFD8
:100A30003DE0012505FA01F3156805EA03049C422F
:100A400034D105684F000326BE40B54305601579D3
:100A50004E00B5400668354305601579012D02D07A
:100A60001579022D16D185684F000326BE40B54387
:100A7000856055794E00B540866835438560456888
:100A800001268E40B5434560456896798E40B6B2E2
:100A900035434560C5684F000326BE40B543C56079
:100AA000D5794E00B540C6683543C560491C10294C
:100AB000BFD3F0BD4FF6FF7101600021017141719C
:100AC0008171C171704708B54FF480320092009A6D
:100AD0000A430092009AC261C161009AC261C26970
:100AE0000092C269009208BD0246002013690B40C3
:100AF0000BB1012000E0002070470146086980B278
:100B000070470246002053690B400BB1012000E002
:100B1000002070470146486980B2704701837047E2
:100B2000418370470AB1018300E04183704741610E
:100B3000704742694A4042617047F0B50023002483
:100B40004D07ED0E02FA05F3CE1000F1200555F821
:100B500026504E07F70E0F26BE40B543CF1000F1CA
:100B6000200646F82750CE1000F1200555F82650F3
:100B700045EA0304CE1000F1200545F82640F0BDFB
:100B8000000002400004024000080240000C024045
:100B9000001002400014024000180240001C0240F5
:100BA000002002400024024000280240F94800686A
:100BB00040F00100F74908600020F649083108605C
:100BC000F4480068F4490840F2490860F348091DF8
:100BD0000860F348EF4984310860F0481038091D77
:100BE0000860EC48006820F48020EA490860002092
:100BF000E8490C310860E7498C31086070470021F2
:100C0000E44A921C117011460870704710B50146F5
:100C10000022002300204A11012A02D1DD4C236862
:100C200008E0022A03D1DB4C7034236802E0D94C7F
:100C30007434236801F01F02012494401C400CB15D
:100C4000012000E0002010BD38B5002000900024F5
:100C5000002500BF3120FFF7D9FF05460098401C52
:100C600000900098B0F5A04F01D0002DF2D03120B7
:100C7000FFF7CCFF08B1012400E00024204638BD76
:100C800001460020C34A106820F0F80040EAC10085
:100C900010607047C349086070470021BD4A703238
:100CA00011701170012802D004280AD104E001213A
:100CB000B84A7032117005E00521B64A70321170E1
:100CC00000E000BF00BF7047B7490860704770B5CB
:100CD000049C41EA82150126C6EB530645EA064507
:100CE000054345EA0465AB4E361D356070BDAD4920
:100CF00008667047820142EA0172A64B84331A608B
:100D00007047A8498866704710B5830143EA0163BC
:100D100043EA02739F4C8834236010BDA1490867E1
:100D20007047A049C864704702460020994B0833B9
:100D3000186820F0EC6042EA01031843954B083331
:100D40001860704702460020924B0833186820F064
:100D5000784042EA010318438E4B0833186070470D
:100D6000014600208B4A0832106820F00300084337
:100D70001060704787480830006800F00C0070472A
:100D800001460020834A0832106820F0F000084332
:100D900010607047014600207E4A0832106820F437
:100DA000E05008431060704701460020794A08323D
:100DB000106820F4604040EAC10010607047F0B550
:100DC000002100220024022500260223714F08374B
:100DD0003F6807F00C0121B1042905D0082937D15B
:100DE00005E0724F076036E0714F076033E0694FEE
:100DF0003F1D3F68C7F38056664F3F1D3F6807F0B1
:100E00003F036EB16A4FB7FBF3F7DFF888C10CF10F
:100E1000040CDCF800C0CCF3881C07FB0CF40CE0DD
:100E2000624FB7FBF3F7DFF86CC10CF1040CDCF890
:100E300000C0CCF3881C07FB0CF4564F3F1D3F68E5
:100E4000C7F301477F1C7D00B4FBF5F7076002E0A4
:100E5000564F076000BF00BF4E4F08373F6807F08E
:100E6000F0010909534F7A5C0768D7404760494F42
:100E700008373F6807F4E051890A4E4F7A5C4768AB
:100E8000D7408760434F08373F6807F46041490BFC
:100E9000484F7A5C4768D740C760F0BD002100F436
:100EA0004072B2F5407F0AD13A4A0832116821F403
:100EB000F811414A02401143364A08321160354A5E
:100EC00070321268C0F30B031A43324B70331A604E
:100ED00070473549443908607047334940390860E4
:100EE000704736490860704701460020294A8C3215
:100EF000106820F01F004A1E1043264A8C321060F2
:100F0000704701460020234A8C32106820F4F850C4
:100F10004A1E40EA02201F4A8C3210607047014688
:100F200000201C4A8C32106820F4401008431060E6
:100F3000704701460020174A8C32106820F44000A8
:100F400008431060704701460020124A8C32106836
:100F500020F440300843106070471949086070471A
:100F600039B10C4A3032126802430A4B30331A60EE
:100F700006E0084A303212688243064B30331A606A
:100F80007047F9B1034A343212680243014B3433DB
:100F90001A601CE000380240FFFFF6EA103000241F
:100FA0000030002000004742800E47420024F40039
:100FB00000127A0000000020FFFCFF0F5C01474296
:100FC000E01147428F4A126882438E4B1A60704785
:100FD00039B18C4A121D126802438A4B1B1D1A60DC
:100FE00006E0884A121D12688243864B1B1D1A6058
:100FF000704739B1834A0C3212680243814B0C337B
:101000001A6006E07F4A0C32126882437D4B0C3333
:101010001A60704739B17B4A103212680243794B2B
:1010200010331A6006E0774A103212688243754B1B
:1010300010331A60704739B1724A243A1268024379
:10104000704B243B1A6006E06E4A243A12688243D1
:101050006C4B243B1A60704739B16A4A203A1268D7
:101060000243684B203B1A6006E0664A203A126849
:101070008243644B203B1A60704739B1614A1C3A85
:10108000126802435F4B1C3B1A6006E05D4A1C3A43
:10109000126882435B4B1C3B1A60704739B1594A56
:1010A000143A12680243574B143B1A6006E0554A43
:1010B000143A12688243534B143B1A60704739B19B
:1010C000504A103A126802434E4B103B1A6006E039
:1010D0004C4A103A126882434A4B103B1A607047E0
:1010E00039B1484A1C3212680243464B1C331A601D
:1010F00006E0444A1C3212688243424B1C331A6099
:10110000704739B13F4A2032126802433D4B2033C9
:101110001A6006E03B4A203212688243394B203382
:101120001A60704739B1374A243212680243354B8E
:1011300024331A6006E0334A243212688243314B6A
:1011400024331A60704739B12E4A2C321268024398
:101150002C4B2C331A6006E02A4A2C321268824348
:10116000284B2C331A60704739B1264A3032126846
:101170000243244B30331A6006E0224A30321268B0
:101180008243204B30331A607047012808D11D4933
:101190003C31096841F008011A4A3C32116007E00D
:1011A00018493C31096821F00801164A3C321160A7
:1011B000704739B1134A273A12780243114B273B43
:1011C0001A7006E00F4A273A127882430D4B273BEC
:1011D0001A7070470B484030006840F08070094931
:1011E00040310860704701460020064A283A1268DC
:1011F0000A400AB1012000E0002070470149263969
:10120000087070473438024010B50446FA488442EA
:1012100008D101211020FFF752FF00211020FFF715
:101220004EFF57E0F548844209D101214804FFF7F9
:1012300035FF00214FF40030FFF730FF4AE0F0485F
:10124000844209D101218804FFF728FF00214FF4CF
:101250008020FFF723FF3DE0EA48844209D10121C5
:10126000C804FFF71BFF00214FF40020FFF716FF13
:1012700030E0E548844209D101210805FFF70EFF5F
:1012800000214FF48010FFF709FF23E0DF4884427C
:1012900008D101212020FFF712FF00212020FFF7B5
:1012A0000EFF17E0DA48844209D101218807FFF7D1
:1012B000F5FE00214FF08040FFF7F0FE0AE0D54830
:1012C000844207D101214005FFF7E8FE00216005B7
:1012D000FFF7E4FE10BD2DE9FF4705460E4600244A
:1012E000A14600BFA046B08900B100BF2C8A24F4FB
:1012F0004054F08804432C82AC8941F20C60844352
:10130000B08831890843718908430443AC81AC8AB1
:1013100024F44074B0890443AC826846FFF74FFD63
:10132000B548854202D0B948854202D1DDF80C901B
:1013300001E0DDF80890A88900F4004040B109EB15
:10134000C90000EB091031684900B0FBF1F707E074
:1013500009EBC90000EB091031688900B0FBF1F717
:101360006420B7FBF0F004012009642101FB107830
:10137000A88900F4004040B1322000EBC800B0FB67
:10138000F1F000F00700044308E0322000EB081001
:101390006421B0FBF1F000F00F0004432C81BDE8A4
:1013A000FF874FF41651016000218180C1800181C7
:1013B0000C21418100218181704710B50246002037
:1013C000108A20F470600B884C8823438C88234358
:1013D000CC8823431843108210BD00210180418036
:1013E0008180C180704721B1828942F4005282819C
:1013F00004E082894DF6FF731A4082817047028BA8
:1014000002F47F420283028B0A430283704721B1B8
:10141000828942F40042828103E08289C2F30E0293
:101420008281704721B1828A42F40062828204E0A4
:10143000828A4FF2FF731A4082827047C1F308021A
:101440008280704701468888C0F308007047028A8E
:101450004FF6F0731A400282028A0A4302827047F2
:1014600021B1828942F00202828104E082894FF632
:10147000FD731A408281704782894FF2FF731A40D0
:10148000828182890A4382817047028A4FF6DF7324
:101490001A400282028A0A430282704721B1028AFC
:1014A00042F48042028204E0028A4BF6FF731A4043
:1014B00002827047818941F001018181704721B129
:1014C000828A42F00802828204E0828A4FF6F77331
:1014D0001A4082827047028BD2B20283028B42EAA8
:1014E00001220283704721B1828A42F02002828267
:1014F00004E0828A4FF6DF731A408282704721B17E
:10150000828A42F01002828204E0828A4FF6EF73F0
:101510001A4082827047828A4FF6FB731A40828299
:10152000828A0A438282704721B1828A42F0020293
:10153000828204E0828A4FF6FD731A4082827047ED
:101540001AB1838A0B43838202E0838A8B438382AE
:101550007047F0B50346002400260025002040F621
:101560006A17B94200D100BF1846C1F3421401F016
:101570001F06012707FA06F5012C01D10C3004E003
:10158000022C01D1103000E014301AB107682F434B
:10159000076002E00768AF430760F0BD0246002025
:1015A000B1F5007F00D100BF13880B400BB10120C3
:1015B00000E00020704701F40072B2F5007F00D116
:1015C00000BFCA430280704770B502460024002362
:1015D0000025002040F66A16B14200D100BFC1F3D9
:1015E000421501F01F03012606FA03F3012D13D162
:1015F0009689334017E0000000100140004400408D
:1016000000480040004C00400050004000140140E1
:1016100000780040007C0040022D02D1168A334041
:1016200001E0968A33400C12012606FA04F416886B
:10163000344013B10CB1012000E0002070BD10B5A2
:101640000022002340F66A14A14200D100BF0A1212
:1016500001249440A3B2DC43048010BD704700BF56
:10166000FEE700BFFEE700BFFEE700BFFEE77047F2
:1016700070477047704700000CB500200190009043
:101680007648006840F480307449086000BF7348B1
:10169000006800F4003000900198401C0190009810
:1016A00018B90198B0F5A04FF1D16C48006800F46A
:1016B000003010B10120009001E00020009000985F
:1016C000012846D165484030006840F080506349A9
:1016D000403108606248006840F44040604908605A
:1016E0005E48083000685D490831086008460068B7
:1016F00040F4004008600846006840F4A0500860CC
:101700005848091F0860081F006840F08070091FD2
:10171000086000BF5148006800F000700028F9D050
:1017200040F20570504908604C480830006820F0CD
:1017300003004A49083108600846006840F002008A
:10174000086000BF45480830006800F00C00082819
:10175000F8D10CBD10B54548006840F4700043490D
:1017600008603E48006840F001003C4908600020E5
:101770003A4908310860394800683D49084037490E
:1017800008603C48091D0860081F006820F480209C
:10179000091F0860002031490C310860FFF76CFF19
:1017A0004FF0006031498039086010BD70B50020ED
:1017B0000022022300240221284D08352D6805F05F
:1017C0000C0020B1042806D0082834D107E02A4DA7
:1017D0002A4E356033E02A4D284E35602FE01F4DEC
:1017E0002D1D2D68C5F380541C4D2D1D2D6805F051
:1017F0003F0154B1224DB5FBF1F5184E361D366848
:10180000C6F3881605FB06F209E01B4DB5FBF1F5A2
:10181000124E361D3668C6F3881605FB06F20F4DCC
:101820002D1D2D68C5F301456D1C6B00B2FBF3F552
:10183000124E356003E0104D104E356000BF00BF02
:10184000064D08352D68C5F303150E4E705D0B4D22
:101850002D68C540094E356070BD0000003802405B
:101860000070004008544007003C024088ED00E052
:10187000FFFFF6FE103000240024F40010000020CA
:1018800000127A001400002010B504466FF0040026
:10189000FEF740FDE11704EB5171C1F3C701394A6E
:1018A00011701046007800EB4001C1EBC0104FF6FC
:1018B000FF7101EAC0003449088010BD0146314A79
:1018C00012784A434FF0E0235A6100229A611A4687
:1018D000126942F001021A6100BF4FF0E022106964
:1018E00000F001021AB100F48032002AF5D04FF066
:1018F000E022126922F001024FF0E0231A61002277
:101900009A6170470146204A12884A434FF0E0230B
:101910005A6100229A611A46126942F001021A6164
:1019200000BF4FF0E022106900F001021AB100F48C
:101930008032002AF5D04FF0E022126922F0010235
:101940004FF0E0231A6100229A61704770B5044697
:101950004FF4077094FBF0F0C6B24FF4077094FB9D
:10196000F0F100FB114085B205E04FF40770FFF77E
:10197000C9FF701EC6B2002EF7D115B12846FFF779
:10198000C1FF70BD2400002026000020014600BFDA
:10199000704700BF4E4A128802F04002002AF9D078
:1019A000C2B24B4B9A80704710B588B004460121F3
:1019B0000846FFF7D5FA01211020FFF72BFB07227D
:1019C00009214448FFF7B9F807220A214148FFF7E7
:1019D000B4F84FF4C060069002208DF81C008DF81A
:1019E0001D0000208DF81E0001208DF81F0006A9A3
:1019F0003848FFF717F802940020ADF80C00ADF856
:101A00000E00ADF81000ADF814000C20ADF8120077
:101A100002A92F48FFF75FFC01212D48FFF7E3FCE7
:101A200040212B48FFF7C7FD012240F225512848ED
:101A3000FFF78FFD25208DF8040003208DF80500A9
:101A40008DF8060001208DF8070001A8FEF715FCAF
:101A500008B010BD10B540F225511D48FFF7B4FD88
:101A600010B31B48FFF7EEFCC4B21B48008800F41B
:101A70000040C8B91848008800F4804060B10A2CC2
:101A800003D000201449088020E01348008840F467
:101A900000401149088019E00D2C06D10E4800883D
:101AA00040F480400C49088010E00B480088C0F3E7
:101AB0000D000A490C5408480088401C064908805B
:101AC00008460088C72801DD0020088010BD0000FE
:101AD00000100140000002402C00002034000020D3
:101AE0001CB501212020FFF73BFA4FF4C0600090A5
:101AF00001208DF8040000208DF8060003208DF8E9
:101B0000050001208DF8070069460448FEF78AFFAA
:101B10004FF4C0610148FFF701F81CBD00140240FA
:101B20001CB501211020FFF71BFA1820009000209F
:101B30008DF804008DF8060003208DF805000120C3
:101B40008DF8070069460248FEF76CFF1CBD0000D7
:101B500000100240F7480089F7490880704703B534
:101B6000BDF80000F4490880BDF804004FF0D841EA
:101B7000A1F880000CBD01B5BDF800000090BDF8D3
:101B80000000ED49891C088008BD01B5BDF80000C2
:101B90000090BDF80000E849088008BD30B5044653
:101BA0000D46E448808849F24131884205D0E14839
:101BB000808845F21031884214D1DE494889FFF708
:101BC000E4FF2012FFF7D7FFE0B2FFF7D4FFD949B7
:101BD0008889FFF7DAFF2812FFF7CDFFE8B2FFF799
:101BE000CAFF5DE0D348808846F6040188421DD1D3
:101BF000D0488079012804D1CE480088401E001BBF
:101C000084B2CC494889FFF7C0FF2012FFF7B3FF29
:101C1000E0B2FFF7B0FFC7498889FFF7B6FF281287
:101C2000FFF7A9FFE8B2FFF7A6FF39E0C1488088B7
:101C300045F21051884220D1BE494889FFF7A5FFDF
:101C40002012FFF798FFBB494989491C88B2FFF76A
:101C50009CFFE0B2FFF78FFFB6498889FFF795FF39
:101C60002812FFF788FFB3498989491C88B2FFF71A
:101C70008CFFE8B2FFF77FFF12E0AE4880790128C1
:101C800004D1AC480088401E001B84B2A949488991
:101C90002146FFF764FFA74988892946FFF75FFFC0
:101CA00030BD2DE9F04305460024A146A1488079C6
:101CB00001281ED19F48808846F60401884218D02A
:101CC000082D15D2DFE805F00406080A0C0E1012E4
:101CD00006250DE007250BE0042509E0052507E0B2
:101CE000012505E0002503E0032501E0022500BFF2
:101CF00000BF9048808849F24131884211D08D4818
:101D0000808846F6040188420BD08A48808845F2D4
:101D10001031884205D08748808845F210518842AA
:101D200078D1082D1CD2DFE805F00406090C0F124B
:101D3000151800BF14E044F0800411E044F04004A2
:101D40000EE044F0C0040BE044F0200408E044F04E
:101D5000600405E044F0A00402E044F0E00400BFA9
:101D600000BF7448808845F21051884202D14FF478
:101D7000585901E04FF036096E48808845F210311D
:101D8000884207D06B48808845F21051884201D0C4
:101D900044F008046748808846F60401884201D16F
:101DA00044F0020421464846FFF7D9FE04F0200023
:101DB00018B96048807901280FD15E4800885D49D4
:101DC0004988884218DA5B48B0F800804088594951
:101DD00008800846A0F802800EE056480088554961
:101DE0004988884208DD5348B0F80080408851494E
:101DF00008800846A0F802804E48807901280AD160
:101E00004C48808846F60401884204D049484688F8
:101E1000078803E07AE04748068847884548808875
:101E200045F2105188424AD142494889FFF7ADFE38
:101E30000020FFF7A0FE3F494989491C88B2FFF7FF
:101E4000A4FE0020FFF797FE3A494989891C88B211
:101E5000FFF79BFE711EC1F30F20FFF78CFE354983
:101E60004989C91C88B2FFF790FE711EC8B2FFF7FE
:101E700082FE30498889FFF788FE0020FFF77BFE4D
:101E80002C498989491C88B2FFF77FFE0020FFF7A3
:101E900072FE28498989891C88B2FFF776FE791E6F
:101EA000C1F30F20FFF767FE22498989C91C88B258
:101EB000FFF76BFE791EC8B2FFF75DFE5FE01D49BC
:101EC0004889FFF762FE0020FFF755FE0020FFF76C
:101ED00052FE711EC1F30F20FFF74DFE711EC8B2F6
:101EE000FFF749FE13498889FFF74FFE0020FFF7EF
:101EF00042FE0020FFF73FFE791EC1F30F20FFF7DF
:101F00003AFE791EC8B2FFF736FE38E0082D21D21E
:101F1000DFE805F004070A0D14171A1D44F0300419
:101F200018E044F0100415E044F0200412E000BF73
:101F300010E00000FC0000207E00006C44F038043B
:101F400008E044F0280405E044F0180402E044F0FE
:101F5000080400BF00BFFE48808848F68911884207
:101F600005D14FF0110946F24000044303E04FF061
:101F7000030944F4805421464846FFF7F0FDBDE8CC
:101F8000F083F0B507460320FFF78BFE002430E016
:101F900000262AE004EB4400304481B20020FFF721
:101FA000FDFDFFF7D7FD00251BE004EB840007EBE8
:101FB0000010405D50B94FF6FF70E64908804FF0C1
:101FC000D841A1F88000E349088008E00020E149F9
:101FD00008804FF0D841A1F88000DE490880681CD5
:101FE00085B2502DE1DB701C86B2032ED2DB601C63
:101FF00084B2502CCCDBF0BD70B504460D461646BD
:10200000D348808849F24131884205D0D048808841
:1020100045F21031884214D1CD494889FFF7B5FD0A
:102020002012FFF7A8FDE0B2FFF7A5FDC849888997
:10203000FFF7ABFD2812FFF79EFDE8B2FFF79BFD0F
:102040005DE0C348808845F21051884220D1C049E4
:102050004889FFF79AFD2012FFF78DFDBC49498999
:10206000491C88B2FFF791FDE0B2FFF784FDB84943
:102070008889FFF78AFD2812FFF77DFDB449898919
:10208000491C88B2FFF781FDE8B2FFF774FD36E026
:10209000AF48808846F6040188421DD1AC4880795B
:1020A000012804D1AA480088401E001B84B2A84918
:1020B0004889FFF76AFD2012FFF75DFDE0B2FFF7E8
:1020C0005AFDA3498889FFF760FD2812FFF753FDE9
:1020D000E8B2FFF750FD12E09D488079012804D155
:1020E0009B480088401E001B84B2994948892146BC
:1020F000FFF735FD964988892946FFF730FD94485A
:1021000000899449891E08804FF0D840A0F880606B
:1021100070BD2DE9F84F80460E4617461C46B34663
:102120002046E31704EB5373DB1021464FEAE47CAF
:1021300004EB5C7C4FEAEC0CA4EBCC0CBCF1000F84
:1021400002D04FF0010C01E04FF0000C6344224636
:1021500004EBD27C4FEA6C0C03FB0CF3DBB2009374
:10216000A7F12000C7B2002556E00C2C07D107EBE1
:102170004700794901EB800010F8059013E0102C1E
:1021800005D1764800EB071010F805900BE0182CED
:1021900007D107EBC700724901EB800010F80590EA
:1021A00001E0BDE8F88F4FF0000A2FE009F0800051
:1021B00030B16C48028831464046FFF71DFF07E00A
:1021C0000A9828B96848028831464046FFF714FF4C
:1021D0004FEA49604FEA1069701C86B25C4840883B
:1021E000B04200DCDDE7A6EB0B00A0420AD15E4660
:1021F00008F101001FFA80F855480088404500DCCE
:10220000CFE706E00AF1010000F0FF0ABAF1080F7B
:10221000CCDB00BF681CC5B200988542A5DB00BFBF
:10222000BFE710B50246012000E050430B1EA1F1AC
:102230000104E1B2F9D110BD2DE9F74F83B00F468B
:10224000904600251026002002900320FFF729FD6C
:10225000B8F1000F0DDAC8F10009681CC5B20124FD
:10226000002033462D22009038460399FFF751FF96
:1022700001E00024C146CB4604E00A20BBFBF0FB92
:10228000681CC5B2BBF1000FF7D13DB90020334641
:102290003022009038460399FFF73BFF38E0281BB7
:1022A000401EC1B20A20FFF7BCFFB9FBF0F00A21C3
:1022B000B0FBF1F201FB120A0298B0B9681EA0420D
:1022C00013DDBAF1000F0ED1002006EBD6714910D4
:1022D00001FB0471CDE9000688B233462022039940
:1022E000FFF717FF12E001200290002006EBD671E5
:1022F000491001FB0471CDE9000688B20AF13001F2
:10230000CAB233460399FFF704FF00BF601CC4B292
:10231000AC42C4DB06B0BDE8F08FF0B504460D4614
:102320001646104807884F2C54DA4F2D52DA0320F6
:10233000FFF7B7FC0B48068004EB440291B205EBB3
:10234000450290B2FFF72AFCFFF704FC0EE0000004
:10235000FC0000208000006C0481000878850008E3
:10236000688B00082E000020300000204FF47840D9
:10237000FE4908804FF0D841A1F88000FB49088051
:1023800004EB4402521C91B205EB450290B2FFF7F8
:1023900005FCFFF7DFFB4FF47840F4490880088024
:1023A0004FF0D841A1F8800004EB4402921C91B296
:1023B00005EB450290B2FFF7F1FBFFF7CBFB4FF4C3
:1023C0007840EA49088008804FF0D841A1F88000A1
:1023D000E7480780F0BD08B5E44800880090BDF8E4
:1023E000000008BD01B5BDF80000FFF7CEFB0520D9
:1023F000FFF764FAFFF7EFFF08BDDC49088070477C
:1024000030B5014601F01F04C1F34513CA0AE502C5
:1024100005EB43151544A8B230BD00BF011EA0F165
:102420000102D0B2FAD170473EB504460D460020F5
:10243000029001900090CF480088A04203DDCD4873
:102440004088A84201DC00203EBD29462046FFF717
:10245000A5FBC848808849F2413188420BD0C54865
:10246000808846F60401884205D0C248808845F23B
:102470001031884203D12E20FFF787FB0DE0BD48C5
:10248000808845F21051884204D14FF43850FFF74C
:102490007CFB02E02220FFF778FBB648808849F2F7
:1024A0002031884202D10220FFF7B7FFFFF793FFE8
:1024B0000220FFF7B2FFFFF78EFF0290AD48808841
:1024C00049F2413188420BD0AA48808845F2103148
:1024D000884205D0A748808845F21051884210D123
:1024E0000220FFF79AFFFFF776FF0090BDF8080083
:1024F000C0B20190BDF804004FF6FF7101EA002060
:1025000001909C48808849F22531884216D099482C
:10251000808844F23551884210D096488088091F3F
:1025200088420BD0934880884BF20551884205D0F1
:10253000904880884CF20551884202D1BDF80800CD
:1025400082E78C48808849F2413188420BD0894823
:10255000808845F21031884205D08648808845F24F
:10256000105188420DD1BDF80800C012C002BDF85C
:102570000410891240EA4110BDF8001040EAE12041
:1025800062E7BDF80800FFF73BFF5DE700B579485B
:10259000808849F2413188420BD07648808846F6DF
:1025A0000401884205D07348808845F21031884282
:1025B00003D12920FFF7E9FA0FE06E48808845F241
:1025C0001051884204D14FF42450FFF7DEFA04E0A2
:1025D00040F273110720FFF7C2FA00BD00B565484D
:1025E000808849F2413188420BD06248808846F6A3
:1025F0000401884205D05F48808845F21031884246
:1026000003D12820FFF7C1FA0EE05A48808845F22E
:102610001051884204D14FF42050FFF7B6FA03E07E
:1026200000210720FFF79BFA00BD30B504460D4698
:1026300029462046FFF7B2FAFFF78CFA4C4800888B
:102640004A49088030BD10B50446002C52D1494992
:102650008871F02008804FF4A07048800846808878
:1026600049F2413188420BD04248808846F6040145
:10267000884205D03F48808845F2103188421AD1FF
:102680002C203C4908812A2048812B20888108463B
:10269000808846F60401884205D03648808845F295
:1026A0001031884206D14FF4A070324908804FF4AF
:1026B000F070488081E02F48808845F210518842B0
:1026C00010D14FF430502B4908814FF428504881E5
:1026D0004FF42C5088814FF4F07008804FF448700C
:1026E00048806AE022202349088120204881212057
:1026F000888162E001201F4988714FF4A070088032
:10270000F02048800846808849F24131884205D04F
:102710001848808845F21031884207D12C2015498D
:1027200008812A2048812B20888133E01148808845
:1027300046F60401884207D12C200E4908812B203F
:1027400048812A20888125E00A48808845F2105176
:10275000884218D14FF43050064908814FF4285070
:1027600048814FF42C50888106E000008000006C06
:102770002E000020FC0000204FF4487008804FF429
:10278000F070488006E02220FE490881212048811F
:1027900020208881FB48808846F60401884205D0C5
:1027A000F848808845F21031884206D14FF4F07025
:1027B000F44908804FF4A07048800020FFF771FAB8
:1027C00010BD2DE9FF4F04460D4616461F46A019C1
:1027D000401E86B2E819401E87B2EA48808849F256
:1027E000413188420BD0E748808845F21031884259
:1027F00005D0E448808846F60401884220D1E149AA
:102800004889FFF7C2F92012FFF7B5F9E0B2FFF7E8
:10281000B2F93012FFF7AFF9F0B2FFF7ACF9D949CE
:102820008889FFF7B2F92812FFF7A5F9E8B2FFF798
:10283000A2F93812FFF79FF9F8B2FFF79CF97DE093
:10284000D048808845F21051884244D1CD4948890A
:10285000FFF79BF92012FFF78EF9CA494989491CF5
:1028600088B2FFF792F9E0B2FFF785F9C5494989C7
:10287000891C88B2FFF789F93012FFF77CF9C1494A
:102880004989C91C88B2FFF780F9F0B2FFF773F9E4
:10289000BC498889FFF779F92812FFF76CF9B94923
:1028A0008989491C88B2FFF770F9E8B2FFF763F92C
:1028B000B4498989891C88B2FFF767F93812FFF794
:1028C0005AF9B0498989C91C88B2FFF75EF9F8B294
:1028D000FFF751F932E0AB48807901280ED1A846C4
:1028E000B946A8480088801B401E1FFA80FAA548F8
:1028F0000088001B401E1FFA80FB03E0A046B14683
:10290000AA46BB46502003905120029052200190CD
:102910005320009041460398FFF721F94946029859
:10292000FFF71DF951460198FFF719F9594600982C
:10293000FFF715F929462046FFF730F9BDE8FF8F6C
:1029400070B5044600268F480588408845438D4869
:10295000808846F60401884216D18A488079012889
:1029600012D10020874988712A2048812B20888134
:1029700000210846FFF712F90120824988712B20B7
:1029800048812A20888103E000210846FFF706F9E4
:10299000FFF7E0F8002602E07B480480761CAE4298
:1029A000FAD370BD00B5A1B00020209001217A209B
:1029B000FEF7D6FA01210846FEF70AFB4FF4004065
:1029C0001E9001208DF87C0000208DF87E000220F2
:1029D0008DF87D0001208DF87F001EA96B48FEF761
:1029E00021F84CF233701E9002208DF87C000020FC
:1029F0008DF87E0003208DF87D0001208DF87F008A
:102A00001EA96348FEF70EF84FF680701E90022054
:102A10008DF87C0000208DF87E0003208DF87D006D
:102A200001208DF87F001EA95A48FDF7FBFF4FF4E7
:102A300080501E9002208DF87C0000208DF87E00D2
:102A400003208DF87D0001208DF87F001EA95248DB
:102A5000FDF7E8FF4FF480501E9002208DF87C00B7
:102A600000208DF87E0003208DF87D0001208DF878
:102A70007F001EA94948FDF7D5FF0C2200214448DC
:102A8000FEF75BF80C2201214148FEF756F80C22B4
:102A900004213F48FEF751F80C2205213C48FEF77F
:102AA0004CF80C2208213A48FEF747F80C2209217D
:102AB0003748FEF742F80C220A213548FEF73DF868
:102AC0000C220E213248FEF738F80C220F21304834
:102AD000FEF733F80C2207212E48FEF72EF80C22C1
:102AE00008212C48FEF729F80C2209212948FEF775
:102AF00024F80C220A212748FEF71FF80C220B218C
:102B00002448FEF71AF80C2211462248FEF715F861
:102B10000C220D211F48FEF710F80C220E211D4833
:102B2000FEF70BF80C220F211A48FEF706F80C22CC
:102B300011461948FEF701F80C2211461748FDF717
:102B4000FCFF0F2008900020099018200A90002018
:102B50000B900C900D900E90082001900020029098
:102B6000082003900020049005900690079006200E
:102B70000F900020109011901020129000201390C0
:102B800015900DE0FC0000208000006C0004024065
:102B9000000C0240001002400014024000180240E5
:102BA0001490169017904FF48050189000201990B0
:102BB0004FF480401A9000201B9008A81C9001A898
:102BC0001D900FA8FDF7DFFB01210620FDF766FC35
:102BD0003220FEF7BBFE01210020FEF7C0FF3220AD
:102BE000FEF7B4FE0020FFF7FDFBFE498880084693
:102BF0008088FF280ADB084680884FF6FF718842EC
:102C000004D0F8488088B0F5134F7CD1D320FEF76C
:102C1000BCFFFFF7E0FBF3498880FFF7DCFBF149DD
:102C20008880FFF7D8FBEF498880084680884FF6F8
:102C3000FF7101EA0020EB498880FFF7CCFBE949EE
:102C400089880843E74988800846808849F24131ED
:102C5000884278D0BF20FEF798FFFFF7BCFBE14920
:102C60008880FFF7B8FBDF498880FFF7B4FBDD49B8
:102C70008880FFF7B0FBDB498880084680884FF6E4
:102C8000FF7101EA0020D7498880FFF7A4FBD549EE
:102C900089880843D34988800846808846F604011D
:102CA000884250D0D420FEF770FFFFF794FBCD4947
:102CB0008880FFF790FBCB498880FFF78CFBC949E0
:102CC0008880084680884FF6FF7101EA0020C549D8
:102CD0008880FFF780FBC34989880843C149888001
:102CE0000846808845F2103188422CD04FF45A4073
:102CF000FEF74BFFFFF76FFBBA4988804FF45B404C
:102D0000FEF743FF00E01EE0FFF765FBB549888052
:102D1000084680884FF6FF7101EA0020B14988809B
:102D20004FF45C40FEF731FFFFF755FBAD49898852
:102D30000843AC49888008468088B0F5004F02D12E
:102D400045F210508880A748808849F24131884276
:102D50000BD0A448808845F21031884205D0A148A4
:102D6000808845F2105188421DD19F48006820F0AC
:102D70000F004FF02041C1F81C010846D0F81C019B
:102D800020F47060C1F81C010846D0F81C0140F026
:102D90000300C1F81C010846D0F81C0140F4007083
:102DA000C1F81C0128E08F48808846F6040188425B
:102DB00005D08C4880884CF2055188421CD18A4845
:102DC000006820F00F004FF02041C1F81C010846B8
:102DD000D0F81C0120F47060C1F81C010846D0F83E
:102DE0001C0140F00A00C1F81C010846D0F81C0183
:102DF00040F44060C1F81C017A48808849F24131B2
:102E000088427CD1CF20FEF7C0FE0020FEF7B3FE43
:102E10002098401C2090C120FEF7ADFE3020FEF728
:102E2000AAFEED20FEF7B1FE6420FEF7A4FE03200B
:102E3000FEF7A1FE1220FEF79EFE8120FEF79BFE0C
:102E4000E820FEF7A2FE8520FEF795FE1020FEF793
:102E500092FE7A20FEF78FFECB20FEF796FE3920F9
:102E6000FEF789FE2C20FEF786FE0020FEF783FE8B
:102E70003420FEF780FE0220FEF77DFEF720FEF7ED
:102E800084FE2020FEF777FEEA20FEF77EFE00207B
:102E9000FEF771FE0020FEF76EFEC020FEF775FE05
:102EA0001B20FEF768FEC120FEF76FFE0120FEF733
:102EB00062FEC520FEF769FE3020FEF75CFE302082
:102EC000FEF759FEC720FEF760FEB720FEF753FE5F
:102ED0003620FEF75AFE4820FEF74DFE3A20FEF758
:102EE00054FE5520FEF747FEB120FEF74EFE0020AF
:102EF000FEF741FE1A20FEF73EFEB62000E0A1E0FC
:102F0000FEF743FE0A20FEF736FEA220FEF733FE50
:102F1000F220FEF73AFE0020FEF72DFE2620FEF7F7
:102F200034FE0120FEF727FEE020FEF72EFE0F20E4
:102F3000FEF721FE2A20FEF71EFE2820FEF71BFECC
:102F40000820FEF718FE0E20FEF715FE0820FEF7FB
:102F500012FE5420FEF70FFEA920FEF70CFE4320C0
:102F6000FEF709FE0A20FEF706FE0F20FEF703FE1D
:102F70000020FEF700FE0020FEF7FDFD0020FEF71A
:102F8000FAFD0020FEF7F7FDE120FEF7FEFD002030
:102F9000FEF7F1FD1520FEF7EEFD1720FEF7EBFD25
:102FA0000720FEF7E8FD1120FEF7E5FD0620FEF7FD
:102FB000E2FD2B20FEF7DFFD5620FEF7DCFD3C2076
:102FC000FEF7D9FD0520FEF7D6FD1020FEF7D3FD54
:102FD0000F20FEF7D0FD3F20FEF7CDFD3F20FEF78E
:102FE000CAFD03E0FC0000201C0100A00F20FEF73A
:102FF000C2FD2B20FEF7C9FD0020FEF7BCFD00201E
:10300000FEF7B9FD0120FEF7B6FD3F20FEF7B3FD48
:103010002A20FEF7BAFD0020FEF7ADFD0020FEF7E6
:10302000AAFD0020FEF7A7FDEF20FEF7A4FD11206A
:10303000FEF7ABFD7820FEF789FC2920FEF7A5FD01
:1030400003F05CB8FE48808846F6040188427CD1D3
:103050001120FEF79AFD1420FEF778FCD020FEF731
:1030600094FD0720FEF787FD4220FEF784FD1D201A
:10307000FEF781FDD120FEF788FD0020FEF77BFDE5
:103080001A20FEF778FD0920FEF775FDD220FEF725
:103090007CFD0120FEF76FFD2220FEF76CFDC020B5
:1030A000FEF773FD1020FEF766FD3B20FEF763FD83
:1030B0000020FEF760FD0220FEF75DFD1120FEF707
:1030C0005AFDC520FEF761FD0320FEF754FDC82020
:1030D000FEF75BFD0020FEF74EFD2520FEF74BFDC1
:1030E0002120FEF748FD0520FEF745FD0020FEF7F4
:1030F00042FD0A20FEF73FFD6520FEF73CFD25203E
:10310000FEF739FD7720FEF736FD5020FEF733FD40
:103110000F20FEF730FD0020FEF72DFDF820FEF712
:1031200034FD0120FEF727FDFE20FEF72EFD0020D6
:10313000FEF721FD0220FEF71EFD2020FEF725FDF3
:103140003620FEF722FD082000E02CE0FEF713FDFC
:103150003A20FEF71AFD5520FEF70DFD2B20FEF755
:1031600014FD0020FEF707FD0020FEF704FD0120FE
:10317000FEF701FD3F20FEF7FEFC2A20FEF705FDCD
:103180000020FEF7F8FC0020FEF7F5FC0120FEF71A
:10319000F2FCDF20FEF7EFFC7820FEF7D7FB2920BA
:1031A000FEF7F3FC4CE7A648808845F210318842D0
:1031B00040F07C87ED20FEF7E8FC0120FEF7DBFC09
:1031C000FE20FEF7D8FCEE20FEF7DFFCDE20FEF747
:1031D000D2FC2120FEF7CFFCF120FEF7D6FC012027
:1031E000FEF7C9FCDF20FEF7D0FC1020FEF7C3FC81
:1031F000C420FEF7CAFC8F20FEF7BDFCC620FEF7F8
:10320000C4FC0020FEF7B7FCE220FEF7B4FCE2208D
:10321000FEF7B1FCE220FEF7AEFCBF20FEF7B5FCE6
:10322000AA20FEF7A8FCB020FEF7AFFC0D20FEF7A9
:10323000A2FC0020FEF79FFC0D20FEF79CFC002066
:10324000FEF799FC1120FEF796FC0020FEF793FC98
:103250001920FEF790FC0020FEF78DFC2120FEF7E0
:103260008AFC0020FEF787FC2D20FEF784FC00205E
:10327000FEF781FC3D20FEF77EFC0020FEF77BFC84
:103280005D20FEF778FC0020FEF775FC5D20FEF760
:1032900072FC0020FEF76FFCB120FEF776FC802068
:1032A000FEF769FC0020FEF766FC8B20FEF763FC4E
:1032B0000020FEF760FC9620FEF75DFC0020FEF784
:1032C0005AFCB220FEF761FC0020FEF754FC0020FF
:1032D000FEF751FC0220FEF74EFC0020FEF74BFCEF
:1032E0000320FEF748FC0020FEF745FCB320FEF764
:1032F0004CFC0020FEF73FFC0020FEF73CFC0020C9
:10330000FEF739FC0020FEF736FC0020FEF733FC08
:103310000020FEF730FC0020FEF72DFC0020FEF719
:103320002AFC0020FEF727FC0020FEF724FC0020EA
:10333000FEF721FC0020FEF71EFC0020FEF71BFC20
:103340000020FEF718FC0020FEF715FC0020FEF719
:1033500012FC0020FEF70FFC0020FEF70CFC002002
:10336000FEF709FC0020FEF706FC0020FEF703FC38
:103370000020FEF700FC0020FEF7FDFB0020FEF71A
:10338000FAFBB420FEF701FC8B20FEF7F4FB0020D3
:10339000FEF7F1FB9620FEF7EEFB0020FEF7EBFBBD
:1033A000A120FEF7E8FB0020FEF7E5FBB520FEF7C5
:1033B000ECFB0220FEF7DFFB0020FEF7DCFB032026
:1033C000FEF7D9FB0020FEF7D6FB0420FEF7D3FB67
:1033D0000020FEF7D0FBB620FEF7D7FB0020FEF75B
:1033E000CAFB0020FEF7C7FBB720FEF7CEFB00208C
:1033F000FEF7C1FB0020FEF7BEFB3F20FEF7BBFB44
:103400000020FEF7B8FB5E20FEF7B5FB0020FEF7BC
:10341000B2FB6420FEF7AFFB0020FEF7ACFB8C2074
:10342000FEF7A9FB0020FEF7A6FBAC20FEF7A3FBEE
:103430000020FEF7A0FBDC20FEF79DFB002001E052
:10344000FC000020FEF797FB7020FEF794FB0020A5
:10345000FEF791FB9020FEF78EFB0020FEF78BFB22
:10346000EB20FEF788FB0020FEF785FBDC20FEF753
:1034700082FB0020FEF77FFBB820FEF786FB0020D2
:10348000FEF779FB0020FEF776FB0020FEF773FBCA
:103490000020FEF770FB0020FEF76DFB0020FEF71A
:1034A0006AFB0020FEF767FB0020FEF764FBBA20F2
:1034B000FEF76BFB2420FEF75EFB0020FEF75BFBB4
:1034C0000020FEF758FB0020FEF755FBC120FEF759
:1034D0005CFB2020FEF74FFB0020FEF74CFB542046
:1034E000FEF749FB0020FEF746FBFF20FEF743FBFB
:1034F0000020FEF740FBC220FEF747FB0A20FEF744
:103500003AFB0020FEF737FB0420FEF734FB0020D7
:10351000FEF731FBC320FEF738FB3C20FEF72BFB08
:103520000020FEF728FB3A20FEF725FB0020FEF7DF
:1035300022FB3920FEF71FFB0020FEF71CFB372083
:10354000FEF719FB0020FEF716FB3C20FEF713FBED
:103550000020FEF710FB3620FEF70DFB0020FEF7E3
:103560000AFB3220FEF707FB0020FEF704FB2F20AA
:10357000FEF701FB0020FEF7FEFA2C20FEF7FBFA17
:103580000020FEF7F8FA2920FEF7F5FA0020FEF7F2
:10359000F2FA2620FEF7EFFA0020FEF7ECFA2420DC
:1035A000FEF7E9FA0020FEF7E6FA2420FEF7E3FA38
:1035B0000020FEF7E0FA2320FEF7DDFA0020FEF7F8
:1035C000DAFA3C20FEF7D7FA0020FEF7D4FA3620CC
:1035D000FEF7D1FA0020FEF7CEFA3220FEF7CBFA42
:1035E0000020FEF7C8FA2F20FEF7C5FA0020FEF7EC
:1035F000C2FA2C20FEF7BFFA0020FEF7BCFA292001
:10360000FEF7B9FA0020FEF7B6FA2620FEF7B3FA65
:103610000020FEF7B0FA2420FEF7ADFA0020FEF7F6
:10362000AAFA2420FEF7A7FA0020FEF7A4FA232026
:10363000FEF7A1FA0020FEF79EFAC420FEF7A5FAD5
:103640006220FEF798FA0020FEF795FA0520FEF7B3
:1036500092FA0020FEF78FFA8420FEF78CFA002001
:10366000FEF789FAF020FEF786FA0020FEF783FACB
:103670001820FEF780FA0020FEF77DFAA420FEF75E
:103680007AFA0020FEF777FA1820FEF774FA002085
:10369000FEF771FA5020FEF76EFA0020FEF76BFA83
:1036A0000C20FEF768FA0020FEF765FA1720FEF7F7
:1036B00062FA0020FEF75FFA9520FEF75CFA002020
:1036C000FEF759FAF320FEF756FA0020FEF753FAF8
:1036D000E620FEF750FA0020FEF74DFAC520FEF76F
:1036E00054FA3220FEF747FA0020FEF744FA44204D
:1036F000FEF741FA0020FEF73EFA6520FEF73BFA9E
:103700000020FEF738FA7620FEF735FA0020FEF7A3
:1037100032FA8820FEF72FFA0020FEF72CFAC62096
:10372000FEF733FA2020FEF726FA0020FEF723FAF0
:103730001720FEF720FA0020FEF71DFA0120FEF701
:103740001AFA0020FEF717FAC720FEF71EFA00202B
:10375000FEF711FA0020FEF70EFA0020FEF70BFA32
:103760000020FEF708FAC820FEF70FFA0020FEF747
:1037700002FA0020FEF7FFF90020FEF7FCF9002016
:10378000FEF7F9F9C920FEF700FA0020FEF7F3F979
:103790000020FEF7F0F90020FEF7EDF90020FEF71B
:1037A000EAF90020FEF7E7F90020FEF7E4F900202F
:1037B000FEF7E1F90020FEF7DEF90020FEF7DBF965
:1037C0000020FEF7D8F90020FEF7D5F90020FEF71B
:1037D000D2F90020FEF7CFF90020FEF7CCF9002047
:1037E000FEF7C9F90020FEF7C6F9E020FEF7CDF993
:1037F0001620FEF7C0F90020FEF7BDF91C20FEF7E9
:10380000BAF90020FEF7B7F92120FEF7B4F900203D
:10381000FEF7B1F93620FEF7AEF90020FEF7ABF95E
:103820004620FEF7A8F90020FEF7A5F95220FEF782
:10383000A2F90020FEF79FF96420FEF79CF9002012
:10384000FEF799F97A20FEF796F90020FEF793F932
:103850008B20FEF790F90020FEF78DF99920FEF7F6
:103860008AF90020FEF787F9A820FEF784F90020E6
:10387000FEF781F9B920FEF77EF90020FEF77BF90B
:10388000C420FEF778F90020FEF775F9CA20FEF78C
:1038900072F90020FEF76FF9D220FEF76CF90020D4
:1038A000FEF769F9D920FEF766F90020FEF763F903
:1038B000E020FEF760F90020FEF75DF9F320FEF747
:1038C0005AF90020FEF757F9E120FEF75EF91620BD
:1038D000FEF751F90020FEF74EF91C20FEF74BF9D8
:1038E0000020FEF748F92220FEF745F90020FEF7F8
:1038F00042F93620FEF73FF90020FEF73CF945205B
:10390000FEF739F90020FEF736F95220FEF733F9B9
:103910000020FEF730F96420FEF72DF90020FEF7B5
:103920002AF97A20FEF727F90020FEF724F98B20E8
:10393000FEF721F90020FEF71EF99920FEF71BF98A
:103940000020FEF718F9A820FEF715F90020FEF771
:1039500012F9B920FEF70FF90020FEF70CF9C42088
:10396000FEF709F90020FEF706F9CA20FEF703F971
:103970000020FEF700F9D220FEF7FDF80020FEF748
:10398000FAF8D820FEF7F7F80020FEF7F4F8E02068
:10399000FEF7F1F80020FEF7EEF8F320FEF7EBF863
:1039A0000020FEF7E8F8E220FEF7EFF80520FEF72A
:1039B000E2F80020FEF7DFF80B20FEF7DCF800202D
:1039C000FEF7D9F81B20FEF7D6F80020FEF7D3F853
:1039D0003420FEF7D0F80020FEF7CDF84420FEF7A3
:1039E000CAF80020FEF7C7F84F20FEF7C4F8002001
:1039F000FEF7C1F86120FEF7BEF80020FEF7BBF825
:103A00007920FEF7B8F80020FEF7B5F88820FEF719
:103A1000B2F80020FEF7AFF89720FEF7ACF80020D0
:103A2000FEF7A9F8A620FEF7A6F80020FEF7A3F8F7
:103A3000B720FEF7A0F80020FEF79DF8C220FEF7A1
:103A40009AF80020FEF797F8C720FEF794F80020B8
:103A5000FEF791F8D120FEF78EF80020FEF78BF8E4
:103A6000D620FEF788F80020FEF785F8DD20FEF767
:103A700082F80020FEF77FF8F320FEF77CF80020A4
:103A8000FEF779F8E320FEF780F80520FEF773F8DB
:103A90000020FEF770F80A20FEF76DF80020FEF710
:103AA0006AF81C20FEF767F80020FEF764F8332060
:103AB000FEF761F80020FEF75EF84420FEF75BF8A1
:103AC0000020FEF758F85020FEF755F80020FEF7CA
:103AD00052F86220FEF74FF80020FEF74CF87820ED
:103AE000FEF749F80020FEF746F88820FEF743F875
:103AF0000020FEF740F89720FEF73DF80020FEF783
:103B00003AF8A620FEF737F80020FEF734F8B72081
:103B1000FEF731F80020FEF72EF8C220FEF72BF852
:103B20000020FEF728F8C720FEF725F80020FEF752
:103B300022F8D120FEF71FF80020FEF71CF8D52050
:103B4000FEF719F80020FEF716F8DD20FEF713F84F
:103B50000020FEF710F8F320FEF70DF80020FEF726
:103B60000AF8E420FEF711F80120FEF704F800201F
:103B7000FEF701F80120FDF7FEFF0020FDF7FBFF37
:103B80000220FDF7F8FF0020FDF7F5FF2A20FDF7E2
:103B9000F2FF0020FDF7EFFF3C20FDF7ECFF0020D7
:103BA000FDF7E9FF4B20FDF7E6FF0020FDF7E3FFFF
:103BB0005D20FDF7E0FF0020FDF7DDFF7420FDF73D
:103BC000DAFF0020FDF7D7FF8420FDF7D4FF0020A7
:103BD000FDF7D1FF9320FDF7CEFF0020FDF7CBFFCF
:103BE000A220FDF7C8FF0020FDF7C5FFB320FDF7B9
:103BF000C2FF0020FDF7BFFFBE20FDF7BCFF002085
:103C0000FDF7B9FFC420FDF7B6FF0020FDF7B3FFB5
:103C1000CD20FDF7B0FF0020FDF7ADFFD320FDF76D
:103C2000AAFF0020FDF7A7FFDD20FDF7A4FF00207D
:103C3000FDF7A1FFF320FDF79EFF0020FDF79BFF9E
:103C4000E520FDF7A2FF0020FDF795FF0020FDF71E
:103C500092FF0020FDF78FFF0020FDF78CFF022070
:103C6000FDF789FF0020FDF786FF2920FDF783FF80
:103C70000020FDF780FF3C20FDF77DFF0020FDF7D1
:103C80007AFF4B20FDF777FF0020FDF774FF5D20E2
:103C9000FDF771FF0020FDF76EFF7420FDF76BFF4D
:103CA0000020FDF768FF8420FDF765FF0020FDF789
:103CB00062FF9320FDF75FFF0020FDF75CFFA2206D
:103CC000FDF759FF0020FDF756FFB320FDF753FF26
:103CD0000020FDF750FFBE20FDF74DFF0020FDF74F
:103CE0004AFFC420FDF747FF0020FDF744FFCD2029
:103CF000FDF741FF0020FDF73EFFD320FDF73BFF1E
:103D00000020FDF738FFDC20FDF735FF0020FDF730
:103D100032FFF320FDF72FFF0020FDF72CFFE620F8
:103D2000FDF733FF1120FDF726FF0020FDF723FFED
:103D30003420FDF720FF0020FDF71DFF5620FDF782
:103D40001AFF0020FDF717FF7620FDF714FF002073
:103D5000FDF711FF7720FDF70EFF0020FDF70BFFA9
:103D60006620FDF708FF0020FDF705FF8820FDF71E
:103D700002FF0020FDF7FFFE9920FDF7FCFE00206A
:103D8000FDF7F9FEBB20FDF7F6FE0020FDF7F3FE80
:103D90009920FDF7F0FE0020FDF7EDFE6620FDF70F
:103DA000EAFE0020FDF7E7FE5520FDF7E4FE0020C7
:103DB000FDF7E1FE5520FDF7DEFE0020FDF7DBFEFE
:103DC0004520FDF7D8FE0020FDF7D5FE4320FDF786
:103DD000D2FE0020FDF7CFFE4420FDF7CCFE0020F0
:103DE000FDF7C9FEE720FDF7D0FE3220FDF7C3FE48
:103DF0000020FDF7C0FE5520FDF7BDFE0020FDF7B9
:103E0000BAFE7620FDF7B7FE0020FDF7B4FE66206F
:103E1000FDF7B1FE0020FDF7AEFE6720FDF7ABFE1B
:103E20000020FDF7A8FE6720FDF7A5FE0020FDF7A6
:103E3000A2FE8720FDF79FFE0020FDF79CFE992043
:103E4000FDF799FE0020FDF796FEBB20FDF793FEDF
:103E50000020FDF790FE9920FDF78DFE0020FDF774
:103E60008AFE7720FDF787FE0020FDF784FE4420C0
:103E7000FDF781FE0020FDF77EFE5620FDF77BFE5C
:103E80000020FDF778FE2320FDF775FE0020FDF7EA
:103E900072FE3320FDF76FFE0020FDF76CFE45201B
:103EA000FDF769FE0020FDF766FEE820FDF76DFED8
:103EB0000020FDF760FE0020FDF75DFE9920FDF774
:103EC0005AFE0020FDF757FE8720FDF754FE002024
:103ED000FDF751FE8820FDF74EFE0020FDF74BFE5A
:103EE0007720FDF748FE0020FDF745FE6620FDF730
:103EF00042FE0020FDF73FFE8820FDF73CFE00203B
:103F0000FDF739FEAA20FDF736FE0020FDF733FE4F
:103F1000BB20FDF730FE0020FDF72DFE9920FDF7B8
:103F20002AFE0020FDF727FE6620FDF724FE002074
:103F3000FDF721FE5520FDF71EFE0020FDF71BFEBC
:103F40005520FDF718FE0020FDF715FE4420FDF773
:103F500012FE0020FDF70FFE4420FDF70CFE0020AE
:103F6000FDF709FE5520FDF706FE0020FDF703FED4
:103F7000E920FDF70AFEAA20FDF7FDFD0020FDF770
:103F8000FAFD0020FDF7F7FD0020FDF7F4FD00200D
:103F9000FDF7FBFDAA20FDF7EEFDCF20FDF7F5FDB7
:103FA0000020FDF7E8FD0020FDF7E5FD0020FDF70E
:103FB000E2FD0020FDF7DFFD0020FDF7DCFD002025
:103FC000FDF7D9FD0020FDF7D6FD0020FDF7D3FD5C
:103FD0000020FDF7D0FD0020FDF7CDFD0020FDF70E
:103FE000CAFD0020FDF7C7FD0020FDF7C4FD00203D
:103FF000FDF7C1FD0020FDF7BEFD0020FDF7BBFD74
:104000000020FDF7B8FDF020FDF7BFFD0020FDF713
:10401000B2FD5020FDF7AFFD0020FDF7ACFD002004
:10402000FDF7A9FD0020FDF7A6FDF320FDF7ADFD8E
:104030000020FDF7A0FDF920FDF7A7FD0620FDF704
:104040009AFD1020FDF797FD2920FDF794FD002033
:10405000FDF791FD3A20FDF798FD5520FDF78BFD0A
:104060001120FDF792FD6420FDF770FC2920FDF77B
:104070008CFD3520FDF789FD0020FDF77CFD5120EA
:10408000FDF783FDFF20FDF776FD5320FDF77DFD55
:104090002C20FDF770FD5520FDF777FD8220FDF700
:1040A0006AFD2C20FDF771FD02F028B8FE488088DB
:1040B00045F2105188427DD155214FF47040FDF7F3
:1040C0004EFDAA214FF20100FDF749FD52214FF2AA
:1040D0000200FDF744FD08214FF20300FDF73FFD0C
:1040E00001214FF20400FDF73AFD0D214FF430405D
:1040F000FDF735FD0D214BF20100FDF730FD0D21DF
:104100004BF20200FDF72BFD34214FF43640FDF752
:1041100026FD34214BF20160FDF721FD34214BF2E5
:104120000260FDF71CFD0D214FF43140FDF717FD36
:104130000D214BF20110FDF712FD0D214BF2021083
:10414000FDF70DFD34214FF43740FDF708FD342114
:104150004BF20170FDF703FD34214BF20270FDF7C5
:10416000FEFC00214FF43240FDF7F9FC00214BF238
:104170000120FDF7F4FC00214BF20220FDF7EFFCDB
:1041800024214FF43840FDF7EAFC24214BF60100CE
:10419000FDF7E5FC24214BF60200FDF7E0FC0121D0
:1041A0004FF43F40FDF7DBFC0F214FF43340FDF7A8
:1041B000D6FC00E0FDE30F214BF20130FDF7CFFC10
:1041C0000F214BF20230FDF7CAFC34214FF4394085
:1041D000FDF7C5FC34214BF60110FDF7C0FC34217E
:1041E0004BF60210FDF7BBFC08214FF43540FDF7FC
:1041F000B6FC08214BF20150FDF7B1FC08214BF24F
:104200000250FDF7ACFC03214FF44240FDF7A7FC40
:1042100024214FF43A40FDF7A2FC24214BF6012063
:10422000FDF79DFC24214BF60220FDF798FC0021B0
:104230004FF43C40FDF793FC78214BF60140FDF72D
:104240008EFC00214BF60240FDF789FC00214FF463
:104250003D40FDF784FC78214BF60150FDF77FFCD3
:1042600000214BF60250FDF77AFC00214FF43E404E
:10427000FDF775FC64214BF60160FDF770FC002131
:104280004FF45140FDF76BFC33214DF20110FDF767
:1042900066FC00214DF20210FDF761FC34214DF265
:1042A0000310FDF75CFC00214DF20410FDF757FCF4
:1042B0003A214DF20510FDF752FC00214DF2061097
:1042C000FDF74DFC4A214DF20710FDF748FC002197
:1042D0004DF20810FDF743FC5C214DF20910FDF78B
:1042E0003EFC00214DF20A10FDF739FC81214DF210
:1042F0000B10FDF734FC00214DF20C10FDF72FFCE4
:10430000A6214DF20D10FDF72AFC00214DF20E10F2
:10431000FDF725FCE5214DF20F10FDF720FC0121F2
:104320004DF21010FDF71BFC13214DF21110FDF79B
:1043300016FC01214DF21210FDF711FC54214DF233
:104340001310FDF70CFC01214DF21410FDF707FCD2
:1043500082214DF21510FDF702FC01214DF21610DD
:10436000FDF7FDFBCA214DF21710FDF7F8FB022106
:104370004DF21810FDF7F3FB00214DF21910FDF777
:10438000EEFB02214DF21A10FDF7E9FB01214DF27F
:104390001B10FDF7E4FB02214DF21C10FDF7DFFBC3
:1043A00034214DF21D10FDF7DAFB02214DF21E10F3
:1043B000FDF7D5FB67214DF21F10FDF7D0FB022161
:1043C0004DF22010FDF7CBFB84214DF22110FDF7BB
:1043D000C6FB02214DF22210FDF7C1FBA4214DF2D4
:1043E0002310FDF7BCFB02214DF22410FDF7B7FBB3
:1043F000B7214DF22510FDF7B2FB02214DF2261038
:10440000FDF7ADFBCF214DF22710FDF7A8FB0221F0
:104410004DF22810FDF7A3FBDE214DF22910FDF728
:104420009EFB02214DF22A10FDF799FBF2214DF27D
:104430002B10FDF794FB02214DF22C10FDF78FFBA2
:10444000FE214DF22D10FDF78AFB03214DF22E10B7
:10445000FDF785FB10214DF22F10FDF780FB0321A6
:104460004DF23010FDF77BFB33214DF23110FDF79B
:1044700076FB03214DF23210FDF771FB6D214DF2F9
:104480003310FDF76CFB00214FF45240FDF767FB42
:1044900033214DF20120FDF762FB00214DF2022095
:1044A000FDF75DFB342101E0FC0000204DF203200C
:1044B000FDF755FB00214DF20420FDF750FB3A219A
:1044C0004DF20520FDF74BFB00214DF20620FDF7D4
:1044D00046FB4A214DF20720FDF741FB00214DF23A
:1044E0000820FDF73CFB5C214DF20920FDF737FB6E
:1044F00000214DF20A20FDF732FB81214DF20B2005
:10450000FDF72DFB00214DF20C20FDF728FBA62125
:104510004DF20D20FDF723FB00214DF20E20FDF79B
:104520001EFBE5214DF20F20FDF719FB01214DF295
:104530001020FDF714FB13214DF21120FDF70FFBA6
:1045400001214DF21220FDF70AFB54214DF21320F8
:10455000FDF705FB01214DF21420FDF700FB822140
:104560004DF21520FDF7FBFA01214DF21620FDF763
:10457000F6FACA214DF21720FDF7F1FA02214DF2A9
:104580001820FDF7ECFA00214DF21920FDF7E7FAAB
:1045900002214DF21A20FDF7E2FA01214DF21B2013
:1045A000FDF7DDFA02214DF21C20FDF7D8FA342187
:1045B0004DF21D20FDF7D3FA02214DF21E20FDF72A
:1045C000CEFA67214DF21F20FDF7C9FA02214DF204
:1045D0002020FDF7C4FA84214DF22120FDF7BFFA17
:1045E00002214DF22220FDF7BAFAA4214DF2232038
:1045F000FDF7B5FA02214DF22420FDF7B0FAB721FC
:104600004DF22520FDF7ABFA02214DF22620FDF7F1
:10461000A6FACF214DF22720FDF7A1FA02214DF293
:104620002820FDF79CFADE214DF22920FDF797FAAC
:1046300002214DF22A20FDF792FAF2214DF22B20B1
:10464000FDF78DFA02214DF22C20FDF788FAFE21AC
:104650004DF22D20FDF783FA03214DF22E20FDF7B8
:104660007EFA10214DF22F20FDF779FA03214DF249
:104670003020FDF774FA33214DF23120FDF76FFA47
:1046800003214DF23220FDF76AFA6D214DF23320FD
:10469000FDF765FA00214FF45340FDF760FA33212E
:1046A0004DF20130FDF75BFA00214DF20230FDF7CB
:1046B00056FA34214DF20330FDF751FA00214DF244
:1046C0000430FDF74CFA3A214DF20530FDF747FA78
:1046D00000214DF20630FDF742FA4A214DF2073033
:1046E000FDF73DFA00214DF20830FDF738FA5C2164
:1046F0004DF20930FDF733FA00214DF20A30FDF793
:104700002EFA81214DF20B30FDF729FA00214DF2EE
:104710000C30FDF724FAA6214DF20D30FDF71FFAFB
:1047200000214DF20E30FDF71AFAE5214DF20F305F
:10473000FDF715FA01214DF21030FDF710FA1321A3
:104740004DF21130FDF70BFA01214DF21230FDF759
:1047500006FA54214DF21330FDF701FA01214DF212
:104760001430FDF7FCF982214DF21530FDF7F7F911
:1047700001214DF21630FDF7F2F9CA214DF2173042
:10478000FDF7EDF902214DF21830FDF7E8F90021AF
:104790004DF21930FDF7E3F902214DF21A30FDF721
:1047A000DEF901214DF21B30FDF7D9F902214DF25E
:1047B0001C30FDF7D4F934214DF21D30FDF7CFF94F
:1047C00002214DF21E30FDF7CAF967214DF21F306C
:1047D000FDF7C5F902214DF22030FDF7C0F9842123
:1047E0004DF22130FDF7BBF902214DF22230FDF7E9
:1047F000B6F9A4214DF22330FDF7B1F902214DF2B3
:104800002430FDF7ACF9B7214DF22530FDF7A7F9BB
:1048100002214DF22630FDF7A2F9CF214DF22730CB
:10482000FDF79DF902214DF22830FDF798F9DE21C0
:104830004DF22930FDF793F902214DF22A30FDF7B0
:104840008EF9F2214DF22B30FDF789F902214DF25C
:104850002C30FDF784F9FE214DF22D30FDF77FF964
:1048600003214DF22E30FDF77AF910214DF22F3051
:10487000FDF775F903214DF23030FDF770F9332162
:104880004DF23130FDF76BF903214DF23230FDF777
:1048900066F96D214DF23330FDF761F900214FF4D7
:1048A0005440FDF75CF933214DF20140FDF757F913
:1048B00000214DF20240FDF752F934214DF2034040
:1048C000FDF74DF900214DF20440FDF748F93A217A
:1048D0004DF20540FDF743F900214DF20640FDF78A
:1048E0003EF94A214DF20740FDF739F900214DF21A
:1048F0000840FDF734F95C214DF20940FDF72FF92E
:1049000000214DF20A40FDF72AF981214DF20B40BA
:10491000FDF725F900214DF20C40FDF720F9A62105
:104920004DF20D40FDF71BF900214DF20E40FDF751
:1049300016F9E5214DF20F40FDF711F901214DF275
:104940001040FDF70CF913214DF21140FDF707F966
:1049500001214DF21240FDF702F954214DF21340AE
:10496000FDF7FDF801214DF21440FDF7F8F8822122
:104970004DF21540FDF7F3F801214DF21640FDF719
:10498000EEF8CA214DF21740FDF7E9F802214DF289
:104990001840FDF7E4F800214DF21940FDF7DFF86B
:1049A00002214DF21A40FDF7DAF801214DF21B40C9
:1049B00000E006E3FDF7D3F802214DF21C40FDF7BD
:1049C000CEF834214DF21D40FDF7C9F802214DF219
:1049D0001E40FDF7C4F867214DF21F40FDF7BFF8F8
:1049E00002214DF22040FDF7BAF884214DF221401A
:1049F000FDF7B5F802214DF22240FDF7B0F8A421F1
:104A00004DF22340FDF7ABF802214DF22440FDF7B3
:104A1000A6F8B7214DF22540FDF7A1F802214DF28D
:104A20002640FDF79CF8CF214DF22740FDF797F87F
:104A300002214DF22840FDF792F8DE214DF2294087
:104A4000FDF78DF802214DF22A40FDF788F8F2219A
:104A50004DF22B40FDF783F802214DF22C40FDF77B
:104A60007EF8FE214DF22D40FDF779F803214DF23D
:104A70002E40FDF774F810214DF22F40FDF76FF82E
:104A800003214DF23040FDF76AF833214DF23140F9
:104A9000FDF765F803214DF23240FDF760F86D2116
:104AA0004DF23340FDF75BF800214FF45540FDF720
:104AB00056F833214DF20150FDF751F800214DF227
:104AC0000250FDF74CF834214DF20350FDF747F842
:104AD00000214DF20450FDF742F83A214DF2055005
:104AE000FDF73DF800214DF20650FDF738F84A2158
:104AF0004DF20750FDF733F800214DF20850FDF755
:104B00002EF85C214DF20950FDF729F800214DF2F5
:104B10000A50FDF724F881214DF20B50FDF71FF8E4
:104B200000214DF20C50FDF71AF8A6214DF20D5060
:104B3000FDF715F800214DF20E50FDF710F8E521B4
:104B40004DF20F50FDF70BF801214DF21050FDF71B
:104B500006F813214DF21150FDF701F801214DF235
:104B60001250FCF7FCFF54214DF21350FCF7F7FFF5
:104B700001214DF21450FCF7F2FF82214DF2155045
:104B8000FCF7EDFF01214DF21650FCF7E8FFCA21BA
:104B90004DF21750FCF7E3FF02214DF21850FCF7DD
:104BA000DEFF00214DF21950FCF7D9FF02214DF232
:104BB0001A50FCF7D4FF01214DF21B50FCF7CFFF38
:104BC00002214DF21C50FCF7CAFF34214DF21D505A
:104BD000FCF7C5FF02214DF21E50FCF7C0FF672114
:104BE0004DF21F50FCF7BBFF02214DF22050FCF7A5
:104BF000B6FF84214DF22150FCF7B1FF02214DF2A6
:104C00002250FCF7ACFFA4214DF22350FCF7A7FF84
:104C100002214DF22450FCF7A2FFB7214DF225509E
:104C2000FCF79DFF02214DF22650FCF798FFCF21A3
:104C30004DF22750FCF793FF02214DF22850FCF76C
:104C40008EFFDE214DF22950FCF789FF02214DF243
:104C50002A50FCF784FFF2214DF22B50FCF77FFF26
:104C600002214DF22C50FCF77AFFFE214DF22D501F
:104C7000FCF775FF03214DF22E50FCF770FF102159
:104C80004DF22F50FCF76BFF03214DF23050FCF733
:104C900066FF33214DF23150FCF761FF03214DF2E5
:104CA0003250FCF75CFF6D214DF23350FCF757FF9B
:104CB00000214FF45640FCF752FF33214DF20160C2
:104CC000FCF74DFF00214DF20260FCF748FF342154
:104CD0004DF20360FCF743FF00214DF20460FCF746
:104CE0003EFF3A214DF20560FCF739FF00214DF2FD
:104CF0000660FCF734FF4A214DF20760FCF72FFFF6
:104D000000214DF20860FCF72AFF5C214DF209609A
:104D1000FCF725FF00214DF20A60FCF720FF8121FE
:104D20004DF20B60FCF71BFF00214DF20C60FCF70D
:104D300016FFA6214DF20D60FCF711FF00214DF288
:104D40000E60FCF70CFFE5214DF20F60FCF707FF4A
:104D500001214DF21060FCF702FF13214DF21160AA
:104D6000FCF7FDFE01214DF21260FCF7F8FE542124
:104D70004DF21360FCF7F3FE01214DF21460FCF7D5
:104D8000EEFE82214DF21560FCF7E9FE01214DF2A5
:104D90001660FCF7E4FECA214DF21760FCF7DFFE57
:104DA00002214DF21860FCF7DAFE00214DF2196085
:104DB000FCF7D5FE02214DF21A60FCF7D0FE01216E
:104DC0004DF21B60FCF7CBFE02214DF21C60FCF79C
:104DD000C6FE34214DF21D60FCF7C1FE02214DF2EA
:104DE0001E60FCF7BCFE67214DF21F60FCF7B7FEAA
:104DF00002214DF22060FCF7B2FE84214DF22160C9
:104E0000FCF7ADFE02214DF22260FCF7A8FEA421C2
:104E10004DF22360FCF7A3FE02214DF22460FCF763
:104E20009EFEB7214DF22560FCF799FE02214DF25E
:104E30002660FCF794FECF214DF22760FCF78FFE31
:104E400002214DF22860FCF78AFEDE214DF2296036
:104E5000FCF785FE02214DF22A60FCF780FEF2216C
:104E60004DF22B60FCF77BFE02214DF22C60FCF72B
:104E700076FEFE214DF22D60FCF771FE03214DF20E
:104E80002E60FCF76CFE10214DF22F60FCF767FEE0
:104E900003214DF23060FCF762FE33214DF23160A8
:104EA000FCF75DFE03214DF23260FCF758FE6D21E8
:104EB0004DF23360FCF753FE55214FF47040FCF780
:104EC0004EFEAA214FF20100FCF749FE52214FF29B
:104ED0000200FCF744FE08214FF20300FCF73FFEFE
:104EE00000214FF20400FCF73AFECC214FF4314090
:104EF000FCF735FE00214BF20110FCF730FE0521D6
:104F00004FF43640FCF72BFE70214FF43740FCF78E
:104F100026FE70214BF20170FCF721FE01214FF4B7
:104F20003840FCF71CFE03214BF60100FCF717FE8E
:104F300003214BF60200FCF712FE03214BF603009F
:104F4000FCF70DFE02214FF43C40FCF708FE002167
:104F50004BF60140FCF703FE00214BF60240FCF744
:104F6000FEFDD0214FF44940FCF7F9FD02214CF63B
:104F70000110FCF7F4FD50214CF60210FCF7EFFD98
:104F800050214CF60310FCF7EAFD50214CF60410BA
:104F9000FCF7E5FD00214FF45450FCF7E0FD5521EE
:104FA0004FF46850FCF7DBFD4FF48850FCF7EDFD43
:104FB0007820FCF783FC4FF42450FCF7E6FD01F069
:104FC0009DB8FE48808849F2253188427ED147F657
:104FD000F001E520FCF7C3FD4FF480710120FCF7E0
:104FE000BEFD4FF4E0610220FCF7B9FD41F2300153
:104FF0000320FCF7B4FD00210420FCF7B0FD40F2D3
:1050000002210820FCF7ABFD00210920FCF7A7FDD9
:1050100000210A20FCF7A3FD00210C20FCF79FFDD6
:1050200000210D20FCF79BFD00210F20FCF797FDD0
:1050300000211020FCF793FD07211120FCF78FFDC4
:1050400000211220FCF78BFD00211320FCF787FDC7
:1050500000210720FCF783FD41F290611020FCF74E
:105060007EFD40F227211120FCF779FD9D211220C1
:10507000FCF775FD4FF4C8511320FCF770FD252196
:105080002920FCF76CFD0D212B20FCF768FD072182
:105090003020FCF764FD40F203313120FCF75FFD66
:1050A00003213220FCF75BFD40F206213520FCF79E
:1050B00056FD08213620FCF752FD40F2064137200C
:1050C000FCF74DFD4FF44171382000E057E0FCF74C
:1050D00046FD07213920FCF742FD40F202613C20E9
:1050E000FCF73DFD08213D20FCF739FD0021502053
:1050F000FCF735FDEF215120FCF731FD0021522056
:10510000FCF72DFD40F23F115320FCF728FD4FF432
:1051100027416020FCF723FD01216120FCF71FFDE2
:1051200000216A20FCF71BFD00218020FCF717FD01
:1051300000218120FCF713FD00218220FCF70FFDE8
:1051400000218320FCF70BFD00218420FCF707FDE4
:1051500000218520FCF703FD10219020FCF7FFFCC7
:105160004FF4C0619220FCF7FAFC40F233110720A3
:10517000FCF7F5FC22210020FCF7F1FC1FE78F482B
:10518000808849F2283188427ED141F28F01EC209B
:10519000FCF7E5FC41F23421EF20FCF7E0FC4FF492
:1051A00080710120FCF7DBFC4FF4E0610220FCF78A
:1051B000D6FC41F230010320FCF7D1FC0021042091
:1051C000FCF7CDFC40F202210820FCF7C8FC0021CE
:1051D0000920FCF7C4FC00210A20FCF7C0FC0121D7
:1051E0000C20FCF7BCFC00210D20FCF7B8FC0021D2
:1051F0000F20FCF7B4FC00211020FCF7B0FC0721C5
:105200001120FCF7ACFC00211220FCF7A8FC0021C7
:105210001320FCF7A4FC01210720FCF7A0FC32209E
:10522000FCF794FB41F290411020FCF798FC40F20F
:1052300027211120FCF793FC3220FCF787FB8A2101
:105240001220FCF78CFC3220FCF780FB4FF4D0518D
:105250001320FCF784FC06212920FCF780FC0D219B
:105260002B20FCF77CFC3220FCF770FB0021202077
:10527000FCF775FC00212120FCF771FC3220FCF7C3
:1052800065FB0021302000E074E0FCF768FC40F290
:1052900004613120FCF763FC40F205313220FCF759
:1052A0005EFC00213520FCF75AFC40F6094136200F
:1052B000FCF755FC4FF401713720FCF750FC40F22D
:1052C00001313820FCF74BFC40F207713920FCF724
:1052D00046FC00213C20FCF742FC40F60A213D2020
:1052E000FCF73DFC3220FCF731FB00215020FCF79D
:1052F00036FCEF215120FCF732FC00215220FCF754
:105300002EFC40F23F115320FCF729FC4FF42741BB
:105310006020FCF724FC01216120FCF720FC002127
:105320006A20FCF71CFC00218020FCF718FC0021FF
:105330008120FCF714FC00218220FCF710FC0021E6
:105340008320FCF70CFC00218420FCF708FC0021E2
:105350008520FCF704FC10219020FCF700FC4FF4A2
:10536000C0619220FCF7FBFB40F233110720FCF7F1
:10537000F6FB24E61148808849F2203188427DD12D
:1053800000210846FCF7EBFB4FF480710120FCF78D
:10539000E6FB4FF4E0610220FCF7E1FB41F2300153
:1053A0000320FCF7DCFB00210420FCF7D8FB40F2D3
:1053B00002210820FCF7D3FB002101E0FC000020C3
:1053C0000920FCF7CCFB00210A20FCF7C8FB0121D7
:1053D0000C20FCF7C4FB00210D20FCF7C0FB0021D2
:1053E0000F20FCF7BCFB3220FCF7B0FA40F20111B1
:1053F0000720FCF7B4FB3220FCF7A8FA4FF48651E3
:105400001020FCF7ACFB07211120FCF7A8FB4FF4A0
:1054100088711220FCF7A3FB4FF430611320FCF7D6
:105420009EFB00212920FCF79AFB44F210012B205F
:10543000FCF795FB00215020FCF791FBEF21512058
:10544000FCF78DFB00215220FCF789FB40F23F1155
:105450005320FCF784FB4FF41C516020FCF77FFBCA
:1054600001216120FCF77BFB00216A20FCF777FB20
:1054700000218020FCF773FB002100E031E0812057
:10548000FCF76DFB00218220FCF769FB00218320E3
:10549000FCF765FB00218420FCF761FB00218520DF
:1054A000FCF75DFB10219020FCF759FB00219220B6
:1054B000FCF755FB01219320FCF751FB4FF4887159
:1054C0009520FCF74CFB00219720FCF748FB0021BE
:1054D0009820FCF744FB40F273110720FCF73FFBD8
:1054E0006DE5FE48808849F2313188427DD141F234
:1054F0001401E720FCF733FB4FF480710120FCF727
:105500002EFB4FF400710220FCF729FB41F2380119
:105510000320FCF724FB40F202210820FCF71FFBCC
:1055200000210920FCF71BFB00210A20FCF717FBD8
:1055300000210C20FCF713FB00210D20FCF70FFBD2
:1055400000210F20FCF70BFB00211020FCF707FBCC
:1055500007211120FCF703FB00211220FCF7FFFAC2
:1055600000211320FCF7FBFAC820FCF7EFF941F209
:1055700090611020FCF7F3FA40F227211120FCF78C
:10558000EEFA3220FCF7E2F90C211220FCF7E7FAE0
:105590003220FCF7DBF94FF400611320FCF7DFFA4F
:1055A00011212920FCF7DBFA0B212B20FCF7D7FA7D
:1055B0003220FCF7CBF900212020FCF7D0FA40F292
:1055C0003F112120FCF7CBFA00213020FCF7C7FA6D
:1055D0004FF483713120FCF7C2FA00213220FCF72E
:1055E000BEFA4FF40171352000E064E0FCF7B7FA31
:1055F00041F20A613620FCF7B2FA40F20771372017
:10560000FCF7ADFA4FF483713820FCF7A8FA40F2AA
:1056100007713920FCF7A3FA40F202413C20FCF765
:105620009EFA40F60F413D20FCF799FA00215020E8
:10563000FCF795FAEF215120FCF791FA0021522056
:10564000FCF78DFA40F23F115320FCF788FA4FF433
:105650001C516020FCF783FA01216120FCF77FFADE
:1056600000216A20FCF77BFA00218020FCF777FA02
:1056700000218120FCF773FA00218220FCF76FFAE9
:1056800000218320FCF76BFA00218420FCF767FAE5
:1056900000218520FCF763FA10219020FCF75FFAC7
:1056A0004FF4C0619220FCF75AFA40F23311072000
:1056B000FCF755FA83E48948808845F2084188421E
:1056C0007ED14FF480710120FCF749FA4FF4E0617C
:1056D0000220FCF744FA41F230010320FCF73FFAC4
:1056E00000210420FCF73BFA40F207210820FCF7D8
:1056F00036FA00210920FCF732FA00210A20FCF7D3
:105700002EFA00210C20FCF72AFA00210D20FCF7CC
:1057100026FA00210F20FCF722FA1420FCF716F9D4
:1057200041F2B0611020FCF71AFA01211120FCF7B8
:1057300016FA01211720FCF712FA4FF49C7112207F
:10574000FCF70DFA4FF400611320FCF708FA092169
:105750002920FCF704FA09212A20FCF700FA00218D
:10576000A420FCF7FCF900215020FCF7F8F9EF2108
:105770005120FCF7F4F900215220FCF7F0F940F237
:105780003F115320FCF7EBF94FF41C516020FCF75C
:10579000E6F901216120FCF7E2F900216A20FCF71B
:1057A000DEF900218020FCF7DAF900218120FCF7E6
:1057B000D6F900218220FCF7D2F90021832000E0F5
:1057C00023E0FCF7CCF900218420FCF7C8F9002184
:1057D0008520FCF7C4F913219020FCF7C0F90021C3
:1057E0009220FCF7BCF903219320FCF7B8F94FF4A1
:1057F00088719520FCF7B3F940F273110720FCF78C
:10580000AEF93220FCF7A2F8B8E43448808841F2BF
:10581000055188427ED100210720FCF7A0F93220F3
:10582000FCF794F84FF48E711220FCF798F90121DF
:10583000A420FCF794F90F210820FCF790F9082127
:105840000A20FCF78CF908210D20FCF788F940F2BA
:1058500007713020FCF783F907213120FCF77FF92D
:1058600040F203613220FCF77AF94FF4E061332013
:10587000FCF775F940F202213420FCF770F902219F
:105880003520FCF76CF941F60F713620FCF767F90B
:1058900040F207713720FCF762F900213820FCF74D
:1058A0005EF900213920FCF75AF940F207713A20DD
:1058B000FCF755F900213B20FCF751F907213C206A
:1058C000FCF74DF900213D20FCF749F93220FCF7A7
:1058D0003DF801210720FCF742F901E0FC0000201F
:1058E00001211720FCF73BF93220FCF72FF84FF489
:1058F000BD511020FCF733F940F217211120FCF7BD
:105900002EF94FF48F711220FCF729F94FF47061D2
:10591000132000E097E0FCF722F900212A20FCF791
:105920001EF90A212920FCF71AF94FF49F71122061
:10593000FCF715F900215020FCF711F9EF21512057
:10594000FCF70DF900215220FCF709F940F23F1154
:105950005320FCF704F94FF41C516020FCF7FFF8CA
:1059600001216120FCF7FBF800216A20FCF7F7F821
:1059700000218020FCF7F3F800218120FCF7EFF8EC
:1059800000218220FCF7EBF800218320FCF7E7F8E8
:1059900000218420FCF7E3F800218520FCF7DFF8E4
:1059A00013219020FCF7DBF84FF440719220FCF7B4
:1059B000D6F805219320FCF7D2F800219520FCF7BA
:1059C000CEF800219720FCF7CAF800219820FCF7B8
:1059D000C6F84FF480710120FCF7C1F84FF4E06184
:1059E0000220FCF7BCF841F238010320FCF7B7F8BD
:1059F00000210420FCF7B3F800210C20FCF7AFF8DD
:105A000000210F20FCF7ABF800212020FCF7A7F8BD
:105A100000212120FCF7A3F821210720FCF79FF8A3
:105A20001420FBF793FF61210720FCF798F814205E
:105A3000FBF78CFF40F273110720FCF790F814205D
:105A4000FBF784FF5AE3FE4880884BF205518842F9
:105A50007ED100210846FCF782F800210846FCF7B9
:105A60007EF800210846FCF77AF800210846FCF78A
:105A700076F80121A420FCF772F81420FBF766FFEA
:105A80004FF41C516020FCF76AF840F20221082014
:105A9000FCF765F84FF405713020FCF760F843F22D
:105AA00015713120FCF75BF840F204613220FCF7FD
:105AB00056F840F616613320FCF751F842F21121F6
:105AC0003420FCF74CF84FF4A8513520FCF747F888
:105AD00048F207513620FCF742F841F207413720DF
