:020000040800F2
:10000000500D0020490200087516000877160008F8
:100010007B1600087F160008831600080000000009
:10002000000000000000000000000000871600082B
:1000300089160008000000008B1600088D160008C5
:1000400063020008630200086302000863020008FC
:1000500063020008630200086302000863020008EC
:1000600063020008630200086302000863020008DC
:1000700063020008630200086302000863020008CC
:1000800063020008630200086302000863020008BC
:1000900063020008630200086302000863020008AC
:1000A000630200086302000863020008630200089C
:1000B000630200086302000863020008630200088C
:1000C000630200086302000863020008630200087C
:1000D000630200086D1A000863020008630200084A
:1000E000630200086302000863020008630200085C
:1000F000630200086302000863020008630200084C
:10010000630200086302000863020008630200083B
:10011000630200086302000863020008630200082B
:10012000630200086302000863020008630200081B
:10013000630200086302000863020008630200080B
:1001400063020008630200086302000863020008FB
:1001500063020008630200086302000863020008EB
:1001600063020008630200086302000863020008DB
:1001700063020008630200086302000863020008CB
:10018000630200086302000800F002F800F04CF877
:100190000AA090E8000C82448344AAF10107DA45E2
:1001A00001D100F041F8AFF2090EBAE80F0013F0E8
:1001B000010F18BFFB1A43F00103184710B70000E6
:1001C00030B70000103A24BF78C878C1FAD8520777
:1001D00024BF30C830C144BF04680C6070470000C1
:1001E0000023002400250026103A28BF78C1FBD840
:1001F000520728BF30C148BF0B607047662909F01D
:100200002084642907F06881002070471FB509F039
:100210000EFC07F021FC04000020002108F028FE5D
:10022000E0601FBD10B510BD07F030FD1146FFF7AF
:10023000EDFF06F0EBFA07F04EFD03B4FFF7F2FF17
:1002400003BC01F0AFFB00000948804709480047A4
:10025000FEE7FEE7FEE7FEE7FEE7FEE7FEE7FEE776
:10026000FEE7FEE704480549054A064B70470000D3
:100270006D1700088901000850070020500D00206C
:10028000500900205009002032490143324A1160D0
:10029000704770B5002100230F22C4781CB32E4C88
:1002A000246804F4E064C4F5E064C4F30721C1F1F8
:1002B0000404E3B20A4144789C40E1B284781440DB
:1002C00021430C07210E254C05786155047804F074
:1002D0001F050124AC4005786D11AD0005F1E02546
:1002E000C5F8004109E0047804F01F050124AC4082
:1002F0001B4D0678761145F8264070BD194A0A4014
:100300000243154B1B1F1A60704739B1124A121D68
:1003100012680243104B1B1D1A6006E00E4A121DA4
:10032000126882430C4B1B1D1A607047042808D1C9
:100330004FF0E021096941F004014FF0E022116122
:1003400007E04FF0E021096921F004014FF0E022BD
:10035000116170470000FA050CED00E000E400E0D8
:1003600080E100E080FFFF1F30B943F2DB02810033
:10037000A1F1C0410A6005E043F2D2028100A1F17F
:10038000C0410A606FF07042411C8900A1F1C04178
:100390000A608100A1F1C041C1F804217047D0E991
:1003A00001121143C26811430269114342691143AA
:1003B00082691143C2691143026A1143426A1143BF
:1003C000826A1143C26A1143026B114302689200B0
:1003D000A2F1C0421160816808290BD1016889002F
:1003E000A1F1C041096841F0400201688900A1F112
:1003F000C0410A60416B0968426B526841EA0211D0
:10040000426B926841EA0221426B928941EA0241C1
:10041000426B128A41EA0251426B127D41EA02614B
:10042000426B926911430268521C9200A2F1C042D1
:100430001160C16AB1F5804F1BD1816B0968826B75
:10044000526841EA0211826B926841EA0221826B92
:10045000128A41EA0251826B127D41EA0261826B8B
:100460009269114302689200A2F1C042C2F80411DD
:1004700007E06FF0704201688900A1F1C041C1F846
:100480000421704700210160022141600021816048
:10049000C160016141618161C16101624FF48051BC
:1004A0004162490081620021C1620163F8494163F0
:1004B0008163704751B18200A2F1C042126842F0DC
:1004C00001038200A2F1C042136009E08200A2F1A0
:1004D000C0421268EF4B1A408300A3F1C0431A6078
:1004E000704710280AD118214FF020421166402190
:1004F00051664FF0FC319166D16610E01821E64A52
:10050000116040214FF02042C2F884104FF0FC31BE
:10051000E14A083211604FF02042C2F88C10704757
:1005200030B5002100220023446844F008048568A7
:100530002C43C5682C4305692C43456944EA45248E
:10054000856944EA4531C4692468C5696D6844EA2F
:100550000524C5692D8944EA0544C5692D7B44EA13
:100560000562046A2468056A6D6844EA0524056A20
:100570002D8944EA0544056A2D7B44EA0563046835
:10058000102C05D14FF020442166A266E36608E0F6
:10059000C14C21604FF02044C4F88820BE4C0C347C
:1005A000236030BD10210160002141608160C16085
:1005B000016141618161FC21C2691160C2695160C0
:1005C000C2699160C269D160026A1160026A5160B9
:1005D000026A9160026AD160704799B1102808D10F
:1005E0004FF02042126E42F004024FF020431A6690
:1005F0001DE0A94A126842F004024FF02043C3F8FC
:10060000802014E0102809D14FF02042126EA14B37
:10061000DB1E1A404FF020431A6608E09E4A12681B
:100620009C4BDB1E1A404FF02043C3F880207047DC
:1006300099B1102808D14FF02042126E42F04002CA
:100640004FF020431A661DE0934A126842F04002C0
:100650004FF02043C3F8802014E0102809D14FF058
:100660002042126E8B4B3F3B1A404FF020431A66DC
:1006700008E0894A1268874B3F3B1A404FF02043FD
:10068000C3F88020704701460020102903D14FF0A5
:100690002042506F02E0804A1432106870471820E0
:1006A0007D492031086000200906C1F8A4004FF000
:1006B000FC30794928310860091D0860091D08606F
:1006C0007047016841F01001426841EA42218268A6
:1006D00041EA4231704A20321160C1680968C2683B
:1006E000526841EA0221C268128941EA0241C268A5
:1006F000127B41EA0261684A283211600169096887
:100700000269526841EA02210269128941EA024102
:100710000269127B41EA02615F4A2C321160416931
:1007200009684269526841EA02214269128941EA34
:1007300002414269127B41EA02614FF02042C2F855
:10074000B01070470021016041608160FC21C268E7
:100750001160C2685160C2689160C268D16002696C
:10076000116002695160026991600269D160426959
:10077000116042695160426991604269D16070477D
:1007800048B145492031096841F004014FF0204249
:10079000C2F8A01009E04049203109683D4AD21E44
:1007A00011404FF02042C2F8A010704710B5F2B1CE
:1007B000102807D14FF020435B6E0B434FF02044CD
:1007C000636632E0B0F5807F08D1334B1B1D1B6898
:1007D0000B434FF02044C4F8843026E02E4B2433E2
:1007E0001B680B434FF02044C4F8A4301DE01028D0
:1007F00007D14FF020435B6E8B434FF0204463667C
:1008000013E0B0F5807F08D1234B1B1D1B688B4381
:100810004FF02044C4F8843007E01F4B24331B689A
:100820008B434FF02044C4F8A43010BD10B50246ED
:1008300000200023102A03D14FF02044636E09E00A
:10084000B2F5807F03D1144C241D236802E0124CC2
:100850002434236803EA01040CB1012000E00020E5
:1008600010BD102807D14FF02042526E8A434FF03E
:1008700020435A6619E0B0F5807F0FD1064A121D59
:1008800012688A434FF02043C3F884200DE0000033
:10089000489A0008FEFF0F00800000A0234A12685B
:1008A0008A434FF02043C3F8A420704770B5024636
:1008B0000020002300240025102A03D14FF02046F9
:1008C000736E08E0B2F5807F03D1184E203E336886
:1008D00001E0164E336803EA010403EAD10514B1BE
:1008E0000DB1012000E0002070BD102808D14FF0AC
:1008F0002042526E22EAD1024FF020435A6614E0A1
:10090000B0F5807F09D1094A203A126822EAD10263
:100910004FF02043C3F8842007E0044A126822EA1B
:10092000D1024FF02043C3F8A4207047A40000A0D8
:1009300010B504469848844208D10121084600F0C9
:1009400086FB0021012000F082FB76E09348844280
:1009500008D10121022000F07AFB0021022000F0E2
:1009600076FB6AE08E48844208D10121042000F021
:100970006EFB0021042000F06AFB5EE0894884429F
:1009800008D10121082000F062FB0021082000F0BE
:100990005EFB52E08448844208D10121102000F01F
:1009A00056FB0021102000F052FB46E07F488442B5
:1009B00008D10121202000F04AFB0021202000F076
:1009C00046FB3AE07A48844208D10121402000F0F9
:1009D0003EFB0021402000F03AFB2EE075488442A7
:1009E00008D10121802000F032FB0021802000F09E
:1009F0002EFB22E07048844208D10121801500F0CE
:100A000026FB0021A01500F022FB16E06B48844273
:100A100008D10121401500F01AFB0021601500F0FB
:100A200016FB0AE06648844207D10121001500F058
:100A30000EFB0021201500F00AFB10BDF0B50A46A0
:100A400000210023002400BF3DE0012505FA01F349
:100A5000156805EA03049C4234D105684F0003265B
:100A6000BE40B543056015794E00B5400668354374
:100A700005601579012D02D01579022D16D18568F2
:100A80004F000326BE40B543856055794E00B54002
:100A9000866835438560456801268E40B5434560CC
:100AA000456896798E40B6B235434560C5684F00BB
:100AB0000326BE40B543C560D5794E00B540C66833
:100AC0003543C560491C1029BFD3F0BD4FF6FF71F7
:100AD00001600021017141718171C171704708B5D8
:100AE0004FF480320092009A0A430092009AC26149
:100AF000C161009AC261C2690092C269009208BDD8
:100B00000246002013690B400BB1012000E00020D9
:100B100070470146086980B2704702460020536959
:100B20000B400BB1012000E00020704701464869EE
:100B300080B2704701837047418370470AB10183D7
:100B400000E0418370474161704742694A40426119
:100B50007047F0B5002300244D07ED0E02FA05F3AF
:100B6000CE1000F1200555F826504E07F70E0F263F
:100B7000BE40B543CF1000F1200646F82750CE10F6
:100B800000F1200555F8265045EA0304CE1000F187
:100B9000200545F82640F0BD000002400004024058
:100BA00000080240000C0240001002400014024005
:100BB00000180240001C02400020024000240240B5
:100BC00000280240F948006840F00100F749086039
:100BD0000020F64908310860F4480068F4490840EC
:100BE000F2490860F348091D0860F348EF49843171
:100BF0000860F0481038091D0860EC48006820F4CF
:100C00008020EA4908600020E8490C310860E74983
:100C10008C31086070470021E44A921C1170114623
:100C20000870704710B501460022002300204A11C9
:100C3000012A02D1DD4C236808E0022A03D1DB4CF3
:100C40007034236802E0D94C7434236801F01F0229
:100C5000012494401C400CB1012000E0002010BD94
:100C600038B5002000900024002500BF3120FFF798
:100C7000D9FF05460098401C00900098B0F5A04FA1
:100C800001D0002DF2D03120FFF7CCFF08B10124B4
:100C900000E00024204638BD01460020C34A106809
:100CA00020F0F80040EAC10010607047C3490860B6
:100CB00070470021BD4A703211701170012802D0B6
:100CC00004280AD104E00121B84A7032117005E00D
:100CD0000521B64A7032117000E000BF00BF7047B6
:100CE000B7490860704770B5049C41EA8215012637
:100CF000C6EB530645EA0645054345EA0465AB4E97
:100D0000361D356070BDAD4908667047820142EA04
:100D10000172A64B84331A607047A84988667047F1
:100D200010B5830143EA016343EA02739F4C8834A0
:100D3000236010BDA14908677047A049C864704787
:100D400002460020994B0833186820F0EC6042EA14
:100D500001031843954B0833186070470246002082
:100D6000924B0833186820F0784042EA0103184398
:100D70008E4B083318607047014600208B4A0832BA
:100D8000106820F00300084310607047874808305F
:100D9000006800F00C00704701460020834A0832CA
:100DA000106820F0F00008431060704701460020F2
:100DB0007E4A0832106820F4E05008431060704703
:100DC00001460020794A0832106820F4604040EA69
:100DD000C10010607047F0B50021002200240225F8
:100DE00000260223714F08373F6807F00C0121B13C
:100DF000042905D0082937D105E0724F076036E095
:100E0000714F076033E0694F3F1D3F68C7F380565D
:100E1000664F3F1D3F6807F03F036EB16A4FB7FB57
:100E2000F3F7DFF888C10CF1040CDCF800C0CCF358
:100E3000881C07FB0CF40CE0624FB7FBF3F7DFF8FC
:100E40006CC10CF1040CDCF800C0CCF3881C07FB6F
:100E50000CF4564F3F1D3F68C7F301477F1C7D00D0
:100E6000B4FBF5F7076002E0564F076000BF00BF14
:100E70004E4F08373F6807F0F0010909534F7A5C7D
:100E80000768D7404760494F08373F6807F4E0518B
:100E9000890A4E4F7A5C4768D7408760434F0837CE
:100EA0003F6807F46041490B484F7A5C4768D74078
:100EB000C760F0BD002100F44072B2F5407F0AD156
:100EC0003A4A0832116821F4F811414A02401143AC
:100ED000364A08321160354A70321268C0F30B038B
:100EE0001A43324B70331A607047354944390860F1
:100EF0007047334940390860704736490860704789
:100F000001460020294A8C32106820F01F004A1E3A
:100F10001043264A8C321060704701460020234A55
:100F20008C32106820F4F8504A1E40EA02201F4A12
:100F30008C3210607047014600201C4A8C321068C9
:100F400020F4401008431060704701460020174A03
:100F50008C32106820F4400008431060704701464E
:100F60000020124A8C32106820F440300843106090
:100F7000704719490860704739B10C4A303212681D
:100F800002430A4B30331A6006E0084A30321268D6
:100F90008243064B30331A607047F9B1034A34324A
:100FA00012680243014B34331A601CE000380240DF
:100FB000FFFFF6EA10300024003000200000474216
:100FC000800E47420024F40000127A000000002046
:100FD000FFFCFF0F5C014742E01147428F4A126855
:100FE00082438E4B1A60704739B18C4A121D1268C9
:100FF00002438A4B1B1D1A6006E0884A121D1268C4
:101000008243864B1B1D1A60704739B1834A0C32EC
:1010100012680243814B0C331A6006E07F4A0C329F
:10102000126882437D4B0C331A60704739B17B4A9A
:10103000103212680243794B10331A6006E0774A87
:10104000103212688243754B10331A60704739B101
:10105000724A243A12680243704B243B1A6006E03D
:101060006E4A243A126882436C4B243B1A607047E4
:1010700039B16A4A203A12680243684B203B1A6031
:1010800006E0664A203A12688243644B203B1A60AD
:10109000704739B1614A1C3A126802435F4B1C3BEE
:1010A0001A6006E05D4A1C3A126882435B4B1C3BA7
:1010B0001A60704739B1594A143A12680243574BC3
:1010C000143B1A6006E0554A143A12688243534BA7
:1010D000143B1A60704739B1504A103A1268024303
:1010E0004E4B103B1A6006E04C4A103A126882439D
:1010F0004A4B103B1A60704739B1484A1C3212689B
:101100000243464B1C331A6006E0444A1C32126804
:101110008243424B1C331A60704739B13F4A203238
:10112000126802433D4B20331A6006E03B4A2032EE
:1011300012688243394B20331A60704739B1374AFD
:10114000243212680243354B24331A6006E0334AD6
:10115000243212688243314B24331A60704739B10C
:101160002E4A2C32126802432C4B2C331A6006E0B4
:101170002A4A2C3212688243284B2C331A6070475B
:1011800039B1264A303212680243244B30331A6098
:1011900006E0224A303212688243204B30331A6014
:1011A0007047012808D11D493C31096841F0080108
:1011B0001A4A3C32116007E018493C31096821F0B5
:1011C0000801164A3C321160704739B1134A273A78
:1011D00012780243114B273B1A7006E00F4A273A58
:1011E000127882430D4B273B1A7070470B484030F2
:1011F000006840F08070094940310860704701463E
:101200000020064A283A12680A400AB1012000E08C
:101210000020704701492639087070473438024071
:1012200010B50446FA48844208D101211020FFF786
:1012300052FF00211020FFF74EFF57E0F54884428F
:1012400009D101214804FFF735FF00214FF4003098
:10125000FFF730FF4AE0F048844209D101218804B9
:10126000FFF728FF00214FF48020FFF723FF3DE028
:10127000EA48844209D10121C804FFF71BFF00217D
:101280004FF40020FFF716FF30E0E548844209D113
:1012900001210805FFF70EFF00214FF48010FFF732
:1012A00009FF23E0DF48844208D101212020FFF715
:1012B00012FF00212020FFF70EFF17E0DA488442DA
:1012C00009D101218807FFF7F5FE00214FF080408A
:1012D000FFF7F0FE0AE0D548844207D1012140051E
:1012E000FFF7E8FE00216005FFF7E4FE10BD2DE9E1
:1012F000FF4705460E460024A14600BFA046B08920
:1013000000B100BF2C8A24F44054F08804432C829E
:10131000AC8941F20C608443B088318908437189FB
:1013200008430443AC81AC8A24F44074B08904437C
:10133000AC826846FFF74FFDB548854202D0B948F8
:10134000854202D1DDF80C9001E0DDF80890A88913
:1013500000F4004040B109EBC90000EB091031680E
:101360004900B0FBF1F707E009EBC90000EB0910F9
:1013700031688900B0FBF1F76420B7FBF0F004019D
:101380002009642101FB1078A88900F4004040B1D5
:10139000322000EBC800B0FBF1F000F0070004437E
:1013A00008E0322000EB08106421B0FBF1F000F0FF
:1013B0000F0004432C81BDE8FF874FF416510160F4
:1013C00000218180C18001810C2141810021818126
:1013D000704710B502460020108A20F470600B8818
:1013E0004C8823438C882343CC88234318431082A2
:1013F00010BD0021018041808180C180704721B1F2
:10140000828942F40052828104E082894DF6FF73A2
:101410001A4082817047028B02F47F420283028B62
:101420000A430283704721B1828942F400428281DB
:1014300003E08289C2F30E028281704721B1828A61
:1014400042F40062828204E0828A4FF2FF731A4003
:1014500082827047C1F30802828070470146888803
:10146000C0F308007047028A4FF6F0731A400282F8
:10147000028A0A430282704721B1828942F0020245
:10148000828104E082894FF6FD731A4082817047A1
:1014900082894FF2FF731A40828182890A438281D6
:1014A0007047028A4FF6DF731A400282028A0A43AB
:1014B0000282704721B1028A42F48042028204E033
:1014C000028A4BF6FF731A4002827047818941F00D
:1014D00001018181704721B1828A42F00802828233
:1014E00004E0828A4FF6F7731A4082827047028BBB
:1014F000D2B20283028B42EA01220283704721B1F9
:10150000828A42F02002828204E0828A4FF6DF73F0
:101510001A408282704721B1828A42F01002828290
:1015200004E0828A4FF6EF731A4082827047828A03
:101530004FF6FB731A408282828A0A438282704786
:1015400021B1828A42F00202828204E0828A4FF64E
:10155000FD731A40828270471AB1838A0B438382DB
:1015600002E0838A8B4383827047F0B503460024F0
:1015700000260025002040F66A17B94200D100BFBE
:101580001846C1F3421401F01F06012707FA06F5B9
:10159000012C01D10C3004E0022C01D1103000E00C
:1015A00014301AB107682F43076002E00768AF43A1
:1015B0000760F0BD02460020B1F5007F00D100BFFA
:1015C00013880B400BB1012000E00020704701F4AC
:1015D0000072B2F5007F00D100BFCA43028070479D
:1015E00070B50246002400230025002040F66A164C
:1015F000B14200D100BFC1F3421501F01F03012623
:1016000006FA03F3012D13D19689334017E0000049
:10161000001001400044004000480040004C0040E1
:10162000005000400014014000780040007C004061
:10163000022D02D1168A334001E0968A33400C1203
:10164000012606FA04F41688344013B10CB10120C7
:1016500000E0002070BD10B50022002340F66A149F
:10166000A14200D100BF0A1201249440A3B2DC437E
:10167000048010BD704700BFFEE700BFFEE700BF5B
:10168000FEE700BFFEE770477047704770470000F5
:101690000CB50020019000907648006840F480303E
:1016A0007449086000BF7348006800F4003000907F
:1016B0000198401C0190009818B90198B0F5A04F0E
:1016C000F1D16C48006800F4003010B101200090A6
:1016D00001E0002000900098012846D16548403084
:1016E000006840F0805063494031086062480068FB
:1016F00040F44040604908605E48083000685D4939
:10170000083108600846006840F400400860084658
:10171000006840F4A05008605848091F0860081F7E
:10172000006840F08070091F086000BF51480068E1
:1017300000F000700028F9D040F2057050490860B0
:101740004C480830006820F003004A49083108601E
:101750000846006840F00200086000BF45480830B5
:10176000006800F00C000828F8D10CBD10B5454801
:10177000006840F47000434908603E48006840F04B
:1017800001003C49086000203A49083108603948A6
:1017900000683D490840374908603C48091D086019
:1017A000081F006820F48020091F086000203149CC
:1017B0000C310860FFF76CFF4FF000603149803951
:1017C000086010BD70B50020002202230024022111
:1017D000284D08352D6805F00C0020B1042806D0EE
:1017E000082834D107E02A4D2A4E356033E02A4DCF
:1017F000284E35602FE01F4D2D1D2D68C5F38054F8
:101800001C4D2D1D2D6805F03F0154B1224DB5FB37
:10181000F1F5184E361D3668C6F3881605FB06F23C
:1018200009E01B4DB5FBF1F5124E361D3668C6F3C7
:10183000881605FB06F20F4D2D1D2D68C5F30145D9
:101840006D1C6B00B2FBF3F5124E356003E0104DDA
:10185000104E356000BF00BF064D08352D68C5F33A
:1018600003150E4E705D0B4D2D68C540094E356059
:1018700070BD00000038024000700040085440076E
:10188000003C024088ED00E0FFFFF6FE103000242F
:101890000024F4001000002000127A001400002040
:1018A00010B504466FF00400FEF740FDE11704EBAD
:1018B0005171C1F3C701394A11701046007800EB2D
:1018C0004001C1EBC0104FF6FF7101EAC00034497E
:1018D000088010BD0146314A12784A434FF0E02398
:1018E0005A6100229A611A46126942F001021A6195
:1018F00000BF4FF0E022106900F001021AB100F4BD
:101900008032002AF5D04FF0E022126922F0010265
:101910004FF0E0231A6100229A6170470146204A85
:1019200012884A434FF0E0235A6100229A611A4616
:10193000126942F001021A6100BF4FF0E022106903
:1019400000F001021AB100F48032002AF5D04FF005
:10195000E022126922F001024FF0E0231A61002216
:101960009A61704770B504464FF4077094FBF0F02D
:10197000C6B24FF4077094FBF0F100FB114085B242
:1019800005E04FF40770FFF7C9FF701EC6B2002EC6
:10199000F7D115B12846FFF7C1FF70BD2400002024
:1019A00026000020014600BF704700BF4E4A128843
:1019B00002F04002002AF9D0C2B24B4B9A80704725
:1019C00010B588B0044601210846FFF7D5FA012179
:1019D0001020FFF72BFB072209214448FFF7B9F835
:1019E00007220A214148FFF7B4F84FF4C06006907F
:1019F00002208DF81C008DF81D0000208DF81E00BF
:101A000001208DF81F0006A93848FFF717F8029447
:101A10000020ADF80C00ADF80E00ADF81000ADF8E8
:101A200014000C20ADF8120002A92F48FFF75FFC4C
:101A300001212D48FFF7E3FC40212B48FFF7C7FDAC
:101A4000012240F225512848FFF78FFD25208DF80F
:101A5000040003208DF805008DF8060001208DF8A4
:101A6000070001A8FEF715FC08B010BD10B540F244
:101A700025511D48FFF7B4FD10B31B48FFF7EEFCDE
:101A8000C4B21B48008800F40040C8B91848008858
:101A900000F4804060B10A2C03D000201449088073
:101AA00020E01348008840F400401149088019E004
:101AB0000D2C06D10E48008840F480400C49088067
:101AC00010E00B480088C0F30D000A490C54084888
:101AD0000088401C0649088008460088C72801DDA8
:101AE0000020088010BD00000010014000000240EE
:101AF0002C000020B80000201CB501212020FFF799
:101B00003BFA4FF4C060009001208DF804000020E3
:101B10008DF8060003208DF8050001208DF80700E0
:101B200069460448FEF78AFF4FF4C0610148FFF799
:101B300001F81CBD001402401CB501211020FFF764
:101B40001BFA1820009000208DF804008DF8060084
:101B500003208DF8050001208DF807006946024832
:101B6000FEF76CFF1CBD000000100240F848008921
:101B7000F8490880704703B5BDF80000F5490880B2
:101B8000BDF804004FF0D841A1F880000CBD01B5AC
:101B9000BDF800000090BDF80000EE49891C0880E7
:101BA00008BD01B5BDF800000090BDF80000E9498E
:101BB000088008BD30B504460D46E548808849F2E6
:101BC0004131884205D0E248808845F21031884290
:101BD00014D1DF494889FFF7E4FF2012FFF7D7FF50
:101BE000E0B2FFF7D4FFDA498889FFF7DAFF28125D
:101BF000FFF7CDFFE8B2FFF7CAFF5DE0D448808869
:101C000046F6040188421DD1D1488079012804D1CB
:101C1000CF480088401E001B84B2CD494889FFF799
:101C2000C0FF2012FFF7B3FFE0B2FFF7B0FFC849D3
:101C30008889FFF7B6FF2812FFF7A9FFE8B2FFF780
:101C4000A6FF39E0C248808845F21051884220D171
:101C5000BF494889FFF7A5FF2012FFF798FFBC494D
:101C60004989491C88B2FFF79CFFE0B2FFF78FFF5C
:101C7000B7498889FFF795FF2812FFF788FFB44915
:101C80008989491C88B2FFF78CFFE8B2FFF77FFF14
:101C900012E0AF488079012804D1AD480088401E89
:101CA000001B84B2AA4948892146FFF764FFA8496E
:101CB00088892946FFF75FFF30BDF0B5074600244D
:101CC00034E000262EE004EB4400304481B2502082
:101CD000FFF770FFFFF74AFF00251FE004EB8400C9
:101CE00007EB0010405D60B94FF6FF709949891C01
:101CF00008804FF0D841A1F880009649891C0880DF
:101D00000AE000209349891C08804FF0D841A1F8CF
:101D100080009049891C0880681C85B2502DDDDB4D
:101D2000701C86B2032ECEDB601C84B2502CC8DB44
:101D3000F0BD2DE9F04305460024A1468448807992
:101D400001281ED18248808846F60401884218D0B6
:101D5000082D15D2DFE805F00406080A0C0E101253
:101D600006250DE007250BE0042509E0052507E021
:101D7000012505E0002503E0032501E0022500BF61
:101D800000BF7348808849F24131884211D07048C1
:101D9000808846F6040188420BD06D48808845F261
:101DA0001031884205D06A48808845F21051884237
:101DB00078D1082D1CD2DFE805F00406090C0F12BB
:101DC000151800BF14E044F0800411E044F0400412
:101DD0000EE044F0C0040BE044F0200408E044F0BE
:101DE000600405E044F0A00402E044F0E00400BF19
:101DF00000BF5748808845F21051884202D14FF405
:101E0000585901E04FF036095148808845F21031A9
:101E1000884207D04E48808845F21051884201D050
:101E200044F008044A48808846F60401884201D1FB
:101E300044F0020421464846FFF79DFE04F02000CE
:101E400018B94348807901280FD14148008840499A
:101E50004988884218DA3E48B0F8008040883C49FA
:101E600008800846A0F802800EE03948008838490A
:101E70004988884208DD3648B0F8008040883449F7
:101E800008800846A0F802803148807901280AD1EC
:101E90002F48808846F60401884204D02C484688A2
:101EA000078803E07FE02A4806884788284880881A
:101EB00045F2105188424FD125494889FFF771FEFC
:101EC0000020FFF764FE22494989491C88B2FFF7C8
:101ED00068FE0020FFF75BFE1D494989891C88B216
:101EE000FFF75FFE711EC1F30F20FFF750FE184988
:101EF0004989C91C88B2FFF754FE711EC8B2FFF7AA
:101F000046FE13498889FFF74CFE0020FFF73FFE8D
:101F10000F498989491C88B2FFF743FE0020FFF76B
:101F200036FE0B498989891C88B2FFF73AFE791E73
:101F3000C1F30F20FFF72BFE05498989C91C88B220
:101F4000FFF72FFE791EC8B2FFF721FE5FE0000009
:101F5000800100207E00006CFE494889FFF721FEC9
:101F60000020FFF714FE0020FFF711FE711EC1F3E1
:101F70000F20FFF70CFE711EC8B2FFF708FEF549EF
:101F80008889FFF70EFE0020FFF701FE0020FFF713
:101F9000FEFD791EC1F30F20FFF7F9FD791EC8B2CF
:101FA000FFF7F5FD33E0082D1CD2DFE805F004074C
:101FB0000A0D0F12151844F0300413E044F0100419
:101FC00010E044F020040DE000BF0BE044F03804C2
:101FD00008E044F0280405E044F0180402E044F06E
:101FE000080400BF00BFDB48808848F6891188429A
:101FF00005D14FF0110946F24000044303E04FF0D1
:10200000030944F4805421464846FFF7B4FDBDE877
:10201000F08370B506460320FFF78BFE00210846CB
:10202000FFF7C8FDFFF7A2FD00240FE0002509E03F
:10203000C4EB041006EB401030F81500C6490880C8
:10204000681C85B2F02DF3DB601C84B2B4F5A07F70
:10205000ECDB70BD70B504460D461646BD48808861
:1020600049F24131884205D0BA48808845F21031A2
:10207000884214D1B7494889FFF793FD2012FFF732
:1020800086FDE0B2FFF783FDB2498889FFF789FD3D
:102090002812FFF77CFDE8B2FFF779FD5DE0AD485F
:1020A000808845F21051884220D1AA494889FFF71B
:1020B00078FD2012FFF76BFDA6494989491C88B2BB
:1020C000FFF76FFDE0B2FFF762FDA2498889FFF7D5
:1020D00068FD2812FFF75BFD9E498989491C88B27B
:1020E000FFF75FFDE8B2FFF752FD36E099488088C0
:1020F00046F6040188421DD196488079012804D112
:1021000094480088401E001B84B292494889FFF71A
:1021100048FD2012FFF73BFDE0B2FFF738FD8D4987
:102120008889FFF73EFD2812FFF731FDE8B2FFF77F
:102130002EFD12E087488079012804D18548008867
:10214000401E001B84B2834948892146FFF713FDD6
:10215000804988892946FFF70EFD7E4800897E491F
:10216000891E08804FF0D840A0F8806070BD2DE92E
:10217000F84F80460E4617461C46B3462046E317E6
:1021800004EB5373DB1021464FEAE47C04EB5C7CE8
:102190004FEAEC0CA4EBCC0CBCF1000F02D04FF0DA
:1021A000010C01E04FF0000C6344224604EBD27CAA
:1021B0004FEA6C0C03FB0CF3DBB20093A7F1200099
:1021C000C7B2002556E00C2C07D107EB4700634946
:1021D00001EB800010F8059013E0102C05D1604849
:1021E00000EB071010F805900BE0182C07D107EB57
:1021F000C7005C4901EB800010F8059001E0BDE8E4
:10220000F88F4FF0000A2FE009F0800030B15648F7
:10221000028831464046FFF71DFF07E00A9828B9BB
:102220005248028831464046FFF714FF4FEA4960A2
:102230004FEA1069701C86B246484088B04200DC04
:10224000DDE7A6EB0B00A0420AD15E4608F10100D3
:102250001FFA80F83F480088404500DCCFE706E0E1
:102260000AF1010000F0FF0ABAF1080FCCDB00BF51
:10227000681CC5B200988542A5DB00BFBFE710B55A
:102280000246012000E050430B00A1F10104E1B23D
:10229000F9D110BD2DE9FE4F82460F46904600252C
:1022A000102600200290C3460320FFF742FD04E001
:1022B0000A20BBFBF0FB681CC5B2BBF1000FF7D1D5
:1022C0003DB9002033463022514600903846FFF792
:1022D0004EFF002438E0281B401EC1B20A20FFF741
:1022E000CEFFB8FBF0F00A21B0FBF1F201FB1209BE
:1022F0000298B0B9681EA04213DDB9F1000F0ED1EB
:10230000002006EBD671491001FB0471CDE90006EF
:1023100088B2334620225146FFF729FF12E0012000
:102320000290002006EBD671491001FB0471CDE943
:10233000000688B209F13001CAB233465146FFF7B0
:1023400016FF00BF601CC4B2AC42C4DB0520FFF71F
:10235000F0FC0DE0800100208000006C649A000811
:10236000D89E0008C8A400082E00002030000020DD
:10237000BDE8FE8F08B5F64800880090BDF8000063
:1023800008BD01B5BDF80000FFF70BFC0520FFF705
:10239000A1FAFFF7EFFF08BDED490880704730B59F
:1023A000014601F01F04C1F34513CA0AE50205EB1B
:1023B00043151544A8B230BD00BF0100A0F10102D1
:1023C000D0B2FAD170473EB504460D4600200290C7
:1023D00001900090DF480088A04203DDDD4840887E
:1023E000A84201DC00203EBD29462046FFF7E2FB63
:1023F000D848808849F2413188420BD0D54880883E
:1024000046F60401884205D0D248808845F2103152
:10241000884203D12E20FFF7C4FB0DE0CD48808811
:1024200045F21051884204D14FF43850FFF7B9FB00
:1024300002E02220FFF7B5FBC648808849F2203130
:10244000884202D10220FFF7B7FFFFF793FF022077
:10245000FFF7B2FFFFF78EFF0290BE48808849F277
:10246000413188420BD0BB48808845F21031884208
:1024700005D0B848808845F21051884210D102201A
:10248000FFF79AFFFFF776FF0090BDF80800C0B293
:102490000190BDF804004FF6FF7101EA00200190A1
:1024A000AC48808849F22531884216D0A9488088F6
:1024B00044F23551884210D0A6488088091F8842CE
:1024C0000BD0A44880884BF20551884205D0A14822
:1024D00080884CF20551884202D1BDF8080082E79D
:1024E0009C48808849F2413188420BD099488088C5
:1024F00045F21031884205D09648808845F2105147
:1025000088420DD1BDF80800C012C002BDF8041009
:10251000891240EA4110BDF8001040EAE12062E76C
:10252000BDF80800FFF73BFF5DE700B589488088EC
:1025300049F2413188420BD08648808846F6040132
:10254000884205D08348808845F21031884203D103
:102550002920FFF726FB0FE07E48808845F21051C6
:10256000884204D14FF42450FFF71BFB04E040F2F3
:1025700073110720FFF7FFFA00BD00B5754880888A
:1025800049F2413188420BD07248808846F60401F6
:10259000884205D06F48808845F21031884203D1C7
:1025A0002820FFF7FEFA0EE06A48808845F21051B5
:1025B000884204D14FF42050FFF7F3FA03E00021E2
:1025C0000720FFF7D8FA00BD30B504460D4629466E
:1025D0002046FFF7EFFAFFF7C9FA5F4800885C4929
:1025E000088030BD10B50446002C52D1594988717D
:1025F000F02008804FF4A07048800846808849F297
:10260000413188420BD05348808846F60401884205
:1026100005D05048808845F2103188421AD12C20CC
:102620004C4908812A2048812B20888108468088CF
:1026300046F60401884205D04648808845F21031AC
:10264000884206D14FF4A070424908804FF4F070E0
:10265000488079E03F48808845F21051884210D187
:102660004FF430503B4908814FF4285048814FF4D3
:102670002C5088814FF4F07008804FF448704880E7
:1026800062E022203349088120204881212088816E
:102690005AE001202F4988714FF4A0700880F02083
:1026A00048800846808849F24131884205D029484F
:1026B000808845F21031884207D12C2025490881B5
:1026C0002A2048812B2088812BE02248808846F6EA
:1026D0000401884207D12C201E4908812B20488103
:1026E0002A2088811DE01B48808845F210518842CD
:1026F00010D14FF43050174908814FF428504881C9
:102700004FF42C5088814FF4487008804FF4F070DB
:10271000488006E022200F4908812120488120209E
:1027200088810C48808846F60401884205D0094813
:10273000808845F21031884206D14FF4F070054987
:1027400008804FF4A07048800020FFF7F2FA10BD17
:102750008000006C800100202E0000202DE9FF4F3A
:1027600004460D4616461F46A019401E86B2E819BB
:10277000401E87B2FE48808849F2413188420BD022
:10278000FB48808845F21031884205D0F84880889F
:1027900046F60401884220D1F5494889FFF701FA3D
:1027A0002012FFF7F4F9E0B2FFF7F1F93012FFF76A
:1027B000EEF9F0B2FFF7EBF9ED498889FFF7F1F98F
:1027C0002812FFF7E4F9E8B2FFF7E1F93812FFF752
:1027D000DEF9F8B2FFF7DBF97DE0E548808845F2E5
:1027E0001051884244D1E2494889FFF7DAF92012B2
:1027F000FFF7CDF9DE494989491C88B2FFF7D1F9C5
:10280000E0B2FFF7C4F9DA494989891C88B2FFF7B9
:10281000C8F93012FFF7BBF9D5494989C91C88B2FC
:10282000FFF7BFF9F0B2FFF7B2F9D1498889FFF796
:10283000B8F92812FFF7ABF9CD498989491C88B24C
:10284000FFF7AFF9E8B2FFF7A2F9C9498989891CF6
:1028500088B2FFF7A6F93812FFF799F9C4498989B8
:10286000C91C88B2FFF79DF9F8B2FFF790F932E082
:10287000BF48807901280ED1A846B946BC480088D7
:10288000801B401E1FFA80FAB9480088001B401EBA
:102890001FFA80FB03E0A046B146AA46BB46502083
:1028A0000390512002905220019053200090414605
:1028B0000398FFF760F949460298FFF75CF9514623
:1028C0000198FFF758F959460098FFF754F929463F
:1028D0002046FFF76FF9BDE8FF8F70B5044600266C
:1028E000A348058840884543A148808846F60401EE
:1028F000884216D19E488079012812D100209C4937
:1029000088712A2048812B20888100210846FFF702
:1029100051F90120964988712B2048812A2088810D
:1029200003E000210846FFF745F9FFF71FF90026ED
:1029300002E090480480761CAE42FAD370BD00B528
:10294000A1B00020209001217A20FEF715FB012183
:102950000846FEF749FB4FF400401E9001208DF819
:102960007C0000208DF87E0002208DF87D00012083
:102970008DF87F001EA98048FEF760F84CF2337096
:102980001E9002208DF87C0000208DF87E00032030
:102990008DF87D0001208DF87F001EA97748FEF795
:1029A0004DF84FF680701E9002208DF87C000020BC
:1029B0008DF87E0003208DF87D0001208DF87F00CA
:1029C0001EA96F48FEF73AF84FF480501E9002207F
:1029D0008DF87C0000208DF87E0003208DF87D00AE
:1029E00001208DF87F001EA96648FEF727F84FF4F6
:1029F00080501E9002208DF87C0000208DF87E0013
:102A000003208DF87D0001208DF87F001EA95E480F
:102A1000FEF714F80C2200215848FEF79AF80C2211
:102A200001215648FEF795F80C2204215348FEF781
:102A300090F80C2205215148FEF78BF80C22082152
:102A40004E48FEF786F80C2209214C48FEF781F823
:102A50000C220A214948FEF77CF80C220E21474837
:102A6000FEF777F80C220F214448FEF772F80C228B
:102A700007214348FEF76DF80C2208214048FEF775
:102A800068F80C2209213E48FEF763F80C220A215F
:102A90003B48FEF75EF80C220B213948FEF759F847
:102AA0000C2211463648FEF754F80C220D2134480A
:102AB000FEF74FF80C220E213148FEF74AF80C229F
:102AC0000F212F48FEF745F80C2211462D48FEF73E
:102AD00040F80C2211462C48FEF73BF80F200890D6
:102AE0000020099018200A9000200B900C900D9067
:102AF0000E900820019000200290082003900020F2
:102B0000049005900690079006200F9000201090EA
:102B10001190102012900020139015901490169090
:102B200017904FF480501890002019904FF4804077
:102B30001A9000201B9008A81C9001A81D900FA8B7
:102B4000FDF72DFC01210620FDF7B4FC3220FEF735
:102B500009FF01210020FFF70EF83220FEF702FFE7
:102B60000020FFF70EFC02498880084680880DE0AF
:102B7000800100208000006C00040240000C024034
:102B8000001002400014024000180240FF280ADB37
:102B9000084680884FF6FF71884204D0FE4880883E
:102BA000B0F5134F7ED1D320FEF7FBFFFFF7E2FB1A
:102BB000F9498880FFF7DEFBF7498880FFF7DAFBE9
:102BC000F5498880084680884FF6FF7101EA0020A9
:102BD000F1498880FFF7CEFBEF4989880843EE4929
:102BE00088800846808849F24131884278D0BF20E9
:102BF000FEF7D7FFFFF7BEFBE7498880FFF7BAFB78
:102C0000E5498880FFF7B6FBE3498880FFF7B2FB10
:102C1000E1498880084680884FF6FF7101EA00206C
:102C2000DD498880FFF7A6FBDB4989880843DA493C
:102C300088800846808846F60401884250D0D42017
:102C4000FEF7AFFFFFF796FBD3498880FFF792FBB3
:102C5000D1498880FFF78EFBCF498880084680885D
:102C60004FF6FF7101EA0020CB498880FFF782FB15
:102C7000C94989880843C84988800846808845F240
:102C8000103188422CD04FF45A40FEF78AFFFFF7EC
:102C900071FBC14988804FF45B40FEF782FFFFF76C
:102CA00069FB00E01CE0BC498880084680884FF63C
:102CB000FF7101EA0020B84988804FF45C40FEF7BC
:102CC00070FFFFF757FBB44989880843B2498880F1
:102CD00008468088B0F5004F02D145F21050888038
:102CE000AD48808849F2413188420BD0AA4880889B
:102CF00045F21031884205D0A748808845F210512E
:102D000088421DD1A548006820F00F004FF02041F7
:102D1000C1F81C010846D0F81C0120F47060C1F80D
:102D20001C010846D0F81C0140F00300C1F81C014A
:102D30000846D0F81C0140F40070C1F81C0128E0DE
:102D40009548808846F60401884205D092488088DC
:102D50004CF2055188421CD19048006820F00F00C9
:102D60004FF02041C1F81C010846D0F81C0120F4A6
:102D70007060C1F81C010846D0F81C0140F00A0040
:102D8000C1F81C010846D0F81C0140F44060C1F8AD
:102D90001C018148808849F2413188427ED1CF2090
:102DA000FEF7FFFE0020FEF7F2FE2098401C209068
:102DB000C120FEF7ECFE3020FEF7E9FEED20FEF725
:102DC000F0FE6420FEF7E3FE0320FEF7E0FE122093
:102DD000FEF7DDFE8120FEF7DAFEE820FEF7E1FED9
:102DE0008520FEF7D4FE1020FEF7D1FE7A20FEF7F4
:102DF000CEFECB20FEF7D5FE3920FEF7C8FE2C20F4
:102E0000FEF7C5FE0020FEF7C2FE3420FEF7BFFE2F
:102E10000220FEF7BCFEF720FEF7C3FE2020FEF7DF
:102E2000B6FEEA20FEF7BDFE0020FEF7B0FE002051
:102E3000FEF7ADFEC020FEF7B4FE1B20FEF7A7FE96
:102E4000C120FEF7AEFE0120FEF7A1FEC520FEF771
:102E5000A8FE3020FEF79BFE3020FEF798FEC7202C
:102E6000FEF79FFEB720FEF792FE3620FEF799FE92
:102E70004820FEF78CFE3A20FEF793FE5520FEF721
:102E800086FEB120FEF78DFE0020FEF780FE1A20A0
:102E9000FEF77DFEB620FEF784FE00E09FE00A20EC
:102EA000FEF775FEA220FEF772FEF220FEF779FE15
:102EB0000020FEF76CFE2620FEF773FE0120FEF7D1
:102EC00066FEE020FEF76DFE0F20FEF760FE2A2072
:102ED000FEF75DFE2820FEF75AFE0820FEF757FE9B
:102EE0000E20FEF754FE0820FEF751FE5420FEF798
:102EF0004EFEA920FEF74BFE4320FEF748FE0A20B7
:102F0000FEF745FE0F20FEF742FE0020FEF73FFED3
:102F10000020FEF73CFE0020FEF739FE0020FEF701
:102F200036FEE120FEF73DFE0020FEF730FE1520C4
:102F3000FEF72DFE1720FEF72AFE0720FEF727FEDC
:102F40001120FEF724FE0620FEF721FE2B20FEF7BF
:102F50001EFE5620FEF71BFE3C20FEF718FE052045
:102F6000FEF715FE1020FEF712FE0F20FEF70FFEF3
:102F70003F20FEF70CFE3F20FEF709FE0F20FEF774
:102F800006FE2B20FEF70DFE0020FEF700FE0020BF
:102F9000FEF7FDFD012003E0800100201C0100A0E0
:102FA000FEF7F5FD3F20FEF7F2FD2A20FEF7F9FDC2
:102FB0000020FEF7ECFD0020FEF7E9FD0020FEF703
:102FC000E6FDEF20FEF7E3FD1120FEF7EAFD782095
:102FD000FEF7C8FC2920FEF7E4FD03F05CB8FE48CC
:102FE000808846F6040188427ED11120FEF7D9FD83
:102FF0001420FEF7B7FCD020FEF7D3FD0720FEF724
:10300000C6FD4220FEF7C3FD1D20FEF7C0FDD12006
:10301000FEF7C7FD0020FEF7BAFD1A20FEF7B7FD48
:103020000920FEF7B4FDD220FEF7BBFD0120FEF71C
:10303000AEFD2220FEF7ABFDC020FEF7B2FD102052
:10304000FEF7A5FD3B20FEF7A2FD0020FEF79FFD49
:103050000220FEF79CFD1120FEF799FDC520FEF72A
:10306000A0FD0320FEF793FDC820FEF79AFD002087
:10307000FEF78DFD2520FEF78AFD2120FEF787FD56
:103080000520FEF784FD0020FEF781FD0A20FEF7F3
:103090007EFD6520FEF77BFD2520FEF778FD77207D
:1030A000FEF775FD5020FEF772FD0F20FEF76FFD55
:1030B0000020FEF76CFDF820FEF773FD0120FEF7FF
:1030C00066FDFE20FEF76DFD0020FEF760FD02208C
:1030D000FEF75DFD2020FEF764FD3620FEF761FD62
:1030E0000820FEF754FD00E02AE03A20FEF759FDE3
:1030F0005520FEF74CFD2B20FEF753FD0020FEF778
:1031000046FD0020FEF743FD0120FEF740FD3F2075
:10311000FEF73DFD2A20FEF744FD0020FEF737FDB7
:103120000020FEF734FD0120FEF731FDDF20FEF721
:103130002EFD7820FEF716FC2920FEF732FD4CE725
:10314000A548808845F21031884240F07C87ED2008
:10315000FEF727FD0120FEF71AFDFE20FEF717FD02
:10316000EE20FEF71EFDDE20FEF711FD2120FEF70A
:103170000EFDF120FEF715FD0120FEF708FDDF2012
:10318000FEF70FFD1020FEF702FDC420FEF709FD3B
:103190008F20FEF7FCFCC620FEF703FD0020FEF7A3
:1031A000F6FCE220FEF7F3FCE220FEF7F0FCE22062
:1031B000FEF7EDFCBF20FEF7F4FCAA20FEF7E7FCCB
:1031C000B020FEF7EEFC0D20FEF7E1FC0020FEF73C
:1031D000DEFC0D20FEF7DBFC0020FEF7D8FC112002
:1031E000FEF7D5FC0020FEF7D2FC1920FEF7CFFC3D
:1031F0000020FEF7CCFC2120FEF7C9FC0020FEF7E2
:10320000C6FC2D20FEF7C3FC0020FEF7C0FC3D20CD
:10321000FEF7BDFC0020FEF7BAFC5D20FEF7B7FC10
:103220000020FEF7B4FC5D20FEF7B1FC0020FEF7A5
:10323000AEFCB120FEF7B5FC8020FEF7A8FC002014
:10324000FEF7A5FC8B20FEF7A2FC0020FEF79FFCFA
:103250009620FEF79CFC0020FEF799FCB220FEF7BA
:10326000A0FC0020FEF793FC0020FEF790FC02205B
:10327000FEF78DFC0020FEF78AFC0320FEF787FC9A
:103280000020FEF784FCB320FEF78BFC0020FEF745
:103290007EFC0020FEF77BFC0020FEF778FC00207F
:1032A000FEF775FC0020FEF772FC0020FEF76FFCB5
:1032B0000020FEF76CFC0020FEF769FC0020FEF702
:1032C00066FC0020FEF763FC0020FEF760FC002097
:1032D000FEF75DFC0020FEF75AFC0020FEF757FCCD
:1032E0000020FEF754FC0020FEF751FC0020FEF702
:1032F0004EFC0020FEF74BFC0020FEF748FC0020AF
:10330000FEF745FC0020FEF742FC0020FEF73FFCE4
:103310000020FEF73CFC0020FEF739FCB420FEF74D
:1033200040FC8B20FEF733FC0020FEF730FC96209B
:10333000FEF72DFC0020FEF72AFCA120FEF727FC5B
:103340000020FEF724FCB520FEF72BFC0220FEF740
:103350001EFC0020FEF71BFC0320FEF718FC0020DB
:10336000FEF715FC0420FEF712FC0020FEF70FFC10
:10337000B620FEF716FC0020FEF709FC0020FEF741
:1033800006FCB720FEF70DFC0020FEF700FC002035
:10339000FEF7FDFB3F20FEF7FAFB0020FEF7F7FBF0
:1033A0005E20FEF7F4FB0020FEF7F1FB6420FEF741
:1033B000EEFB0020FEF7EBFB8C20FEF7E8FB002085
:1033C000FEF7E5FBAC20FEF7E2FB0020FEF7DFFB9B
:1033D000DC20FEF7DCFB01E0800100200020FEF78E
:1033E000D6FB7020FEF7D3FB0020FEF7D0FB902029
:1033F000FEF7CDFB0020FEF7CAFBEB20FEF7C7FB74
:103400000020FEF7C4FBDC20FEF7C1FB0020FEF726
:10341000BEFBB820FEF7C5FB0020FEF7B8FB00207E
:10342000FEF7B5FB0020FEF7B2FB0020FEF7AFFB76
:103430000020FEF7ACFB0020FEF7A9FB0020FEF702
:10344000A6FB0020FEF7A3FBBA20FEF7AAFB242070
:10345000FEF79DFB0020FEF79AFB0020FEF797FB8E
:103460000020FEF794FBC120FEF79BFB2020FEF717
:103470008EFB0020FEF78BFB5420FEF788FB00201C
:10348000FEF785FBFF20FEF782FB0020FEF77FFBA7
:10349000C220FEF786FB0A20FEF779FB0020FEF72C
:1034A00076FB0420FEF773FB0020FEF770FBC320C1
:1034B000FEF777FB3C20FEF76AFB0020FEF767FB78
:1034C0003A20FEF764FB0020FEF761FB3920FEF78F
:1034D0005EFB0020FEF75BFB3720FEF758FB002069
:1034E000FEF755FB3C20FEF752FB0020FEF74FFB9A
:1034F0003620FEF74CFB0020FEF749FB3220FEF79A
:1035000046FB0020FEF743FB2F20FEF740FB002088
:10351000FEF73DFB2C20FEF73AFB0020FEF737FBC1
:103520002920FEF734FB0020FEF731FB2620FEF7B2
:103530002EFB0020FEF72BFB2420FEF728FB0020AB
:10354000FEF725FB2420FEF722FB0020FEF71FFBE1
:103550002320FEF71CFB0020FEF719FB3C20FEF7A2
:1035600016FB0020FEF713FB3620FEF710FB0020B1
:10357000FEF70DFB3220FEF70AFB0020FEF707FBEB
:103580002F20FEF704FB0020FEF701FB2C20FEF7A6
:10359000FEFA0020FEF7FBFA2920FEF7F8FA0020D9
:1035A000FEF7F5FA2620FEF7F2FA0020FEF7EFFA12
:1035B0002420FEF7ECFA0020FEF7E9FA2420FEF7BB
:1035C000E6FA0020FEF7E3FA2320FEF7E0FA0020F7
:1035D000FEF7DDFAC420FEF7E4FA6220FEF7D7FA20
:1035E0000020FEF7D4FA0520FEF7D1FA0020FEF7FE
:1035F000CEFA8420FEF7CBFA0020FEF7C8FAF020BE
:10360000FEF7C5FA0020FEF7C2FA1820FEF7BFFA4F
:103610000020FEF7BCFAA420FEF7B9FA0020FEF75E
:10362000B6FA1820FEF7B3FA0020FEF7B0FA5020E1
:10363000FEF7ADFA0020FEF7AAFA0C20FEF7A7FA73
:103640000020FEF7A4FA1720FEF7A1FA0020FEF7EB
:103650009EFA9520FEF79BFA0020FEF798FAF320D9
:10366000FEF795FA0020FEF792FAE620FEF78FFAB1
:103670000020FEF78CFAC520FEF793FA3220FEF701
:1036800086FA0020FEF783FA4420FEF780FA002035
:10369000FEF77DFA6520FEF77AFA0020FEF777FA4A
:1036A0007620FEF774FA0020FEF771FA8820FEF704
:1036B0006EFA0020FEF76BFAC620FEF772FA2020A1
:1036C000FEF765FA0020FEF762FA1720FEF75FFAB0
:1036D0000020FEF75CFA0120FEF759FA0020FEF701
:1036E00056FAC720FEF75DFA0020FEF750FA0020D8
:1036F000FEF74DFA0020FEF74AFA0020FEF747FADF
:10370000C820FEF74EFA0020FEF741FA0020FEF72F
:103710003EFA0020FEF73BFA0020FEF738FAC920F7
:10372000FEF73FFA0020FEF732FA0020FEF72FFAEC
:103730000020FEF72CFA0020FEF729FA0020FEF701
:1037400026FA0020FEF723FA0020FEF720FA0020D8
:10375000FEF71DFA0020FEF71AFA0020FEF717FA0E
:103760000020FEF714FA0020FEF711FA0020FEF701
:103770000EFA0020FEF70BFA0020FEF708FA0020F0
:10378000FEF705FAE020FEF70CFA1620FEF7FFF927
:103790000020FEF7FCF91C20FEF7F9F90020FEF7E7
:1037A000F6F92120FEF7F3F90020FEF7F0F93620B4
:1037B000FEF7EDF90020FEF7EAF94620FEF7E7F9FB
:1037C0000020FEF7E4F95220FEF7E1F90020FEF7B1
:1037D000DEF96420FEF7DBF90020FEF7D8F97A2045
:1037E000FEF7D5F90020FEF7D2F98B20FEF7CFF9CE
:1037F0000020FEF7CCF99920FEF7C9F90020FEF76A
:10380000C6F9A820FEF7C3F90020FEF7C0F9B920D9
:10381000FEF7BDF90020FEF7BAF9C420FEF7B7F9AC
:103820000020FEF7B4F9CA20FEF7B1F90020FEF738
:10383000AEF9D220FEF7ABF90020FEF7A8F9D920A7
:10384000FEF7A5F90020FEF7A2F9E020FEF79FF9A8
:103850000020FEF79CF9F320FEF799F90020FEF70F
:1038600096F9E120FEF79DF91620FEF790F9002069
:10387000FEF78DF91C20FEF78AF90020FEF787F984
:103880002220FEF784F90020FEF781F93620FEF7AA
:103890007EF90020FEF77BF94520FEF778F900203D
:1038A000FEF775F95220FEF772F90020FEF76FF966
:1038B0006420FEF76CF90020FEF769F97A20FEF724
:1038C00066F90020FEF763F98B20FEF760F900200F
:1038D000FEF75DF99920FEF75AF90020FEF757F937
:1038E000A820FEF754F90020FEF751F9B920FEF7A1
:1038F0004EF90020FEF74BF9C420FEF748F90020EE
:10390000FEF745F9CA20FEF742F90020FEF73FF91D
:10391000D220FEF73CF90020FEF739F9D820FEF757
:1039200036F90020FEF733F9E020FEF730F90020E9
:10393000FEF72DF9F320FEF72AF90020FEF727F90C
:10394000E220FEF72EF90520FEF721F90020FEF710
:103950001EF90B20FEF71BF90020FEF718F91B20BB
:10396000FEF715F90020FEF712F93420FEF70FF9E3
:103970000020FEF70CF94420FEF709F90020FEF7BD
:1039800006F94F20FEF703F90020FEF700F9612049
:10399000FEF7FDF80020FEF7FAF87920FEF7F7F8B9
:1039A0000020FEF7F4F88820FEF7F1F80020FEF77B
:1039B000EEF89720FEF7EBF80020FEF7E8F8A620D7
:1039C000FEF7E5F80020FEF7E2F8B720FEF7DFF893
:1039D0000020FEF7DCF8C220FEF7D9F80020FEF741
:1039E000D6F8C720FEF7D3F80020FEF7D0F8D12094
:1039F000FEF7CDF80020FEF7CAF8D620FEF7C7F88C
:103A00000020FEF7C4F8DD20FEF7C1F80020FEF725
:103A1000BEF8F320FEF7BBF80020FEF7B8F8E3206D
:103A2000FEF7BFF80520FEF7B2F80020FEF7AFF86A
:103A30000A20FEF7ACF80020FEF7A9F81C20FEF7DC
:103A4000A6F80020FEF7A3F83320FEF7A0F8002028
:103A5000FEF79DF84420FEF79AF80020FEF797F84D
:103A60005020FEF794F80020FEF791F86220FEF750
:103A70008EF80020FEF78BF87820FEF788F80020FB
:103A8000FEF785F88820FEF782F80020FEF77FF821
:103A90009720FEF77CF80020FEF779F8A620FEF7C5
:103AA00076F80020FEF773F8B720FEF770F80020D4
:103AB000FEF76DF8C220FEF76AF80020FEF767F8FF
:103AC000C720FEF764F80020FEF761F8D120FEF76A
:103AD0005EF80020FEF75BF8D520FEF758F80020CE
:103AE000FEF755F8DD20FEF752F80020FEF74FF8FC
:103AF000F320FEF74CF80020FEF749F8E420FEF72B
:103B000050F80120FEF743F80020FEF740F80120AE
:103B1000FEF73DF80020FEF73AF80220FEF737F8EE
:103B20000020FEF734F82A20FEF731F80020FEF7D7
:103B30002EF83C20FEF72BF80020FEF728F84B204B
:103B4000FEF725F80020FEF722F85D20FEF71FF8AB
:103B50000020FEF71CF87420FEF719F80020FEF78D
:103B600016F88420FEF713F80020FEF710F89320D3
:103B7000FEF70DF80020FEF70AF8A220FEF707F87E
:103B80000020FEF704F8B320FEF701F80020FDF74F
:103B9000FEFFBE20FDF7FBFF0020FDF7F8FFC4206D
:103BA000FDF7F5FF0020FDF7F2FFCD20FDF7EFFF59
:103BB0000020FDF7ECFFD320FDF7E9FF0020FDF723
:103BC000E6FFDD20FDF7E3FF0020FDF7E0FFF32037
:103BD000FDF7DDFF0020FDF7DAFFE520FDF7E1FF4F
:103BE0000020FDF7D4FF0020FDF7D1FF0020FDF7F6
:103BF000CEFF0020FDF7CBFF0220FDF7C8FF00201D
:103C0000FDF7C5FF2920FDF7C2FF0020FDF7BFFF2C
:103C10003C20FDF7BCFF0020FDF7B9FF4B20FDF76E
:103C2000B6FF0020FDF7B3FF5D20FDF7B0FF0020D9
:103C3000FDF7ADFF7420FDF7AAFF0020FDF7A7FFF9
:103C40008420FDF7A4FF0020FDF7A1FF9320FDF7DE
:103C50009EFF0020FDF79BFFA220FDF798FF0020AC
:103C6000FDF795FFB320FDF792FF0020FDF78FFFD2
:103C7000BE20FDF78CFF0020FDF789FFC420FDF773
:103C800086FF0020FDF783FFCD20FDF780FF002099
:103C9000FDF77DFFD320FDF77AFF0020FDF777FFCA
:103CA000DC20FDF774FF0020FDF771FFF320FDF726
:103CB0006EFF0020FDF76BFFE620FDF772FF11207D
:103CC000FDF765FF0020FDF762FF3420FDF75FFF81
:103CD0000020FDF75CFF5620FDF759FF0020FDF79F
:103CE00056FF7620FDF753FF0020FDF750FF7720A9
:103CF000FDF74DFF0020FDF74AFF6620FDF747FF67
:103D00000020FDF744FF8820FDF741FF0020FDF76C
:103D10003EFF9920FDF73BFF0020FDF738FFBB2059
:103D2000FDF735FF0020FDF732FF9920FDF72FFF4B
:103D30000020FDF72CFF6620FDF729FF0020FDF78E
:103D400026FF5520FDF723FF0020FDF720FF55201B
:103D5000FDF71DFF0020FDF71AFF4520FDF717FFB7
:103D60000020FDF714FF4320FDF711FF0020FDF7B1
:103D70000EFF4420FDF70BFF0020FDF708FFE720B2
:103D8000FDF70FFF3220FDF702FF0020FDF7FFFED9
:103D90005520FDF7FCFE0020FDF7F9FE7620FDF72B
:103DA000F6FE0020FDF7F3FE6620FDF7F0FE002092
:103DB000FDF7EDFE6720FDF7EAFE0020FDF7E7FEC8
:103DC0006720FDF7E4FE0020FDF7E1FE8720FDF708
:103DD000DEFE0020FDF7DBFE9920FDF7D8FE002077
:103DE000FDF7D5FEBB20FDF7D2FE0020FDF7CFFE8C
:103DF0009920FDF7CCFE0020FDF7C9FE7720FDF7E6
:103E0000C6FE0020FDF7C3FE4420FDF7C0FE0020E3
:103E1000FDF7BDFE5620FDF7BAFE0020FDF7B7FE08
:103E20002320FDF7B4FE0020FDF7B1FE3320FDF79F
:103E3000AEFE0020FDF7ABFE4520FDF7A8FE0020FA
:103E4000FDF7A5FEE820FDF7ACFE0020FDF79FFE84
:103E50000020FDF79CFE9920FDF799FE0020FDF75C
:103E600096FE8720FDF793FE0020FDF790FE882048
:103E7000FDF78DFE0020FDF78AFE7720FDF787FE17
:103E80000020FDF784FE6620FDF781FE0020FDF78F
:103E90007EFE8820FDF77BFE0020FDF778FEAA203D
:103EA000FDF775FE0020FDF772FEBB20FDF76FFEEB
:103EB0000020FDF76CFE9920FDF769FE0020FDF75C
:103EC00066FE6620FDF763FE0020FDF760FE5520CC
:103ED000FDF75DFE0020FDF75AFE5520FDF757FE69
:103EE0000020FDF754FE4420FDF751FE0020FDF7B1
:103EF0004EFE4420FDF74BFE0020FDF748FE552006
:103F0000FDF745FE0020FDF742FEE920FDF749FEE2
:103F1000AA20FDF73CFE0020FDF739FE0020FDF74A
:103F200036FE0020FDF733FE0020FDF73AFEAA2002
:103F3000FDF72DFECF20FDF734FE0020FDF727FE14
:103F40000020FDF724FE0020FDF721FE0020FDF7F4
:103F50001EFE0020FDF71BFE0020FDF718FE0020CE
:103F6000FDF715FE0020FDF712FE0020FDF70FFE05
:103F70000020FDF70CFE0020FDF709FE0020FDF7F4
:103F800006FE0020FDF703FE0020FDF700FE0020E6
:103F9000FDF7FDFD0020FDF7FAFD0020FDF7F7FD20
:103FA000F020FDF7FEFD0020FDF7F1FD5020FDF7AC
:103FB000EEFD0020FDF7EBFD0020FDF7E8FD002001
:103FC000FDF7E5FDF320FDF7ECFD0020FDF7DFFD3B
:103FD000F920FDF7E6FD0620FDF7D9FD1020FDF7DD
:103FE000D6FD2920FDF7D3FD0020FDF7D0FD3A20B6
:103FF000FDF7D7FD5520FDF7CAFD1120FDF7D1FDD6
:104000006420FDF7AFFC2920FDF7CBFD3520FDF73F
:10401000C8FD0020FDF7BBFD5120FDF7C2FDFF20CC
:10402000FDF7B5FD5320FDF7BCFD2C20FDF7AFFDDE
:104030005520FDF7B6FD8220FDF7A9FD2C20FDF7E8
:10404000B0FD02F028B8FE48808845F21051884241
:104050007ED155214FF47040FDF78DFDAA214FF21E
:104060000100FDF788FD52214FF20200FDF783FDAC
:1040700008214FF20300FDF77EFD01214FF20400FD
:10408000FDF779FD0D214FF43040FDF774FD0D2152
:104090004BF20100FDF76FFD0D214BF20200FDF721
:1040A0006AFD34214FF43640FDF765FD34214BF2B3
:1040B0000160FDF760FD34214BF20260FDF75BFD0E
:1040C0000D214FF43140FDF756FD0D214BF201104B
:1040D000FDF751FD0D214BF20210FDF74CFD34218F
:1040E0004FF43740FDF747FD34214BF20170FDF7E7
:1040F00042FD34214BF20270FDF73DFD00214FF4EB
:104100003240FDF738FD00214BF20120FDF733FD71
:1041100000214BF20220FDF72EFD24214FF4384000
:10412000FDF729FD24214BF60100FDF724FD242194
:104130004BF60200FDF71FFD01214FF43F40FDF754
:104140001AFD0F214FF43340FDF715FD0F2100E05C
:10415000FEE34BF20130FDF70EFD0F214BF2023072
:10416000FDF709FD34214FF43940FDF704FD3421FA
:104170004BF60110FDF7FFFC34214BF60210FDF762
:10418000FAFC08214FF43540FDF7F5FC08214BF20D
:104190000150FDF7F0FC08214BF20250FDF7EBFC5B
:1041A00003214FF44240FDF7E6FC24214FF43A404E
:1041B000FDF7E1FC24214BF60120FDF7DCFC242176
:1041C0004BF60220FDF7D7FC00214FF43C40FDF7F1
:1041D000D2FC78214BF60140FDF7CDFC00214BF6D7
:1041E0000240FDF7C8FC00214FF43D40FDF7C3FC41
:1041F00078214BF60150FDF7BEFC00214BF6025032
:10420000FDF7B9FC00214FF43E40FDF7B4FC6421FA
:104210004BF60160FDF7AFFC00214FF45140FDF774
:10422000AAFC33214DF20110FDF7A5FC00214DF24F
:104230000210FDF7A0FC34214DF20310FDF79BFCAA
:1042400000214DF20410FDF796FC3A214DF20510C5
:10425000FDF791FC00214DF20610FDF78CFC4A2180
:104260004DF20710FDF787FC00214DF20810FDF715
:1042700082FC5C214DF20910FDF77DFC00214DF21E
:104280000A10FDF778FC81214DF20B10FDF773FC4D
:1042900000214DF20C10FDF76EFCA6214DF20D1021
:1042A000FDF769FC00214DF20E10FDF764FCE521DD
:1042B0004DF20F10FDF75FFC01214DF21010FDF7DC
:1042C0005AFC13214DF21110FDF755FC01214DF25E
:1042D0001210FDF750FC54214DF21310FDF74BFC6A
:1042E00001214DF21410FDF746FC82214DF215100C
:1042F000FDF741FC01214DF21610FDF73CFCCA21EF
:104300004DF21710FDF737FC02214DF21810FDF7A2
:1043100032FC00214DF21910FDF72DFC02214DF267
:104320001A10FDF728FC01214DF21B10FDF723FCAC
:1043300002214DF21C10FDF71EFC34214DF21D1020
:10434000FDF719FC02214DF21E10FDF714FC672148
:104350004DF21F10FDF70FFC02214DF22010FDF76A
:104360000AFC84214DF22110FDF705FC02214DF2DB
:104370002210FDF700FCA4214DF22310FDF7FBFBFA
:1043800002214DF22410FDF7F6FBB7214DF2251066
:10439000FDF7F1FB02214DF22610FDF7ECFBCF21DA
:1043A0004DF22710FDF7E7FB02214DF22810FDF733
:1043B000E2FBDE214DF22910FDF7DDFB02214DF27B
:1043C0002A10FDF7D8FBF2214DF22B10FDF7D3FB9D
:1043D00002214DF22C10FDF7CEFBFE214DF22D10E7
:1043E000FDF7C9FB03214DF22E10FDF7C4FB102190
:1043F0004DF22F10FDF7BFFB03214DF23010FDF7FA
:10440000BAFB33214DF23110FDF7B5FB03214DF21C
:104410003210FDF7B0FB6D214DF23310FDF7ABFB11
:1044200000214FF45240FDF7A6FB33214DF201204D
:10443000FDF7A1FB00214DF20220FDF79CFB01E0FE
:104440008001002034214DF20320FDF794FB002170
:104450004DF20420FDF78FFB3A214DF20520FDF7C8
:104460008AFB00214DF20620FDF785FB4A214DF223
:104470000720FDF780FB00214DF20820FDF77BFBB4
:104480005C214DF20920FDF776FB00214DF20A2058
:10449000FDF771FB81214DF20B20FDF76CFB002134
:1044A0004DF20C20FDF767FBA6214DF20D20FDF724
:1044B00062FB00214DF20E20FDF75DFBE5214DF280
:1044C0000F20FDF758FB01214DF21020FDF753FBA3
:1044D00013214DF21120FDF74EFB01214DF2122068
:1044E000FDF749FB54214DF21320FDF744FB012158
:1044F0004DF21420FDF73FFB82214DF21520FDF710
:104500003AFB01214DF21620FDF735FBCA214DF291
:104510001720FDF730FB02214DF21820FDF72BFB91
:1045200000214DF21920FDF726FB02214DF21A2041
:10453000FDF721FB01214DF21B20FDF71CFB0221A1
:104540004DF21C20FDF717FB34214DF21D20FDF725
:1045500012FB02214DF21E20FDF70DFB67214DF2EB
:104560001F20FDF708FB02214DF22020FDF703FB81
:1045700084214DF22120FDF7FEFA02214DF2222086
:10458000FDF7F9FAA4214DF22320FDF7F4FA0221F8
:104590004DF22420FDF7EFFAB7214DF22520FDF76B
:1045A000EAFA02214DF22620FDF7E5FACF214DF27D
:1045B0002720FDF7E0FA02214DF22820FDF7DBFA73
:1045C000DE214DF22920FDF7D6FA02214DF22A20F4
:1045D000FDF7D1FAF2214DF22B20FDF7CCFA0221A2
:1045E0004DF22C20FDF7C7FAFE214DF22D20FDF7EC
:1045F000C2FA03214DF22E20FDF7BDFA10214DF233
:104600002F20FDF7B8FA03214DF23020FDF7B3FA61
:1046100033214DF23120FDF7AEFA03214DF2322065
:10462000FDF7A9FA6D214DF23320FDF7A4FA002120
:104630004FF45340FDF79FFA33214DF20130FDF75F
:104640009AFA00214DF20230FDF795FA34214DF22D
:104650000330FDF790FA00214DF20430FDF78BFA9C
:104660003A214DF20530FDF786FA00214DF2063071
:10467000FDF781FA4A214DF20730FDF77CFA00215F
:104680004DF20830FDF777FA5C214DF20930FDF765
:1046900072FA00214DF20A30FDF76DFA81214DF2D8
:1046A0000B30FDF768FA00214DF20C30FDF763FA8C
:1046B000A6214DF20D30FDF75EFA00214DF20E30CD
:1046C000FDF759FAE5214DF20F30FDF754FA0121BB
:1046D0004DF21030FDF74FFA13214DF21130FDF776
:1046E0004AFA01214DF21230FDF745FA54214DF2FC
:1046F0001330FDF740FA01214DF21430FDF73BFA7B
:1047000082214DF21530FDF736FA01214DF21630B7
:10471000FDF731FACA214DF21730FDF72CFA0221CC
:104720004DF21830FDF727FA00214DF21930FDF750
:1047300022FA02214DF21A30FDF71DFA01214DF245
:104740001B30FDF718FA02214DF21C30FDF713FA69
:1047500034214DF21D30FDF70EFA02214DF21E30CC
:10476000FDF709FA67214DF21F30FDF704FA022127
:104770004DF22030FDF7FFF984214DF22130FDF795
:10478000FAF902214DF22230FDF7F5F9A4214DF29C
:104790002330FDF7F0F902214DF22430FDF7EBF95B
:1047A000B7214DF22530FDF7E6F902214DF2263012
:1047B000FDF7E1F9CF214DF22730FDF7DCF90221B9
:1047C0004DF22830FDF7D7F9DE214DF22930FDF703
:1047D000D2F902214DF22A30FDF7CDF9F2214DF246
:1047E0002B30FDF7C8F902214DF22C30FDF7C3F94B
:1047F000FE214DF22D30FDF7BEF903214DF22E3092
:10480000FDF7B9F910214DF22F30FDF7B4F903216E
:104810004DF23030FDF7AFF933214DF23130FDF775
:10482000AAF903214DF23230FDF7A5F96D214DF2C1
:104830003330FDF7A0F900214FF45440FDF79BF908
:1048400033214DF20140FDF796F900214DF202406F
:10485000FDF791F934214DF20340FDF78CF9002169
:104860004DF20440FDF787F93A214DF20540FDF77E
:1048700082F900214DF20640FDF77DF94A214DF203
:104880000740FDF778F900214DF20840FDF773F974
:104890005C214DF20940FDF76EF900214DF20A400E
:1048A000FDF769F981214DF20B40FDF764F9002114
:1048B0004DF20C40FDF75FF9A6214DF20D40FDF7DA
:1048C0005AF900214DF20E40FDF755F9E5214DF260
:1048D0000F40FDF750F901214DF21040FDF74BF963
:1048E00013214DF21140FDF746F901214DF212401E
:1048F000FDF741F954214DF21340FDF73CF9012138
:104900004DF21440FDF737F982214DF21540FDF7C5
:1049100032F901214DF21640FDF72DF9CA214DF271
:104920001740FDF728F902214DF21840FDF723F951
:1049300000214DF21940FDF71EF902214DF21A40F7
:10494000FDF719F901214DF21B40FDF714F900E0C4
:1049500004E302214DF21C40FDF70DF934214DF224
:104960001D40FDF708F902214DF21E40FDF703F945
:1049700067214DF21F40FDF7FEF802214DF2204065
:10498000FDF7F9F884214DF22140FDF7F4F80221FA
:104990004DF22240FDF7EFF8A4214DF22340FDF740
:1049A000EAF802214DF22440FDF7E5F8B7214DF277
:1049B0002540FDF7E0F802214DF22640FDF7DBF837
:1049C000CF214DF22740FDF7D6F802214DF22840C5
:1049D000FDF7D1F8DE214DF22940FDF7CCF8022198
:1049E0004DF22A40FDF7C7F8F2214DF22B40FDF7BA
:1049F000C2F802214DF22C40FDF7BDF8FE214DF228
:104A00002D40FDF7B8F803214DF22E40FDF7B3F825
:104A100010214DF22F40FDF7AEF803214DF230404A
:104A2000FDF7A9F833214DF23140FDF7A4F8032139
:104A30004DF23240FDF79FF86D214DF23340FDF706
:104A40009AF800214FF45540FDF795F833214DF2C7
:104A50000150FDF790F800214DF20250FDF78BF860
:104A600034214DF20350FDF786F800214DF2045039
:104A7000FDF781F83A214DF20550FDF77CF8002151
:104A80004DF20650FDF777F84A214DF20750FDF739
:104A900072F800214DF20850FDF76DF85C214DF2DF
:104AA0000950FDF768F800214DF20A50FDF763F850
:104AB00081214DF20B50FDF75EF800214DF20C50B4
:104AC000FDF759F8A6214DF20D50FDF754F80021DD
:104AD0004DF20E50FDF74FF8E5214DF20F50FDF766
:104AE0004AF801214DF21050FDF745F813214DF21F
:104AF0001150FDF740F801214DF21250FDF73BF83F
:104B000054214DF21350FDF736F801214DF21450A7
:104B1000FDF731F882214DF21550FDF72CF80121F7
:104B20004DF21650FDF727F8CA214DF21750FDF748
:104B300022F802214DF21850FDF71DF800214DF228
:104B40001950FDF718F802214DF21A50FDF713F82D
:104B500001214DF21B50FDF70EF802214DF21C50C1
:104B6000FDF709F834214DF21D50FDF704F802213C
:104B70004DF21E50FCF7FFFF67214DF21F50FCF76E
:104B8000FAFF02214DF22050FCF7F5FF84214DF28F
:104B90002150FCF7F0FF02214DF22250FCF7EBFF11
:104BA000A4214DF22350FCF7E6FF02214DF22450E0
:104BB000FCF7E1FFB7214DF22550FCF7DCFF0221A5
:104BC0004DF22650FCF7D7FFCF214DF22750FCF7CE
:104BD000D2FF02214DF22850FCF7CDFFDE214DF22D
:104BE0002950FCF7C8FF02214DF22A50FCF7C3FF01
:104BF000F2214DF22B50FCF7BEFF02214DF22C505A
:104C0000FCF7B9FFFE214DF22D50FCF7B4FF032154
:104C10004DF22E50FCF7AFFF10214DF22F50FCF754
:104C2000AAFF03214DF23050FCF7A5FF33214DF2CE
:104C30003150FCF7A0FF03214DF23250FCF79BFFEF
:104C40006D214DF23350FCF796FF00214FF4564092
:104C5000FCF791FF33214DF20160FCF78CFF00213E
:104C60004DF20260FCF787FF34214DF20360FCF740
:104C700082FF00214DF20460FCF77DFF3A214DF2E6
:104C80000560FCF778FF00214DF20660FCF773FF2A
:104C90004A214DF20760FCF76EFF00214DF20860DB
:104CA000FCF769FF5C214DF20960FCF764FF00210D
:104CB0004DF20A60FCF75FFF81214DF20B60FCF7BB
:104CC0005AFF00214DF20C60FCF755FFA6214DF272
:104CD0000D60FCF750FF00214DF20E60FCF74BFF1A
:104CE000E5214DF20F60FCF746FF01214DF2106007
:104CF000FCF741FF13214DF21160FCF73CFF01214D
:104D00004DF21260FCF737FF54214DF21360FCF7AF
:104D100032FF01214DF21460FCF72DFF82214DF28C
:104D20001560FCF728FF01214DF21660FCF723FF08
:104D3000CA214DF21760FCF71EFF02214DF21860E8
:104D4000FCF719FF00214DF21960FCF714FF022156
:104D50004DF21A60FCF70FFF01214DF21B60FCF7CA
:104D60000AFF02214DF21C60FCF705FF34214DF2D1
:104D70001D60FCF700FF02214DF21E60FCF7FBFEF8
:104D800067214DF21F60FCF7F6FE02214DF2206014
:104D9000FCF7F1FE84214DF22160FCF7ECFE0221CC
:104DA0004DF22260FCF7E7FEA4214DF22360FCF7F0
:104DB000E2FE02214DF22460FCF7DDFEB7214DF248
:104DC0002560FCF7D8FE02214DF22660FCF7D3FEE9
:104DD000CF214DF22760FCF7CEFE02214DF2286074
:104DE000FCF7C9FEDE214DF22960FCF7C4FE02216A
:104DF0004DF22A60FCF7BFFEF2214DF22B60FCF76A
:104E0000BAFE02214DF22C60FCF7B5FEFE214DF2F8
:104E10002D60FCF7B0FE03214DF22E60FCF7ABFED7
:104E200010214DF22F60FCF7A6FE03214DF23060F9
:104E3000FCF7A1FE33214DF23160FCF79CFE03210B
:104E40004DF23260FCF797FE6D214DF23360FCF7B6
:104E500092FE55214FF47040FCF78DFEAA214FF2CF
:104E60000100FCF788FE52214FF20200FCF783FE9E
:104E700008214FF20300FCF77EFE00214FF20400F0
:104E8000FCF779FECC214FF43140FCF774FE002191
:104E90004BF20110FCF76FFE05214FF43640FCF792
:104EA0006AFE70214FF43740FCF765FE70214BF22B
:104EB0000170FCF760FE01214FF43840FCF75BFE07
:104EC00003214BF60100FCF756FE03214BF60200CE
:104ED000FCF751FE03214BF60300FCF74CFE0221C8
:104EE0004FF43C40FCF747FE00214BF60140FCF735
:104EF00042FE00214BF60240FCF73DFED0214FF46C
:104F00004940FCF738FE02214CF60110FCF733FE55
:104F100050214CF60210FCF72EFE50214CF60310E7
:104F2000FCF729FE50214CF60410FCF724FE00216A
:104F30004FF45450FCF71FFE55214FF46850FCF716
:104F40001AFE4FF48850FCF72CFE7820FCF7C2FCC8
:104F50004FF42450FCF725FE01F09DB8FE488088F0
:104F600049F2253188427DD147F6F001E520FCF772
:104F700002FE4FF480710120FCF7FDFD4FF4E0616B
:104F80000220FCF7F8FD41F230010320FCF7F3FDAD
:104F900000210420FCF7EFFD40F202210820FCF77D
:104FA000EAFD00210920FCF7E6FD00210A20FCF7BC
:104FB000E2FD00210C20FCF7DEFD00210D20FCF7B6
:104FC000DAFD00210F20FCF7D6FD00211020FCF7B0
:104FD000D2FD07211120FCF7CEFD00211220FCF7A5
:104FE000CAFD00211320FCF7C6FD00210720FCF7B5
:104FF000C2FD41F290611020FCF7BDFD40F2272177
:105000001120FCF7B8FD9D211220FCF7B4FD4FF4F0
:10501000C8511320FCF7AFFD25212920FCF7ABFD7B
:105020000D212B20FCF7A7FD07213020FCF7A3FD65
:1050300040F203313120FCF79EFD03213220FCF7C2
:105040009AFD40F206213520FCF795FD0821362017
:10505000FCF791FD40F206413720FCF78CFD4FF440
:10506000417100E058E03820FCF785FD0721392028
:10507000FCF781FD40F202613C20FCF77CFD082139
:105080003D20FCF778FD00215020FCF774FDEF2156
:105090005120FCF770FD00215220FCF76CFD40F21E
:1050A0003F115320FCF767FD4FF427416020FCF7C8
:1050B00062FD01216120FCF75EFD00216A20FCF702
:1050C0005AFD00218020FCF756FD00218120FCF7CD
:1050D00052FD00218220FCF74EFD00218320FCF7C9
:1050E0004AFD00218420FCF746FD00218520FCF7C5
:1050F00042FD10219020FCF73EFD4FF4C06192204C
:10510000FCF739FD40F233110720FCF734FD222172
:105110000020FCF730FD1FE78F48808849F22831D6
:1051200088427DD141F28F01EC20FCF724FD41F251
:105130003421EF20FCF71FFD4FF480710120FCF7B4
:105140001AFD4FF4E0610220FCF715FD41F2300139
:105150000320FCF710FD00210420FCF70CFD40F2B9
:1051600002210820FCF707FD00210920FCF703FDC0
:1051700000210A20FCF7FFFC01210C20FCF7FBFCBE
:1051800000210D20FCF7F7FC00210F20FCF7F3FCB9
:1051900000211020FCF7EFFC07211120FCF7EBFCAD
:1051A00000211220FCF7E7FC00211320FCF7E3FCB0
:1051B00001210720FCF7DFFC3220FCF7D3FB41F292
:1051C00090411020FCF7D7FC40F227211120FCF77A
:1051D000D2FC3220FCF7C6FB8A211220FCF7CBFC64
:1051E0003220FCF7BFFB4FF4D0511320FCF7C3FC77
:1051F00006212920FCF7BFFC0D212B20FCF7BBFC6E
:105200003220FCF7AFFB00212020FCF7B4FC00218A
:105210002120FCF7B0FC3220FCF7A4FB002100E0C9
:1052200075E03020FCF7A7FC40F204613120FCF768
:10523000A2FC40F205313220FCF79DFC0021352014
:10524000FCF799FC40F609413620FCF794FC4FF43A
:1052500001713720FCF78FFC40F201313820FCF758
:105260008AFC40F207713920FCF785FC00213C20C4
:10527000FCF781FC40F60A213D20FCF77CFC322043
:10528000FCF770FB00215020FCF775FCEF2151204A
:10529000FCF771FC00215220FCF76DFC40F23F113D
:1052A0005320FCF768FC4FF427416020FCF763FCB7
:1052B00001216120FCF75FFC00216A20FCF75BFC08
:1052C00000218020FCF757FC00218120FCF753FCD3
:1052D00000218220FCF74FFC00218320FCF74BFCCF
:1052E00000218420FCF747FC00218520FCF743FCCB
:1052F00010219020FCF73FFC4FF4C0619220FCF796
:105300003AFC40F233110720FCF735FC24E6124842
:10531000808849F2203188427ED100210846FCF77E
:105320002AFC4FF480710120FCF725FC4FF4E0616A
:105330000220FCF720FC41F230010320FCF71BFCAB
:1053400000210420FCF717FC40F202210820FCF7A2
:1053500012FC0021092001E080010020FCF70BFC79
:1053600000210A20FCF707FC01210C20FCF703FCBC
:1053700000210D20FCF7FFFB00210F20FCF7FBFBB9
:105380003220FCF7EFFA40F201110720FCF7F3FBA3
:105390003220FCF7E7FA4FF486511020FCF7EBFBC4
:1053A00007211120FCF7E7FB4FF488711220FCF76E
:1053B000E2FB4FF430611320FCF7DDFB00212920D4
:1053C000FCF7D9FB44F210012B20FCF7D4FB0021A1
:1053D0005020FCF7D0FBEF215120FCF7CCFB002143
:1053E0005220FCF7C8FB40F23F115320FCF7C3FBEF
:1053F0004FF41C516020FCF7BEFB01216120FCF73B
:10540000BAFB00216A20FCF7B6FB00218020FCF7E4
:10541000B2FB0021812000E030E0FCF7ACFB002172
:105420008220FCF7A8FB00218320FCF7A4FB0021CD
:105430008420FCF7A0FB00218520FCF79CFB1021B9
:105440009020FCF798FB00219220FCF794FB0121AF
:105450009320FCF790FB4FF488719520FCF78BFBB1
:1054600000219720FCF787FB00219820FCF783FBA5
:1054700040F273110720FCF77EFB6DE5FE48808843
:1054800049F2313188427DD141F21401E720FCF725
:1054900072FB4FF480710120FCF76DFB4FF400713B
:1054A0000220FCF768FB41F238010320FCF763FBA4
:1054B00040F202210820FCF75EFB00210920FCF7E6
:1054C0005AFB00210A20FCF756FB00210C20FCF7B8
:1054D00052FB00210D20FCF74EFB00210F20FCF7B2
:1054E0004AFB00211020FCF746FB07211120FCF7A6
:1054F00042FB00211220FCF73EFB00211320FCF7A9
:105500003AFBC820FCF72EFA41F290611020FCF71C
:1055100032FB40F227211120FCF72DFB3220FCF753
:1055200021FA0C211220FCF726FB3220FCF71AFA94
:105530004FF400611320FCF71EFB11212920FCF71A
:105540001AFB0B212B20FCF716FB3220FCF70AFA82
:1055500000212020FCF70FFB40F23F112120FCF737
:105560000AFB00213020FCF706FB4FF48371312049
:10557000FCF701FB00213220FCF7FDFA4FF401712A
:10558000352000E064E0FCF7F6FA41F20A613620CB
:10559000FCF7F1FA40F207713720FCF7ECFA4FF410
:1055A00083713820FCF7E7FA40F207713920FCF7E5
:1055B000E2FA40F202413C20FCF7DDFA40F60F41EE
:1055C0003D20FCF7D8FA00215020FCF7D4FAEF2157
:1055D0005120FCF7D0FA00215220FCF7CCFA40F21F
:1055E0003F115320FCF7C7FA4FF41C516020FCF721
:1055F000C2FA01216120FCF7BEFA00216A20FCF703
:10560000BAFA00218020FCF7B6FA00218120FCF7CD
:10561000B2FA00218220FCF7AEFA00218320FCF7C9
:10562000AAFA00218420FCF7A6FA00218520FCF7C5
:10563000A2FA10219020FCF79EFA4FF4C06192204C
:10564000FCF799FA40F233110720FCF794FA83E44F
:105650008948808845F2084188427DD14FF48071A5
:105660000120FCF788FA4FF4E0610220FCF783FA8E
:1056700041F230010320FCF77EFA00210420FCF700
:105680007AFA40F207210820FCF775FA0021092078
:10569000FCF771FA00210A20FCF76DFA00210C20BA
:1056A000FCF769FA00210D20FCF765FA00210F20B4
:1056B000FCF761FA1420FCF755F941F2B0611020B3
:1056C000FCF759FA01211120FCF755FA01211720A6
:1056D000FCF751FA4FF49C711220FCF74CFA4FF48E
:1056E00000611320FCF747FA09212920FCF743FA4F
:1056F00009212A20FCF73FFA0021A420FCF73BFAFD
:1057000000215020FCF737FAEF215120FCF733FA43
:1057100000215220FCF72FFA40F23F115320FCF7F2
:105720002AFA4FF41C516020FCF725FA0121612070
:10573000FCF721FA00216A20FCF71DFA00218020E5
:10574000FCF719FA00218120FCF715FA00218220CC
:10575000FCF711FA002100E024E08320FCF70BFAAB
:1057600000218420FCF707FA00218520FCF703FACA
:1057700013219020FCF7FFF900219220FCF7FBF9A0
:1057800003219320FCF7F7F94FF488719520FCF77B
:10579000F2F940F273110720FCF7EDF93220FCF723
:1057A000E1F8B8E43448808841F2055188427DD15F
:1057B00000210720FCF7DFF93220FCF7D3F84FF483
:1057C0008E711220FCF7D7F90121A420FCF7D3F940
:1057D0000F210820FCF7CFF908210A20FCF7CBF9AC
:1057E00008210D20FCF7C7F940F207713020FCF7C3
:1057F000C2F907213120FCF7BEF940F203613220E3
:10580000FCF7B9F94FF4E0613320FCF7B4F940F24A
:1058100002213420FCF7AFF902213520FCF7ABF967
:1058200041F60F713620FCF7A6F940F207713720D8
:10583000FCF7A1F900213820FCF79DF9002139205F
:10584000FCF799F940F207713A20FCF794F900212E
:105850003B20FCF790F907213C20FCF78CF9002154
:105860003D20FCF788F93220FCF77CF80121072065
:10587000FCF781F9012101E0800100201720FCF7ED
:105880007AF93220FCF76EF84FF4BD511020FCF786
:1058900072F940F217211120FCF76DF94FF48F7166
:1058A0001220FCF768F94FF4706100E098E01320D3
:1058B000FCF761F900212A20FCF75DF90A21292073
:1058C000FCF759F94FF49F711220FCF754F90021AD
:1058D0005020FCF750F9EF215120FCF74CF9002142
:1058E0005220FCF748F940F23F115320FCF743F9EE
:1058F0004FF41C516020FCF73EF901216120FCF7B8
:105900003AF900216A20FCF736F900218020FCF7E3
:1059100032F900218120FCF72EF900218220FCF7CA
:105920002AF900218320FCF726F900218420FCF7C6
:1059300022F900218520FCF71EF913219020FCF7A5
:105940001AF94FF440719220FCF715F905219320C4
:10595000FCF711F900219520FCF70DF900219720A3
:10596000FCF709F900219820FCF705F94FF4807144
:105970000120FCF700F94FF4E0610220FCF7FBF88E
:1059800041F238010320FCF7F6F800210420FCF76F
:10599000F2F800210C20FCF7EEF800210F20FCF7B4
:1059A000EAF800212020FCF7E6F800212120FCF78E
:1059B000E2F821210720FCF7DEF81420FBF7D2FFE4
:1059C00061210720FCF7D7F81420FBF7CBFF40F24A
:1059D00073110720FCF7CFF81420FBF7C3FF5AE33D
:1059E000FE4880884BF2055188427CD10021084650
:1059F000FCF7C1F800210846FCF7BDF80021084675
:105A0000FCF7B9F800210846FCF7B5F80121A420FD
:105A1000FCF7B1F81420FBF7A5FF4FF41C516020F0
:105A2000FCF7A9F840F202210820FCF7A4F84FF493
:105A300005713020FCF79FF843F215713120FCF717
:105A40009AF840F204613220FCF795F840F61661AE
:105A50003320FCF790F842F211213420FCF78BF848
:105A60004FF4A8513520FCF786F848F2075136204C
:105A7000FCF781F841F207413720FCF77CF841F24E
:105A800003413820FCF777F820213920FCF773F820
:105A90001A219020FCF76FF800211020FCF76BF81A
:105AA00007211120FCF767F800211220FCF763F8AA
:105AB00000211320FCF75FF81420FBF753FF4FF48D
:105AC000E6611020FCF757F840F237111120FCF77F
:105AD00052F81420FBF746FF4FF4DC711220FCF75C
